:020000040000FA
:10000000A02800208DF00000C5520100EDF0000096
:10001000EDF00000EDF00000EDF00000EDF000006C
:100020000000000000000000000000006DEE000075
:10003000EDF000000000000015EE000049E60000B1
:100040004DF000004DF000004DF000004DF00000BC
:100050004DF000004DF000004DF000004DF00000AC
:100060004DF000004DF000004DF000004DF000009C
:100070004DF000004DF000004DF000004DF000008C
:100080004DF000004DF000004DF000004DF000007C
:100090004DF000004DF000004DF000004DF000006C
:1000A0004DF000004DF000004DF000004DF000005C
:1000B0004DF000004DF000004DF000004DF000004C
:1000C0004DF000004DF000004DF000004DF000003C
:1000D0004DF000004DF000004DF000004DF000002C
:1000E0004DF000004DF000004DF000004DF000001C
:1000F0004DF000004DF000004DF000004DF000000C
:100100004DF000004DF000004DF000004DF00000FB
:100110004DF000004DF000004DF000004DF00000EB
:100120004DF000004DF000004DF000004DF00000DB
:100130004DF000004DF000004DF000004DF00000CB
:100140004DF000004DF000004DF000004DF00000BB
:100150004DF0000000000000000000000000000062
:10016000000000000000000000000000000000008F
:10017000000000000000000000000000000000007F
:10018000000000000000000000000000000000006F
:10019000000000000000000000000000000000005F
:1001A000000000000000000000000000000000004F
:1001B000000000000000000000000000000000003F
:1001C000000000000000000000000000000000002F
:1001D000000000000000000000000000000000001F
:1001E000000000000000000000000000000000000F
:1001F00000000000000000000000000000000000FF
:10020000DEE61E284CBBCE8F023500003C0000000D
:1002100000C001000100000000000000000000001C
:10022000FFFF02910000000000000000000000003D
:1002300000000000000000000000000053B94AB9AF
:10024000002908BF00281CBF4FF0FF314FF0FF30DE
:1002500000F070B9ADF1080C6DE904CE00F006F8BD
:10026000DDF804E0DDE9022304B070472DE9F04732
:10027000089E0D4604468A46002B7FD18A421746C7
:1002800041D9B2FA82F24AB1C2F1200105FA02F371
:100290009740944020FA01F141EA030A4FEA1748D7
:1002A0004FEA144C1FFA87F9BAFBF8FE08FB1EA3AD
:1002B0000EFB09F14CEA0343994206D9FB1802D21E
:1002C000994200F224810EF1FF3E591AA3B2B1FB0C
:1002D000F8F008FB101100FB09F943EA0144A145BD
:1002E00005D93C1902D2A14500F20E810138A4EBD8
:1002F000090440EA0E4000211EB1D4400023C6E9A3
:100300000043BDE8F08702B9FFDEB2FA82F2002AAC
:100310004FD1CB1B4FEA174E1FFA87F80121250C4E
:10032000B3FBFEFC0EFB1C302B4608FB0CF945EA28
:100330000045A9450AD97D192CBF01230023A945F1
:1003400002D9002B00F0D9800CF1FF3CA5EB090588
:10035000A3B2B5FBFEF00EFB105508FB00F843EA14
:100360000544A04505D93C1902D2A04500F2C98038
:100370000138A4EB080440EA0C40BDE78B4208D9E1
:10038000002E00F0B1800021C6E900050846BDE856
:10039000F087B3FA83F1002946D1AB42C0F0A780C1
:1003A000824240F2A4800846002EAAD0C6E9004A44
:1003B000A7E7C2F12000974001FA02F34FEA174E77
:1003C000C14024FA00F51FFA87F894401D43B1FBA1
:1003D000FEF02B0C0EFB101100FB08FC43EA01435E
:1003E0009C4509D9FB182CBF012100219C4502D94D
:1003F000002900F095800138A3EB0C03ADB2B3FBEC
:10040000FEF10EFB113301FB08FC45EA0345AC4548
:1004100005D97D1902D2AC4500F289800139A5EBDE
:100420000C0341EA00417AE7C1F120048B4002FA53
:1004300001F705FA01FCE24020FA04F8E54000FA71
:1004400001FE134348EA0C024FEA13484FEA124CEC
:100450001FFA83F9B5FBF8FA08FB1A550AFB09F0F5
:100460004CEA054C60450AD913EB0C0C2CBF012556
:100470000025604501D9002D55D00AF1FF3AACEBBB
:10048000000C92B2BCFBF8F008FB10CC00FB09F9A1
:1004900042EA0C4CE14505D913EB0C0C01D2E145C5
:1004A0003BD8013840EA0A40ACEB090CA0FB0789B5
:1004B000CC4545464A4602D306D1C64504D201384A
:1004C000B8EB070569EB03022EB3BEEB05036CEB3B
:1004D000020C23FA01F20CFA04F42CFA01F30021C5
:1004E0001443C6E900430CE73146304609E7841A55
:1004F00065EB030301209A4656E7ACF1020C3D443C
:1005000024E702383C4434E702383C44EFE6AEF1DD
:10051000020E3B44D9E63146F3E602389C44C1E77B
:1005200002383B4468E7AAF1020A9C44A7E7023973
:100530003D4474E7704700BF124B0360124B4360A9
:10054000124B8360124BC360124B0361124B436129
:10055000124B836103F17453A3F52303A3F6924373
:10056000C36100220023C0E9082300F1280C634680
:1005700000F1680143F8042B8B42FBD10023836612
:10058000704700BF67E6096A85AE67BB72F36E3CD1
:100590003AF54FA57F520E518C68059BABD9831F4E
:1005A000013A0A44D208835CCA08805C40EA03200E
:1005B00001F00701C840704720FA01F101304308FB
:1005C0004A1E02EA50005B42494219400843704704
:1005D0002DE9F043079F97B39946A1F1040E141F2C
:1005E000A0F1040C4FEA87080EEB8707664600214E
:1005F0000D465EF8042F521A65EB050154F8043FCE
:10060000D21A61F1000146F8042F01F00101BE4544
:10061000EFD14A42A9F1040604388044002425465B
:1006200056F8043F13405CF8041F091945EB050414
:100630005B18CCF8003044F10004C445F0D1BDE8AB
:10064000F083F0B50446104602B3A1F1040E0EEBA0
:1006500082070020054606460DE004340D435EF88F
:10066000043F1B1846EB0600C91A60EB400000F07F
:100670000100BE450BD0A446002319461CF8012BEF
:100680009A4011430833202BF8D1E6E715466B1E3C
:1006900023EA0505002DB4BF002000F00100F0BDE5
:1006A0002DE9F04FDDF82480002A49D006460C469B
:1006B0009946571E4FEA880AAAF1040A4FF0000E25
:1006C0001CE03268C3464FF0FF3430460021530827
:1006D0000131426843EAC27340F8043BA142F6D3B9
:1006E000002C08BF01244FEACB7B4BEA520246F8AC
:1006F0002420013FB7F1FF3F22D03446256845F35F
:100700000005B8F1000FDCD0A4F1040CA9F104003D
:10071000331F5444F34650F8042F2A405CF8041F5A
:1007200011EB0B014EEB0E0B511843F8041F4BF16C
:10073000000BA445EFD13268B8F10104C5D1D2E76E
:10074000BDE8F08F2DE9F04F83B0019008684E6846
:10075000D2F80080D2F804905A1E0092002B56D096
:10076000012400252B462746AA4640F3000E0EEA38
:100770000801421A411A6AEB0A0101F0010B0EEA64
:100780000901711A6AEB0A0CB1EB0B016CF1000C58
:1007900081EA0C0182EA0C020CF0010B12EB0B0255
:1007A00041F1000180EA080000EA0C0088EA000834
:1007B00086EA090606EA0C0689EA060987EA0500C0
:1007C00000EA0C004740454083EA040000EA0C0CB4
:1007D0008CEA03038CEA04040EEA05003F1A0EEAD1
:1007E000040EA3EB0E036D006400C80740EA52003C
:1007F0004E08009A013A0092B2F1FF3FB5D1019A3A
:10080000176053609560D46003B0BDE8F08F1D465B
:1008100001242746F3E7BBB130B502F0010C0439DF
:10082000043801EB83054FF0000E51F8043F5340AC
:1008300003EB0C0440F8044F13EB0C034EEB0E03D8
:100840009C46A942F1D130BD704793B110B504392F
:10085000A0F1040E01EB8304002051F8043FA3FB38
:10086000023C1B184EF8043F4CF10000A142F4D1A9
:1008700010BD1846704703463038C0B2092810D959
:10088000A3F16102D2B2052A07D9A3F14102D2B283
:10089000052A05D8373BD8B27047573BD8B27047C6
:1008A000102070472DE9F84307468946164613780D
:1008B000302B0ED05FEA490813D0751E002415F8BE
:1008C000010FFFF7D8FF0F280AD801344445F6D1AD
:1008D00007E0537803F0DF03582B08BF0236E9E73F
:1008E000A0464FEA9900B9F1030F07D93A46002311
:1008F000194642F8041B01339842FAD808F1FF3434
:10090000B8F1000F10D000252D0116F8010BFFF7EC
:10091000B2FF054314F0070F04BFE30847F8235064
:10092000013CB4F1FF3FEFD1BDE8F8832DE9F04F72
:1009300087B000AF3860B9607B617B6C0133980091
:100940007860C31D23F00703ADEB030DE84615687F
:100950007B6C63B30C1FA8F10406A0F1040CA44443
:10096000002154F8043FA3FB05305B1846F8043F10
:1009700040F100016445F4D1786CD8F800303C6C4B
:1009800004FB03F348F820107D6955F80419F96059
:10099000914679680E1F043A314632443A61354433
:1009A000BA68161F0E444FF0000C644656E0786C8F
:1009B0000146E2E7012372E07B6C7BB3A8F10404FB
:1009C0007B69A3F1040C3B68191F7B68083B9844C2
:1009D0000E46204600231D4650F8042FD31A65EB1F
:1009E00005025CF8049FB3EB090362F1000246F8CC
:1009F000043F02F001034045EED1AEEB030E386830
:100A00007B681844083851F8042F54F8043F5340C9
:100A100003EA0E0353400B608142F4D11C37BD46FC
:100A2000BDE8F08F5EF8041FA1FB0B105CF8043FDB
:100A30009B1844EB0402CB18CCF8003040EB0202C8
:100A4000B645EFD1796CD8F80030386C00FB03F371
:100A500012EB0A0244F1000C48F82120FA68A3FBCB
:100A600002E1D8F800001EEB000041F10002796CB1
:100A700001299FD9C6467869B34650F8041FA1FBE7
:100A8000031A8A184AF10001DEF8046092194EF840
:100A9000042B41F10002A842EFD15E467B6C08EBCB
:100AA000830058F8233012EB0C0144EB040E591864
:100AB0004EF1000E40F8041CF2463B6999453FF4A4
:100AC0007BAF59F804BF7B6C33B1BB68A3F1040E54
:100AD000A8F1040C2246A5E7796C0A46B3E710B5E5
:100AE00082B00B1F021F01F15C0C53F8044F42F857
:100AF000044F6345F9D1064B0C220192054A00923E
:100B000003F1300260316030FFF710FF02B010BD1A
:100B1000085A0100FDFFFCFF23B32DE9F04782B026
:100B20005F1E03EB43031C01303C06190D191444EE
:100B3000DFF834A04FF00C09DFF83080CDF80490D6
:100B4000CDF800805346224629463046FFF7EEFE98
:100B5000013F303E303D303CB7F1FF3FEED102B0B7
:100B6000BDE8F087704700BF085A0100FDFFFCFF99
:100B70002DE9F04182B004460D466030164E4FF02C
:100B80000C08CDF80480154F009733460A460146FD
:100B9000FFF7CCFE04F19000CDF8048000973346B7
:100BA0002A460146FFF7C2FE04F1C0003035CDF8F9
:100BB0000480009733462A460146FFF7B7FE04F14A
:100BC000F000CDF80480009733462A460146FFF72F
:100BD000ADFE02B0BDE8F081085A0100FDFFFCFF48
:100BE0002DE9F04383B007460D4616460B1FA0F1D2
:100BF000040C01F15C0E53F8044F4CF8044F73459C
:100C0000F9D11C4C4FF00C09CDF80490DFF8688046
:100C1000CDF800802346324605F1600107F16000FF
:100C2000FFF784FECDF80490CDF8008023463246CD
:100C300005F1900107F19000FFF778FE3036CDF80E
:100C40000490CDF800802346324605F1C00107F13B
:100C5000C000FFF76BFECDF80490CDF8008023466E
:100C6000324605F1F00107F1F000FFF75FFE03B037
:100C7000BDE8F083085A0100FDFFFCFF2DE9F04FAD
:100C800083B000AF7B603D6B4FEA850909F1070433
:100C900024F00704ADEB040D002D44D0EA46A1F189
:100CA000040CA2F1040EAAF104040CEB0908264678
:100CB00000210D465CF8042F5EF8043FD21845EB86
:100CC000050B521846F8042F4BF10001C445F1D131
:100CD0007B68043B051FA9F104029244AE462646F8
:100CE0004FF00008C44656F8042FB2EB08026CEB34
:100CF0000C0853F804BFB2EB0B0268F100084EF881
:100D0000042F08F001085645EDD1A1EB0802043884
:100D1000814455F8041F54F8043F4B4013404B40A6
:100D20002B604D45F5D10C37BD46BDE8F08F43B380
:100D30002DE9F04782B0044688465E1E03EB43036C
:100D400002EB0312A2F13005DFF838900C27DFF830
:100D500038A00197CDF800A04B46424621462046D8
:100D6000FFF7E4FD00974B462A4621462046FFF751
:100D700085FF013E303DB6F1FF3FEAD102B0BDE84C
:100D8000F0877047085A0100FDFFFCFF2DE9F04F86
:100D900087B000AFF8601846BB609E007E61F31D0F
:100DA00023F00703ADEB030D6C463C61ADEB030D87
:100DB000002800F087806D46081F043C786000EB37
:100DC000060EA4460346002153F8046F41EA46018B
:100DD0004CF8041FF10F7345F6D1A2F1040E043D47
:100DE0007B69A3F1040B3B699B44A946F046A446EA
:100DF0004FF0000A56465CF8043FB3EB0A0A66EB74
:100E0000060258F8043FBAEB030362F1000A49F8FE
:100E1000043F0AF0010ADC45EDD1A1EB0A0AA04625
:100E2000AC460026BA685CF8041F58F8043F4B40F3
:100E300003EA0A034B40CCF800300136B242F2D14B
:100E4000D7F804C07B699C44264600231946A8466F
:100E500050F8042F58F8045F521941EB0105D218DD
:100E600046F8042F45F100036045F1D1FA68151FDB
:100E70007A69A2F104083A6942449046AC46204699
:100E80000022164650F8041F8A1A66EB06015EF827
:100E9000049FB2EB090261F100014CF8042F01F04C
:100EA00001024045EED19B1AFA68101F7A6910447E
:100EB00055F8041F54F8042F4A401A404A402A604B
:100EC0008542F5D11C37BD46BDE8F08F2DE9F04FC6
:100ED00085B000AFF8600D467B60BB6B9900CB1D01
:100EE00023F00703ADEB030D6B46BB60002A4BD02C
:100EF00002F1FF3B0A1F3A6003EB020AA0F104096A
:100F00008944002410E050F8042F56F8043F534061
:100F100003EA0803534003604845F4D10BF1FF3B5B
:100F2000BBF1FF3F30D0FD68BB6B002BF6D02B1F11
:100F3000BA68161F3A6815443046214653F8042F04
:100F400041EA420140F8041FD10FAB42F6D17B6861
:100F5000A3F1040EFB68181F84463546A04655F8D9
:100F6000043FB3EB080864EB04025EF8043FB8EBFF
:100F7000030362F100084CF8043F08F001085545EE
:100F8000EDD1A1EB0808BEE71437BD46BDE8F08FF0
:100F90002DE9F04F87B000AF78608C463A617B61F5
:100FA000D7F840804FEA8801B960CB1D23F00703D2
:100FB000ADEB030DB8F1000F63D0EA46164656F8C4
:100FC0000439FB600E444FF000094D4600E0D44662
:100FD000DCF800107B6903FB01F4FB68A4FB03232E
:100FE000521843F1000BB8F1010F4ED9AAF1040ECB
:100FF000386950F8042FA2FB04215CF8043F13EB7E
:101000000B0345EB050BD3184EF8043F41EB0B0BDC
:10101000B042EED14346013B4AF823B009F1010941
:10102000C845D4D1AAF104013B69A3F1040C7B6843
:10103000181FBB68043B9A4406460C4600231D4615
:1010400054F8042FD31A65EB05025CF804EFB3EBF8
:101050000E0362F1000246F8043F02F0010354451A
:10106000EED15E427A68151FBA681544013B50F80C
:10107000042F1A4051F8044F344022430260A84222
:10108000F5D11C37BD46BDE8F08F0123C3E72DE93C
:10109000F04F87B000AF786039603A617B61D7F874
:1010A00040804FEA8800B860C31D23F00703ADEB12
:1010B000030DB8F1000F7AD0EA46164656F8043907
:1010C000FB6006448C464FF000094D4600E0D446D4
:1010D000DCF800107B6903FB01F4FB68A4FB03232D
:1010E000521843F1000BB8F1010F64D9AAF1040EB4
:1010F000386950F8042FA2FB04215CF8043F13EB7D
:101100000B0345EB050BD3184EF8043F41EB0B0BDB
:10111000B042EED14346013B4AF823B009F1010940
:10112000C845D4D1BB68191F3B681944AAF104050E
:10113000043B03EBC909284600231C4651F8042F41
:1011400050F8046F921944EB0406D218026046F17D
:1011500000034945F2D13A69A2F1040E7A68101FE2
:10116000BA68043A924484462C460022164654F843
:10117000041F8A1A66EB06015EF8048FB2EB0802C0
:1011800061F100014CF8042F01F001025445EED149
:101190009B1A7A68141FBA68144450F8041F55F853
:1011A000042F4A401A404A400260A042F5D11C3741
:1011B000BD46BDE8F08F0123ADE72DE9F84300AF50
:1011C0004FEA820909F1070323F00703ADEB030D92
:1011D000036803F0010E82B3E846031FA8F1040080
:1011E00003EB090405464FF0000C53F8042F4CEABA
:1011F000420645F8046F4FEAD27CA342F5D10C1F9A
:10120000A9F1040646440022154650F8043F9A1AF4
:1012100065EB050354F8041F521A63F1000202F053
:101220000102B042F1D1ACEB0202D24302F0020261
:1012300042EA0E00BD46BDE8F8839446F3E72DE987
:10124000F04F87B000AF38607960FB60D7F844801A
:1012500008F10104A400E31D23F00703ADEB030D27
:10126000EA461668B8F1000F29D00D1FAAF1040C48
:10127000A4F1040EAE44002155F8043FA3FB063050
:101280005B184CF8043F40F100017545F4D140462D
:10129000DAF800303D6C05FB03F34AF82010D7F86C
:1012A0000C9059F80419396104327A61043CA14464
:1012B0004FF0010B00260AEB8802BA603EE041467F
:1012C0004046E5E7DAF804300B44CAF80030D84568
:1012D00058D0B8F1000F02D14146424622E07B6966
:1012E000D3F800C002E07B69D3F800C07B68A3F1AB
:1012F000040EAAF10405002422465EF8041FA1FB97
:101300000C1055F8043F9B1846EB0602CB182B60D7
:1013100040EB02020134A045EFD8B8F1000F14BF32
:1013200041460121DAF80030386C00FB03F34AF83B
:1013300021200BF1010B7A6904327A613A69A3FB2F
:101340000210DAF800208A1840F100010A46B8F1CC
:10135000010FB7D95446F86850F8041FA1FB0315D4
:101360008A1845F100016568521944F8042B41F1CF
:1013700000024845F0D1B9680B68134441F8043CB9
:10138000D845B0D13BF040410BD0AAF1040A3B68EC
:10139000043B0AEB81015AF8042F43F8042F8A45D5
:1013A000F9D11C37BD46BDE8F08F2DE9F04F85B06F
:1013B00000AFF86090467B60D7F838B0FE6B721CC7
:1013C000BA6090003860C31D23F00703ADEB030D36
:1013D0006C46ADEB030D6D46D8F800304FEAE3796B
:1013E00083EAE37AAAEBE37A33464A462046FFF7DC
:1013F00012FA3346524621462046FFF726FA09EAFA
:101400000A09A0EB090044F82600DBF800304FEA97
:10141000E37983EAE37AAAEBE37A33464A467968CA
:101420002846FFF7F8F93346524629462846FFF783
:101430000CFA09EA0A09A0EB090045F82600BA6887
:10144000002A3ED0211F043D3868A0F1040CA444BA
:1014500000221046AE4651F8043F5EF8045F5B1967
:1014600040EB00059B180B6045F100026145F2D18D
:10147000226866B1FB68181F0021930F013154F8F0
:10148000042F43EA820340F8043F8E42F5D8D8F88F
:10149000003083EAE273A3EBE273C8F80030DBF8B4
:1014A000003083EAE273A3EBE273CBF800303346FB
:1014B000D217F9680846FFF7AEF91437BD46BDE804
:1014C000F08F2268D6E72DE9F04F83B000AF786047
:1014D000084639605E1CB600F11D21F00701ADEB36
:1014E000010DEB46002B55D0041FABF10405A6F10E
:1014F000040CA444002054F8041FA1FB021E091888
:1015000045F8041F4EF100006445F4D119464BF82C
:10151000210079680D1FABF1040CA6F1040A8A447E
:101520006446AE464FF00009C8465EF8041FB1EBB2
:10153000090968EB080054F8041FB9EB010160F1D8
:101540000009216009F00109D645EED1C9F1000872
:10155000BBB139680439083EB3440024A24651F8AF
:10156000040F08EA00005CF8046F36194AEB0A041D
:10157000861944F1000445F8046F04F00104DC45C9
:10158000EDD1A2EB09007A6842F823000C37BD4682
:10159000BDE8F08F18461946B9E770B59AB0054610
:1015A0000C460C230093154B154A0EA8FFF7F0FCD0
:1015B00005F1300C2A4605F12F018B1A23F00300A8
:1015C0001AAD284403F00303DB0050F8300C20FA76
:1015D00003F302F8013B9445EFD1094D0C26009628
:1015E000064B2A4604F1300102A8FFF7D1FC32462F
:1015F000294602A8FFF7E1FD1AB070BDFDFFFCFF10
:10160000085A010070B58EB005460E460C230093B3
:101610001E4B1F4A02A8FFF7BBFC05F130042A4607
:1016200005F12F00831A23F003010DF1380C6144FA
:1016300003F00303DB0051F8301C21FA03F302F836
:10164000013BA242EED10C230093104B104A06F14D
:10165000300102A8FFF79CFC05F160015F352B1BF0
:1016600023F003020EA8024403F00303DB0052F848
:10167000302C22FA03F304F8013B8C42EFD10C2208
:10168000034902A8FFF799FD0EB070BDFDFFFCFFF6
:10169000085A0100F0B5A7B006460D460C2300938A
:1016A0003E4B3F4A30311AA8FFF772FC06F1300476
:1016B000324606F12F00831A23F0030126AF394486
:1016C00003F00303DB0051F8301C21FA03F302F8A6
:1016D000013BA242EFD10C230093304B304A294604
:1016E0001AA8FFF755FC06F160015F36331B23F0A3
:1016F000030226A8024403F00303DB0052F8302C57
:1017000022FA03F304F8013B8C42EFD1234F244C1F
:101710000C2600963B46224605F1600102A8FFF721
:1017200037FC00963B46224605F190010EA8FFF7D4
:101730002FFC3246214602A8FFF73FFD0546324600
:1017400021460EA8FFF739FD0DAA02AB19AE002104
:1017500052F8044F2143B242FAD14C1E24EA01014F
:10176000CC0F05EAE171013C04400C4303F1300663
:10177000002253F8041B0A439E42FAD1531E23EA67
:101780000202D30F00EAE270013B2B40034303F057
:10179000010304F00200184327B0F0BDFDFFFCFF79
:1017A000085A0100F0B59BB006460F460C23009383
:1017B000524B534A30310EA8FFF7EAFB06F13004D2
:1017C000324606F12F00831A23F003011AAD294493
:1017D00003F00303DB0051F8301C21FA03F302F895
:1017E000013BA242EFD10C230093444B444A3946BB
:1017F00002A8FFF7CDFB06F1600506F15F010B1BA8
:1018000023F003021AA8024403F00303DB0052F89A
:10181000602C22FA03F304F8013BAC42EFD10C2315
:101820000093364B364A07F190010EA8FFF7B0FB44
:1018300006F1900406F18F014B1B23F003021AA856
:10184000024403F00303DB0052F8302C22FA03F3C6
:1018500005F8013BAC42EFD10C230093274B284AFB
:1018600007F1600102A8FFF793FB06F1C001BF3644
:10187000331B23F003021AA8024403F00303DB0026
:1018800052F8602C22FA03F304F8013B8C42EFD1AA
:101890001B4C0C22214602A8FFF78FFC05460C22A8
:1018A00021460EA8FFF789FC0DAA02AB19AE002154
:1018B00052F8044F2143B242FAD14C1E24EA0101EE
:1018C000CC0F05EAE171013C04400C4303F1300602
:1018D000002253F8041B0A439E42FAD1531E23EA06
:1018E0000202D30F00EAE270013B2B40034303F0F6
:1018F000010304F0020018431BB0F0BDFDFFFCFF24
:10190000085A0100F0B59BB00446244D0C26019600
:10191000234F00972B46024601460EA8FFF706F814
:10192000019600972B4622460EA90846FEF7FEFFB9
:1019300000962B4605F160020EA90846FFF79EF9B6
:1019400004F13001019600972B460A4602A8FEF7E3
:10195000EDFF0DF1380C0DF1080E1AA800215CF80E
:10196000043B5EF8042B534019438445F7D101F141
:10197000FF3E2EEA01014FEAD17E231F04F15C0CE9
:10198000002153F8042F11436345FAD1481E20EA81
:1019900001004EEAD0701BB0F0BD00BF085A010034
:1019A000FDFFFCFF2DE9F04F83B000AF7A60D7F860
:1019B00030A04FEA8A0B0BF1070222F00702ADEBD1
:1019C000020DBAF1000F45D06D46A3F1040E0C1FB5
:1019D000A5F10409F344A04600231E465EF8042F37
:1019E000D31A66EB060C58F8042F9A1A6CF1000310
:1019F00049F8042F03F00103DE45EFD13AF0404CE3
:101A00002CD00E1F06EB8C06002354F8042F134332
:101A1000B442FAD15A1E22EA0303D7F804C0002BBD
:101A2000B4BF4FF0000C0CF0010CCCF100060439EF
:101A3000043D043800240CF1FF3C51F8043F0CEA4B
:101A4000030355F8042F3240134340F8043F013498
:101A5000A245F2D80C37BD46BDE8F08F6646E6E7F2
:101A600000B583B00A4630300C230093034B014687
:101A7000FFF798FF03B05DF804FB00BF085A0100B0
:101A8000F8B50D46C2F3001102F00F07034600F14E
:101A90009004002243F8042BA342FBD18C3501268D
:101AA00087EA060E5FFA8EFE0EF1FF3E4FEAEE7EEB
:101AB000A5F1900C021F52F8044F5CF8043F6340FC
:101AC00003EA0E0363401360AC45F4D10136903550
:101AD000092EE5D1FFF7C4FFF8BDF8B50D46C2F3F6
:101AE000401102F01F07034600F19004002243F862
:101AF000042BA342FBD18C35012603E0013690353F
:101B0000112E16D087EA060E5FFA8EFE0EF1FF3E0A
:101B10004FEAEE7EA5F1900C021F52F8044F5CF8DC
:101B2000043F634003EA0E0363401360AC45F4D105
:101B3000E4E7FFF795FFF8BDF0B583B004460D4626
:101B40006030094E0C27009733460A460146FFF7DE
:101B500029FF04F19000009733462A460146FFF71B
:101B600021FF03B0F0BD00BF085A0100F8B50D46D3
:101B7000C2F3001102F00F07034600F59074002233
:101B800043F8042BA342FBD105F58E75012687EAA5
:101B9000060E5FFA8EFE0EF1FF3E4FEAEE7EA5F5D1
:101BA000907C021F52F8044F5CF8043F634003EA44
:101BB0000E0363401360AC45F4D1013605F5907512
:101BC000092EE4D1FFF7B8FFF8BDF8B50D46C2F312
:101BD000401102F01F07034600F59074002243F8FD
:101BE000042BA342FBD105F58E75012604E00136D6
:101BF00005F59075112E16D087EA060E5FFA8EFE57
:101C00000EF1FF3E4FEAEE7EA5F5907C021F52F8E2
:101C1000044F5CF8043F634003EA0E036340136023
:101C2000AC45F4D1E3E7FFF787FFF8BDF0B583B02B
:101C300004460D461A4E0C27009733460122FFF743
:101C4000B1FE00973346012205F1300104F1300066
:101C5000FFF7A8FE00973346012205F1600104F169
:101C60006000FFF79FFE00973346012205F19001C7
:101C700004F19000FFF796FE00973346012205F12C
:101C8000C00104F1C000FFF78DFE0097334601222A
:101C900005F1F00104F1F000FFF784FE03B0F0BDA0
:101CA000085A010008B500F590700146FFF7BEFF25
:101CB00008BD2DE9F04FCDB08146884600F1600A9D
:101CC00000F15C038C30002253F8041F0A43834266
:101CD000FAD1531E23EA0202D30F039308F1600BDB
:101CE00008F15C0308F18C00002253F8041F0A433A
:101CF0008342FAD1541E24EA0204E40F2E4D0C272D
:101D000001972E4E00962B465246514640A8FEF7AC
:101D10000DFE019700962B465A46594634A8FEF709
:101D200005FE019700962B4634AA49461CA8FEF7EB
:101D3000FDFD019700962B4640AA414604A8FEF7F8
:101D4000F5FD019700962B465A4609F1300128A867
:101D5000FEF7ECFD019700962B46524608F1300144
:101D600010A8FEF7E3FD019700962B4634AA28A998
:101D70000846FEF7DBFD019700962B4640AA10A906
:101D80000846FEF7D3FD1BAA0DEB070133AE00207A
:101D900052F8043F51F8045F6B401843B242F7D148
:101DA000431E23EA0000039B5C4084F0010404EA24
:101DB000D0704DB0BDE8F08F085A0100FDFFFCFF68
:101DC0002DE9F047A6B006460F464C4C0C25019570
:101DD000DFF82C81CDF8008023460A461AA8FEF7CA
:101DE000A5FD07F1300A0195CDF800802346524643
:101DF00051460EA8FEF79AFD0195CDF800802346C6
:101E00000EAA114602A8FEF791FD009523463A4618
:101E10000EA90846FEF732FF0195CDF80080234653
:101E20000EAA11461046FEF781FD009523461AAA18
:101E30000EA90846FEF7CCFB0095234602AA0EA980
:101E40000846FEF7C5FB009523460EAA114610462C
:101E5000FEF714FF2B4622461AA90846FEF796FF06
:101E60000195CDF8008023461AAA11463046FEF7A8
:101E70005DFD009523460EAA31463046FEF7A8FBCD
:101E8000009523460EAA31463046FEF7A1FB06F127
:101E9000600907F16001009523460A464846FEF7AF
:101EA000EDFE0195CDF8008023465246494648464E
:101EB000FEF73CFD00952346032202A90846FFF7E2
:101EC00005F806F130070095234632460EA938463C
:101ED000FEF77EFB0195CDF8008023461AAA39460D
:101EE0003846FEF723FD0095234602AA39463846B8
:101EF000FEF76EFB26B0BDE8F08700BF085A010070
:101F0000FDFFFCFF2DE9F04182B004460D46164668
:101F1000204F4FF00C08CDF800803B46FEF758FBF1
:101F2000CDF800803B4606F1300205F1300104F1A6
:101F30003000FEF74DFBCDF800803B4606F1600215
:101F400005F1600104F16000FEF742FBCDF800806E
:101F50003B4606F1900205F1900104F19000FEF776
:101F600037FBCDF800803B4606F1C00205F1C00109
:101F700004F1C000FEF72CFBCDF800803B4606F1D3
:101F8000F00205F1F00104F1F000FEF721FB02B0D0
:101F9000BDE8F081085A01002DE9F04182B0044605
:101FA0000D461646204F4FF00C08CDF800803B46FA
:101FB000FEF764FECDF800803B4606F1300205F1E5
:101FC000300104F13000FEF759FECDF800803B46A9
:101FD00006F1600205F1600104F16000FEF74EFEBB
:101FE000CDF800803B4606F1900205F1900104F126
:101FF0009000FEF743FECDF800803B4606F1C0029C
:1020000005F1C00104F1C000FEF738FECDF80080F4
:102010003B4606F1F00205F1F00104F1F000FEF795
:102020002DFE02B0BDE8F081085A01002DE9F04F05
:10203000E5B003900D46924601F1600B01F15C039F
:1020400001F18C00002253F8041F0A438342FAD1A5
:10205000561E26EA0206F60F884C4FF00C08CDF803
:102060000480874F009723465A46594634A8FEF706
:102070005DFCCDF80480009723465A4634A958A841
:10208000FEF754FCCDF80480009723460AF1300295
:1020900058A90846FEF74AFCAAF104080AF15C00B8
:1020A0004346002253F8041F0A438342FAD1531EC9
:1020B00023EA0202D30F0293704C0C270197DFF83A
:1020C000C091CDF80090234634AA514628A8FEF7C7
:1020D0002DFC009723462A4628A90846FEF778FAE1
:1020E0000197CDF80090234628AA11461CA8FEF7B8
:1020F0001DFC009723461CAA114610A8FEF7BEFD42
:102100000097234610AA11461046FEF7B7FD019727
:10211000CDF80090234610AA29464CA8FEF706FCED
:102120000197CDF80090234610AA28A904A8FEF72D
:10213000FDFB05F1300A0197CDF800902346524689
:1021400004A910A8FEF7F2FB00972346524658A9AF
:102150000846FEF73DFA0097234658AA1146104656
:10216000FEF78CFD0197CDF80090234658AA114642
:1021700040A8FEF7DBFB0097234604AA40A90846C7
:10218000FEF726FA009723464CAA40A90846FEF718
:102190001FFA009723464CAA40A90846FEF718FAF2
:1021A0000097234640AA4CA90846FEF711FA01976A
:1021B000CDF80090234658AA4CA90846FEF7B6FB76
:1021C0000097234610AA4CA90846FEF701FA00978B
:1021D000234610AA4CA90846FEF7FAF900972346B1
:1021E00028AA594658A8FEF749FD0197CDF8009056
:1021F000234658AA11461046FEF798FB009723463F
:1022000034AA58A90846FEF7E3F9009723461CAA0A
:1022100058A90846FEF7DCF9764204F1900157AA66
:10222000C03451F8043B52F8040F4340334043405C
:102230001360A142F5D140AA58AC1146086858F87D
:10224000043F43403340434041F8043BA142F5D1B1
:10225000029B5C42043D039B181F02F1900652F85A
:10226000041B55F8043F4B4023404B4040F8043FCB
:10227000B242F4D165B0BDE8F08F00BF085A01004A
:10228000FDFFFCFF2DE9F047A6B0044601F1300246
:102290000846002501F12F073B1A10F8016B46EAAA
:1022A000052523F0030326AE334443F8605C9042D7
:1022B000F2D101F1600600205F318B1A12F8015B48
:1022C00045EA002023F0030326AD2B4443F8300CED
:1022D000B242F2D1199B23F060431993384B0DF1B0
:1022E00038080C22009203F1C002414602A8FEF712
:1022F000C5FC02AEC246454641463246002052F871
:10230000043B51F8047B7B401843AA42F7D1431E9B
:10231000834303D4012026B0BDE8F087284B0C226C
:10232000009203F1C0021AA902A8FEF7A7FC19A99E
:10233000002256F8043B51F8040F43401A43AE42C2
:10234000F7D1531E934301D40120E4E71C4D05F55A
:1023500034764FF00C09CDF80490DFF86880CDF8A2
:1023600000802B4632460EA90846FEF7DFFACDF86C
:102370000490CDF800802B4632461AA90846FEF795
:10238000D5FA0EA8FFF7BEFAB8B10DAA231F0AF1BD
:102390005C07194652F8040F41F8040FBA42F9D10C
:1023A0002C34002253F8041F0A43A342FAD1531ECF
:1023B00093434CBF03200020ADE70220ABE700BFF2
:1023C000085A0100FDFFFCFF2DE9F04FFDB003901E
:1023D0000F46164601F1600A01F15C0301F18C0021
:1023E000002253F8041F0A438342FAD1531E23EA02
:1023F0000202D30F0293954C4FF00C08CDF80480E5
:10240000934D00952346524651464CA8FEF78EFA4E
:10241000CDF804800095234652464CA970A8FEF7DB
:1024200085FACDF804800095234606F1300270A9A4
:102430000846FEF77BFA06F1600B06F15C0306F135
:102440008C014FF0000853F8042F48EA02088B4231
:10245000F9D17E4C0C250195DFF8F491CDF8009070
:1024600023465A46594640A8FEF760FA0195CDF832
:10247000009023465A4640A928A8FEF757FA01952E
:10248000CDF80090234607F1300228A90846FEF750
:102490004DFA0095234628AA70A90846FEF798F839
:1024A0000095234670AA11461046FEF7E7FB0195FA
:1024B000CDF80090234640AA394634A8FEF736FAF4
:1024C0000195CDF8009023464CAA31461CA8FEF792
:1024D0002DFA0095234634AA1CA90846FEF778F881
:1024E000009523461CAA114610A8FEF7C7FB0195CC
:1024F000CDF80090234610AA11461046FEF716FAB2
:102500000195CDF80090234610AA1CA904A8FEF757
:102510000DFA0195CDF80090234604AA28A9084693
:10252000FEF704FA0195CDF80090234610AA34A9CD
:1025300064A8FEF7FBF90195CDF80090234670AA38
:10254000114658A8FEF7F2F90095234604AA58A9A7
:102550000846FEF73DF80095234664AA58A90846A8
:10256000FEF736F80095234664AA58A90846FEF7F8
:102570002FF80095234658AA64A90846FEF728F8C4
:102580000195CDF80090234670AA64A90846FEF78D
:10259000CDF90095234628AA64A90846FEF718F845
:1025A0000095234628AA64A90846FEF711F800956D
:1025B00023465A46514670A8FEF760FB0195CDF8B8
:1025C0000090234670AA11461046FEF7AFF9009519
:1025D00023464CAA70A90846FDF7FAFF009523464A
:1025E00040AA70A90846FDF7F3FF0195CDF80090C9
:1025F00023461CAA70A90846FEF798F908F1FF3394
:1026000023EA08084FEAE878043F58AC7CAD22463C
:10261000116857F8043F4B4003EA08034B4042F867
:10262000043BAA42F4D1029B5A42043E039B181F6A
:1026300054F8041B56F8043F4B4013404B4040F8FD
:10264000043FAC42F4D17DB0BDE8F08F085A0100E0
:10265000FDFFFCFF70B506460B1F021F01F18C0049
:1026600053F8044F42F8044F8342F9D106F1900029
:10267000FFF7A6FB06F59075344606F5D876224698
:10268000903421462846FFF79FFE214605F1900031
:10269000FFF796FB05F59075B442F0D170BD2DE9BA
:1026A000F043ADF26C6D0746884601F16009AD4C10
:1026B0000C250195AC4E009623464A4649460DF539
:1026C000C760FEF733F90195009623460DF5C76202
:1026D00011460DF5C160FEF729F9019500962346D4
:1026E0000DF5C1620DF5C7610DF5BB60FEF71EF972
:1026F0000195009623460DF5C16211460DF5B560B2
:10270000FEF714F90195009623460DF5BB620DF511
:10271000C1610DF5AF60FEF709F9019500962346FA
:102720000DF5BB6211460DF5A960FEF7FFF80195A6
:10273000009623460DF5B5620DF5BB610DF5A3605E
:10274000FEF7F4F80195009623460DF5B5621146A3
:102750000DF59D60FEF7EAF80195009623460DF50C
:10276000AF620DF5B5610DF59760FEF7DFF80195E5
:10277000009623460DF5AF6211460DF59160FEF708
:10278000D5F80195009623460DF5A9620DF5AF61C8
:102790000DF58B60FEF7CAF80195009623460DF5FE
:1027A000A96211460DF58560FEF7C0F80195009607
:1027B00023460DF5A3620DF5A961FEA8FEF7B6F854
:1027C0000195009623460DF5A3621146F2A8FEF787
:1027D000ADF80195009623460DF59D620DF5A361B8
:1027E000E6A8FEF7A3F80B230DF58B6204F5407104
:1027F00032A8FEF791F901950096234604F5A262EE
:10280000414626A8FEF792F800952346AAAA26A9D3
:102810000846FEF733FA0A2332AA414626A8FEF7F5
:1028200086FA0A230DF5916204F5A86132A8FEF735
:1028300073F9009523469EAA41461AA8FEF71EFA90
:10284000092332AA41461AA8FEF771FA01950096AB
:1028500023460DF5C7621AA90846FEF767F80F234D
:10286000E6AA04F5E46132A8FEF756F90195009650
:10287000234604F51F6241460EA8FEF757F800955F
:102880002346DAAA0EA90846FEF7F8F90E2332AA63
:1028900041460EA8FEF74BFA01950096234608F133
:1028A00030020EA90846FEF741F80F23E6AA04F508
:1028B000226132A8FEF730F900952346DAAA414694
:1028C00002A8FEF7DBF90E2332AA414602A8FEF762
:1028D0002EFA0195009623464A460DF5C761084633
:1028E000FEF724F80195009623460DF5C76202A96C
:1028F0000846FEF71BF807F160080195009623468D
:1029000002AA1AA94046FEF711F80195009623463F
:1029100002AA26A93846FEF709F801950096234633
:10292000424639463846FEF701F8303701950096A1
:102930002346424641463846FDF7F8FF019500968A
:1029400023461AAA39463846FDF7F0FF019500964E
:1029500023460EAA39463846FDF7E8FF0DF26C6DA6
:10296000BDE8F083085A0100FDFFFCFF2DE9F04FA0
:1029700089B002AF38600C469C463D6C6B46A3EBB9
:10298000C5039D4602AEA3EBC5039D4602AB3B616A
:1029900035F0404151D09246221F8B00BB6002EBC4
:1029A00081011346002453F8040F04438B42FAD1EB
:1029B000631E23EA0403DB0FFB6035D14FEA850B6E
:1029C000331F52F8040F43F8040F8A42F9D1BCF1C7
:1029D000000F35D0ACF10400ABF104033344BA6806
:1029E000811850F8042F43F8042F8842F9D1AAF136
:1029F00004033A69043AB968581853F8041F42F8B6
:102A0000041F8342F9D13B6903EB0B000346BA680C
:102A10008118002243F8042B8B42FBD1ABF1040355
:102A20007B6005F1FF3994E03A681346B9681144B8
:102A3000002243F8042B8B42FBD13B680024A4E026
:102A400006EB0B021346B9685018002143F8041B2B
:102A50008342FBD101231360C9E775B17969C2F1E3
:102A6000200C96464A6802FA0CF0034341F8043BF6
:102A700022FA0EF3A142F5D1724646F82530CDF880
:102A80000090534641464046FDF70AFE316811F07A
:102A9000010F0FD14B08C1F3400211F0020FDCD13E
:102AA0008B08022213F0010FD7D101325B081F2AD5
:102AB000F8D1D2E72B464D469946A6F1040E3B6964
:102AC000A3F1040CF868024600245EF8043F9B1A48
:102AD00064EB04025CF8041F5B1A62F1000202F06E
:102AE000010201308542F0D112B13B693E611E46C0
:102AF000311F3B69A3F1040E0C46F86880464FF085
:102B0000000C54F8043FB3EB08036CEB0C085EF8C0
:102B1000042F9B1A68F10008236008F001080130B7
:102B20008542EED8BB68181F3044FB6851F8042F6B
:102B300013438142FAD15C1E24EA0303DC0F06EB47
:102B40000B00009553463A695A440146FDF740FD93
:102B500064B906EB0B08316811F0010FADD17E614D
:102B60007B689C194B46A9461D4693E7ABF10402CE
:102B70003B6913441A463B68043BB868184452F852
:102B8000041F43F8041F9842F9D120461C37BD4664
:102B9000BDE8F08F2DE9F04FF3B005900D461446D7
:102BA000171F02F15C003B46002253F8041F0A4342
:102BB0008342FAD1531E23EA0202D30F0493AC4E90
:102BC0004FF00C08CDF800803346224621461EA85F
:102BD000FEF754F8CDF80480A64B00933346224606
:102BE000214612A8FDF7A2FE4346324612A9084626
:102BF000FEF7CCF804F1300BCDF8008033465A468E
:102C0000594606A8FEF73AF805F1600A05F15C039B
:102C100005F18C00002253F8041F0A438342FAD1C5
:102C2000531E23EA0202D30F0393914E4FF00C0878
:102C3000CDF80480DFF83C92CDF800903346524640
:102C400051462AA8FDF772FECDF80480CDF8009019
:102C5000334652462AA936A8FDF768FECDF804800F
:102C6000CDF8009033465A4636A90846FDF75EFE79
:102C7000CDF80080334605F1300236A90846FDF74D
:102C8000A7FCCDF80480CDF80090334622462AA94F
:102C90000846FDF74BFECDF8008033462A462AA9A8
:102CA00042A8FDF7EBFFCDF8008033462A462AA95B
:102CB0000846FDF78DFCCDF80480CDF80090334632
:102CC00052462AA966A8FDF731FE29A941AC0B4658
:102CD000002253F8040F0243A342FAD1531E23EA01
:102CE0000202D217043D4EAC0DF5CC782046AC461E
:102CF000BE465CF8046F5EF8043F734013407340B7
:102D000040F8043B4045F4D165AE0DF14809B446A6
:102D100006A850F8043B5CF804EF83EA0E03134066
:102D200083EA0E03CCF800304845F2D105A80DF136
:102D3000A40C964651F8042F50F8043F534003EA80
:102D40000E0353400B606045F4D1DFF824914FF03F
:102D50000C0ACDF804A0DFF81CB1CDF800B04B464A
:102D60002AAA114606A8FDF7E1FDCDF804A0CDF88A
:102D700000B04B462AAA06A912A8FDF7D7FDCDF848
:102D800004A0CDF800B04B465AAA12A90846FDF798
:102D9000CDFDCDF804A0CDF800B04B464EAA06A953
:102DA0005AA8FDF7C3FDCDF804A0CDF800B04B46FE
:102DB00042AA06A90846FDF7B9FDCDF804A0CDF852
:102DC00000B04B4636AA11464EA8FDF7AFFDCDF830
:102DD00000A04B4606AA4EA90846FDF7F9FBCDF820
:102DE00000A04B464EAA5AA90846FDF7F1FBCDF8C4
:102DF00004A0CDF800B04B4636AA5AA90846FDF704
:102E000095FDCDF800A04B4612AA5AA90846FDF739
:102E1000DFFB039B5A422146086857F8043F4340B2
:102E20001340434041F8043B4145F5D1104F07F1B1
:102E30009001C03751F8043B56F8040F434013404B
:102E400043403360B942F5D1049B5942059B181F9A
:102E500004F1900654F8042B55F8043F53400B40FE
:102E6000534040F8043FA642F4D173B0BDE8F08F60
:102E7000085A0100FDFFFCFF2DE9F04FF3B005906B
:102E80000C4615460293C94E0C27009733460A4656
:102E90001EA8FDF7F3FE0197C54B0093334622466B
:102EA000214612A8FDF742FD3B46324612A90846CC
:102EB000FDF76CFF04F13008009733464246414667
:102EC00006A8FDF7DBFE05F1600705F15C0305F1DF
:102ED0008C00002253F8041F0A438342FAD1531E88
:102EE00023EA0202D30F0493DFF8C0924FF00C0BD9
:102EF000CDF804B0DFF8B8A2CDF800A04B463A46B2
:102F000039464EA8FDF712FD04F16006CDF804B075
:102F1000CDF800A04B463A46314666A8FDF706FDBF
:102F200004F15C0304F18C00002253F8041F0A43EF
:102F30008342FAD1531E23EA0202D30F03930C23D8
:102F400001939B4B0093994B324631462AA8FDF7DB
:102F5000EDFC029B0BB3DFF854924FF00C0ACDF856
:102F600004A0DFF84CB2CDF800B04B462AAA1146B7
:102F70005AA8FDF7DBFCCDF804A0CDF800B04B4615
:102F8000029A5AA90846FDF7D1FCCDF800A04B469D
:102F90005AAA12A90846FDF771FEDFF810924FF009
:102FA0000C0ACDF804A0DFF808B2CDF800B04B460B
:102FB0003A4641465AA8FDF7B9FCCDF804A0CDF831
:102FC00000B04B464EAA5AA90846FDF7AFFCCDF813
:102FD00004A0CDF800B04B46324605F1300136A8CA
:102FE000FDF7A4FCCDF804A0CDF800B04B462AAA0A
:102FF00036A90846FDF79AFCCDF800A04B465AAA20
:1030000036A90846FDF7E4FACDF804A0CDF800B0E3
:103010004B4622464EA90846FDF788FCCDF804A091
:10302000CDF800B04B462A462AA90846FDF77EFC9B
:10303000CDF800A04B464EAA2AA942A8FDF71EFED5
:10304000CDF800A04B464EAA2AA90846FDF7C0FAC3
:1030500029AA41AE1346002153F8040F0143B3429D
:10306000FAD1481E20EA0100C017043C4EAE72AFF0
:103070003146A44696460A685CF8043F5340034034
:10308000534041F8043BB942F5D1724605A90DF110
:10309000A40C864652F8040F51F8043F434003EA5B
:1030A0000E03434013606145F4D1DFF800814FF017
:1030B0000C09CDF80490DFF8F8A0CDF800A0434645
:1030C0002AAA66A90846FDF731FCCDF80490CDF890
:1030D00000A043462AAA114606A8FDF727FCCDF812
:1030E0000490CDF800A043462AAA06A912A8FDF72D
:1030F0001DFCCDF80490CDF800A043465AAA12A9B1
:103100000846FDF713FCCDF80490CDF800A0434627
:103110004EAA06A95AA8FDF709FCCDF80490CDF8EF
:1031200000A0434642AA06A90846FDF7FFFBCDF8DA
:103130000490CDF800A0434636AA11464EA8FDF7EC
:10314000F5FBCDF80090434606AA4EA90846FDF7C8
:103150003FFACDF8009043464EAA5AA90846FDF71B
:1031600037FACDF80490CDF800A0434636AA5AA904
:103170000846FDF7DBFBCDF80090434612AA5AA99A
:103180000846FDF725FA049B58423246116854F868
:10319000043F4B4003404B4042F8043BBA42F5D158
:1031A000039B5A42043D059B181F03E0085A010087
:1031B000FDFFFCFF56F8041B55F8043F4B4013403D
:1031C0004B4040F8043FBE42F4D173B0BDE8F08FED
:1031D0002DE9F04FA7B000AF054616463B60D7F883
:1031E000C080D7F8C4307BB376B1A1F1040AD7F818
:1031F000C49000245AF8041F4846FFF72BFA013404
:1032000009F59069A642F5D108F003014A1C012393
:10321000934003F1FF3A8946B8EB01081DD008F14D
:10322000FF3B59463B681868FDF7BAF9042100EAEC
:103230000A00FDF7C1F90246D7F8C4102846FEF788
:103240001FFC01244B4621E002EBC2036A46A2EBBD
:10325000C3139D46C7F8C4D0C6E73B681B681878FF
:1032600004210AEA4000FDF7A7F90246D7F8C41086
:103270002846FEF705FC012440E0ABF104024FF0C4
:103280001F0A0423BBF1030F36D09346A6422BD965
:1032900004F1804909F1FF393A6802EB890904EB2E
:1032A000C408D7F8C42002EBC81801337B607A68E1
:1032B000594659F8040FFDF773F9042100EA0A0092
:1032C000FDF77AF90246414607F10800FEF7D8FB00
:1032D000002307F1080229462846FFF7CDFD0134F7
:1032E00008F59068A642E2D1042429462846FEF754
:1032F00067FD013CF9D1C0E74FF01F0AA64228D96B
:1033000004F1804909F1FF393B6803EB890904EBBB
:10331000C408D7F8C43003EBC8184FF0040B59F8B1
:10332000043F187859460AEA4000FDF745F902467D
:10333000414607F10800FEF7A3FB002307F108024E
:1033400029462846FFF798FD013408F59068A64203
:10335000E5D19C37BD46BDE8F08F2DE9F043ADF2D5
:10336000145D054617461E466846FFF773F906F0DA
:1033700003035C1CF61A36D02246711E3846FDF750
:103380000FF94FF0FF33A340042120EA0300FDF7BB
:1033900013F9024669462846FEF772FB4FF005090D
:1033A0004FF00408042429462846FEF709FD013C95
:1033B000F9D1341F27D04A46711F3846FDF7F0F87F
:1033C000414600F01F00FDF7F7F8024669460DF58B
:1033D0009060FEF755FB0DF5906229462846FEF7F2
:1033E000F3FF2646DEE738784FF0FF33A340DB4398
:1033F000042103EA4000FDF7DFF80246694628464B
:10340000FEF73EFB13E038784000042100F01E0078
:10341000FDF7D2F8024669460DF59060FEF730FBE5
:1034200000230DF5906229462846FFF725FD0DF291
:10343000145DBDE8F0832DE9F043ADF6941D05461B
:1034400017469846A1F1040E6C4624ABA4465EF8DC
:10345000042F4CF8042B9C45F9D124A8FEF7B0FCAE
:1034600048AE04F57C792246903421463046FEF77A
:10347000ABFF214606F19000FEF7A2FC06F5907620
:10348000A145F0D1354BA3FB082323F0030606EB3F
:103490009306A8EB0606741CB8EB060636D0224647
:1034A000711E3846FDF77CF84FF0FF33A34005212D
:1034B00020EA0300FDF780F8024669462846FEF739
:1034C0000CFB4FF006094FF0050805242946284655
:1034D000FEF776FC013CF9D1741F27D04A46B11F94
:1034E0003846FDF75DF8414600F03F00FDF764F80F
:1034F000024669460DF51060FEF7EFFA0DF5106211
:1035000029462846FEF760FF2646DEE738784FF06A
:10351000FF33A340DB43052103EA4000FDF74CF8ED
:10352000024669462846FEF7D8FA13E0387840008C
:10353000052100F03E00FDF73FF8024669460DF513
:103540001060FEF7CAFA00230DF5106229462846DE
:10355000FFF792FC0DF6941DBDE8F083CDCCCCCCEA
:1035600070B5054616464C1E39B129462846FEF769
:1035700027FC013CB4F1FF3FF7D100233246294636
:103580002846FFF779FC70BD10B5ADF5906D044687
:103590000146FCA8FDF7A3FAFCA9D8A8FDF79FFAFD
:1035A000FCA90846FEF70CFC00232246D8A9B4A8C3
:1035B000FFF762FC0121B4A8FEF752FA0023FCAA2F
:1035C000B4A90846FFF758FCB4A948A8FEF7F8FBD1
:1035D0000023B4AA48A96846FFF74EFC002348AA76
:1035E000694624A8FFF748FC002348AA24A91046EE
:1035F000FFF742FC24A990A8FEF7E2FB0023B4AA3F
:1036000090A96CA8FFF738FC24AA032190A8FFF723
:10361000A7FF48A9FCA8FEF7D3FB6CAA0521FCA8CC
:10362000FFF79EFF6A460321FCA8FFF799FFB4AAA3
:103630000321FCA8FFF794FF6A460521FCA8FFF7C9
:103640008FFF90AA1221FCA8FFF78AFF90AA0821F9
:10365000FCA8FFF785FF48AA0321FCA8FFF780FF1D
:1036600024AA0721FCA8FFF77BFF6CAA0521FCA870
:10367000FFF776FF90AA2921FCA8FFF771FF90AA17
:103680000821FCA8FFF76CFF90AA0821FCA8FFF70F
:1036900067FF90AA0821FCA8FFF762FF0121D8A8C4
:1036A000FEF7DEF90023D8AAFCA90846FFF7E4FBE1
:1036B0000DF24C430DF27C41002053F8042F1043CF
:1036C0008B42FAD1431E23EA0000C00F0DF5906D26
:1036D00010BD2DE9F04F83B000AF83467B60D7F873
:1036E00030807E6B4FEA860909F1070323F0070358
:1036F000ADEB030D6D46ADEB030D6C4682EAE27A4D
:10370000AAEBE27A3346D2172846FDF784F833460F
:10371000524629462846FDF798F888EAE87AAAEB47
:10372000E87A33464FEAE87279682046FDF773F885
:103730003346524621462046FDF787F8B6B1291F89
:10374000043CABF10400A9F104094D440022944665
:1037500051F8043F54F8046F9B194CEB0C069B186E
:1037600040F8043F46F10002A942F1D10C37BD46B2
:10377000BDE8F08F2DE9F04F9FB002AFB8607B60DD
:10378000D7F898309B00073323F00703ADEB030D08
:103790000DF10808ADEB030D02ABFB63D7F89830D1
:1037A0005B003B63D7F89830DB003B646B46D7F88F
:1037B0009800A3EBC0039D4602ABBB636B46A3EB33
:1037C000C0039D4602AB7B636B46A3EBC0039D46E3
:1037D00002ABFB6430F04044FC6215D00B1FA8F133
:1037E0000401A00003EB840553F8044F41F8044F93
:1037F000AB42F9D1131FFA6B043A184453F8041F73
:1038000042F8041F8342F9D13B6C9C08032B07D973
:10381000BA6B0023194642F8041B01339C42FAD8C4
:10382000BA6B012313603B6C032B07D97A6B00231F
:10383000194642F8041B0133A342FAD37B6BD7F835
:1038400098309B01023B1A46FB60BD4BA3FB022351
:103850001B09BB61D7F898305A1E08EB8203BB6284
:10386000D7F8983003F18043023B08EB830179627B
:10387000F96B01EB82023A620A4601EB8303FB61BA
:10388000D7F89830023B08EB8301796102EB8303A0
:103890003B61FB6CFA6A03EB8205043D00237B6409
:1038A00008F10406BB6A19687B6AD3F800C0C7F840
:1038B00048C03B6A1A68FB691868D7F89830032B30
:1038C00029D0D7F810A0D7F81490634641EA020C2B
:1038D0000CF1FF3E2EEA0C0C81EA030E0EEAEC7EA0
:1038E00081EA0E0182EA000E0EEAEC7E82EA0E0206
:1038F00059F804ED83EA0E0E0EEAEC7E83EA0E031D
:103900005AF804ED80EA0E0E0EEAEC7C80EA0C0018
:10391000B145DBD1BB6441EA020A0AF1FF3C2CEA63
:103920000A0C4FEA1A4ECEF100094FEAE97909F084
:10393000100BBCF1000FA8BF0BF1010B8AEA0E0EB1
:103940000EEA090989EA0A0C4FEA1C2ECEF1000999
:103950004FEAE97909F0080ADA448CEA0E0E0EEA19
:1039600009098CEA09094FEA191ECEF1000B4FEA4A
:10397000EB7B0BF0040CE24489EA0E0E0EEA0B0E10
:1039800089EA0E0C4FEA9C0ECEF100094FEAE97964
:1039900009F0020BDA448CEA0E0E0EEA090E8CEAEC
:1039A0000E0E0AEB5E0ACAF1200ED8F80030BB6694
:1039B000CAF11F0929EA0E096FEA09094FEAD97904
:1039C000C9F100090EF01F0E0AF01F0ABB6C09EACC
:1039D000030323FA0AF301FA0EF11943F966D7F843
:1039E0003CB0DBF800303B6609EA000020FA0AFA36
:1039F00002FA0EF24AEA02027A661E2307F1600218
:103A000007F1680107F15000FCF79CFED7F89830E9
:103A1000019307F1540300935B4607F150024146BE
:103A2000D7F84C904846FDF7C0FCD7F89830019382
:103A300007F15C0300935B4607F158024146584684
:103A4000FDF7B3FCFB6A4BB1A9F10403A8F1040232
:103A500053F8041F42F8041FAB42F9D1D7F830B035
:103A6000CDF804B07B6D0093D7F834904B463A6D97
:103A7000D7F838A05146F86CFFF72BFECDF804B00C
:103A8000FB6D00934B46BA6D51464846FFF721FE49
:103A90003B6C032B0BD9FB6C191FAAF1040200230A
:103AA00051F8040F42F8040F01339C42F8D87B6CA4
:103AB00001337B64BA699342FFF4F4AE204BF9689A
:103AC000A3FB012323F00F02A2EB1313A1EB43038B
:103AD000FA6B414607F15000FCF734FE3B6B019353
:103AE000FB6D00937B6BBA6DB96BBC682046FFF72A
:103AF000F0FD2246386C231853F8044CE417D7F82D
:103B00009830CBB103F18041013902EB81017B6830
:103B10001E1FA2F1040C84440022154656F8043FEF
:103B2000234051F8040F801845EB05021B180B6069
:103B300042F100026145F1D17437BD46BDE8F08F16
:103B40008988888808B54B1E23EA0101C943C90F3B
:103B5000FDF786FF08BD30B40A1FA0F1040C01F187
:103B60005C04134653F8045F4CF8045FA342F9D198
:103B700013464FF0000C53F8045F4CEA050CA342C7
:103B8000F9D10CF1FF3323EA0C0C4FEAEC7C094C21
:103B90005C3001F12C0554F8041B52F8043F4B40F3
:103BA00003EA0C034B4040F8043FAA42F3D130BC77
:103BB000704700BF985A010008B5FDF7A3FE08BD85
:103BC0002DE9F043A7B0054600F1600700F15C0362
:103BD00000F18C024FF0000C53F8044F4CEA040C37
:103BE0009342F9D10CF1FF3626EA0C0C4FEADC7651
:103BF000324C4FF00C08CDF80480DFF8C490CDF8BB
:103C0000009023463A4639461AA8FCF78FFECDF8B5
:103C10000480CDF8009023463A461AA90846FCF7DE
:103C200085FECDF80480CDF8009023461AAA1146EF
:103C30001046FCF77BFECDF80080234602221AA92D
:103C40000846FDF743F9CDF80480CDF800902346EF
:103C50002A46294602A8FCF769FECDF80480CDF873
:103C6000009023462A4602A90846FCF75FFECDF8DD
:103C7000008023461AAA02A90846FCF7FFFF05F1B7
:103C80003001CDF80480CDF8009023460A460EA8F6
:103C9000FCF74CFE02AA0EA90D46002052F8043B88
:103CA00051F8044B63401843AA42F7D1431E23EA5C
:103CB000000046EAD07027B0BDE8F083085A010042
:103CC000FDFFFCFF10B50B1F01F15C0C002253F847
:103CD000044F22436345FAD1531E93430AD5431E32
:103CE00000F15F01002203F8012F8B42FBD140233A
:103CF000037010BDFDF786FCFBE738B505460B1FCA
:103D000001F15C0C002253F8044F22436345FAD1C1
:103D1000531E93430AD56B1E05F12F01002203F8B1
:103D2000012F8B42FBD1C0232B7038BD2846FDF7F5
:103D300034FC030103F020032A78134363F07F036C
:103D40002B70F2E708B5FDF7B4FF08BD00F15C0386
:103D500000F18C01002053F8042F10438B42FAD15C
:103D6000431E23EA0000C00F70470148704700BFA0
:103D7000F8660100031F00F15C01002053F8042FD6
:103D800010438B42FAD1431E23EA0000C00F704754
:103D900000487047F866010008B5FFF7F5FB08BD5D
:103DA00010B5A4B0021F6B460DF1600C114651F81E
:103DB000044F43F8044B6345F9D100F15C0C134602
:103DC000002153F8044F21436345FAD101F1FF3E2E
:103DD0002EEA01014FEAE17E0A4C0DF15C0C2C3019
:103DE00054F8041B52F8043F4B4003EA0E034B40C7
:103DF0004CF8043F8242F3D16846FFF7C5FB24B07C
:103E000010BD00BF985A010008B54B1E23EA0101FE
:103E1000C943C90FFDF790FE08BD10B5A1F1040C10
:103E2000021FBC31634653F8044F42F8044F8B42E3
:103E3000F9D16346002253F8044F22438B42FAD152
:103E4000541E24EA0202D417084B03F19002BC303E
:103E500003F1F00E52F8041B5CF8043F4B40234082
:103E60004B4040F8043F7245F4D110BD085A0100A0
:103E700010B50B1F01F1BC0C002253F8044F224374
:103E80006345FAD1531E93430AD5431E00F1BF0187
:103E9000002203F8012F8B42FBD14023037010BD99
:103EA000FDF780FCFBE738B505460B1F01F1BC0CA4
:103EB000002253F8044F22436345FAD1531E934323
:103EC0000AD56B1E05F15F01002203F8012F8B421A
:103ED000FBD1C0232B7038BD2846FDF7DBFB030167
:103EE00003F020032A78134363F07F032B70F2E77B
:103EF00000F1BC0300F58E71002053F8042F10432D
:103F00008B42FAD1431E23EA0000C00F70470148DC
:103F1000704700BF88670100031F00F1BC0100204B
:103F200053F8042F10438B42FAD1431E23EA0000BA
:103F3000C00F7047004870478867010008B5FDF75B
:103F4000B1FE08BD10B4021F043900F50F7C00203B
:103F500052F8043F51F8044F634018436245F7D1CB
:103F6000431E23EA0000C00F10BC704710B5A0F13B
:103F7000040C124B03F1900203F1F00E002152F8F1
:103F8000043B5CF8044F634019437245F7D101F1DB
:103F9000FF3C2CEA01014FEAD17C00F15C0300F503
:103FA0000F74002253F8041F0A43A342FAD1501E93
:103FB00020EA02000CEAD07010BD00BF085A0100D0
:103FC00000487047985A01004FF447607047002935
:103FD00014BF4021002101600021416000F54761CC
:103FE000914208BF2A228260C360704703468068FE
:103FF0002A2808BF03F54760704710B582B008242F
:104000000194049C0094FCF791FC02B010BD10B523
:1040100082B008240194009313460A46FCF786FCFC
:1040200002B010BD10B582B00C240194049C009421
:10403000FCF77CFC02B010BD10B582B00C240194DA
:10404000009313460A46FCF771FC02B010BD10B590
:1040500082B008240094FCF711FE02B010BD10B528
:1040600082B00C240094FCF709FE02B010BD10B51C
:1040700082B008240094FCF7ABFA02B010BD10B572
:1040800082B00C240094FCF7A3FA02B010BD08B56E
:104090000823FCF77BFE08BD08B50C23FCF776FE71
:1040A00008BD10B582B008240094FCF70FFF02B0E1
:1040B00010BD10B582B00C240094FCF707FF02B0CD
:1040C00010BD10B582B008240094FDF76BFC02B05F
:1040D00010BD10B582B00C240094FDF763FC02B053
:1040E00010BD08B50822FCF7ACFA08BD10B582B0C7
:1040F00008240094FCF74CFF02B010BD10B582B04C
:104100000C240094FCF744FF02B010BD10B582B03F
:1041100008240094FCF7BBFF02B010BD10B582B0BC
:104120000C240094FCF7B3FF02B010BD10B582B0B0
:1041300008240094FCF7B4FA02B010BD10B582B0A8
:104140000C240094FCF7ACFA02B010BD00B583B0AB
:1041500013460C2200920122FCF7A2FA03B05DF88C
:1041600004FB10B582B008240094FEF7FFFB02B0F8
:1041700010BD08B50C22FDF720F808BD30B58FB092
:104180000C4613460C2500950A46014602A8FCF78A
:10419000FFFE2A46214602A8FDF70FF80FB030BDFA
:1041A00070B505460E460C22FDF707F804460C22B2
:1041B000314605F13000FDF700F805F12C0305F15B
:1041C0005C0C002253F8041F0A436345FAD102F144
:1041D000FF3E2EEA02024FEAD27E04EAE2720EF1BC
:1041E000FF3E0EEA000E4EEA020E2B1F05F12C0CCC
:1041F000002253F8041F0A436345FAD1531E23EAF1
:104200000202D30F00EAE272581E0440144304F085
:1042100001040EF00200204370BDF0B59BB00546CE
:104220000C4617460C26009613460A46014602A87D
:10423000FCF7AEFE00963B46224605F130010EA883
:10424000FCF7A6FE3246214602A8FCF7B6FF05465B
:10425000324621460EA8FCF7B0FF0DAA02AB0DF1C5
:10426000640C002152F8044F21436245FAD14C1EE0
:1042700024EA0101CC0F05EAE171013C04400C4342
:1042800003F1300C002253F8041B0A436345FAD1B2
:10429000531E23EA0202D30F00EAE270013B2B40D7
:1042A000034303F0010304F0020018431BB0F0BD08
:1042B0002DE9F04FA7B00546884617461C46DDF8A5
:1042C000C09001F1300A0C26009652461AA8FCF75D
:1042D000D5FC07F1300B009623465A4639460EA806
:1042E000FCF7CCFC0196CDF8009023461AAA0EA943
:1042F0000846FCF71BFB0196CDF8009023463A4692
:1043000041461AA8FCF712FB0196CDF8009023460F
:104310005A46514602A8FCF709FB0096234602AA1A
:104320001AA92846FCF754F93035009623461AAAF4
:104330000EA92846FCF74CF90096234602AA294606
:104340002846FCF745F927B0BDE8F08FF0B583B0FB
:1043500004460B1F021F01F58E7C53F8041F42F820
:10436000041F6345F9D104F13000164D0C26009668
:104370002B4601220146FDF715FB134F00972B46F4
:1043800005F56A6221462046FFF792FF04F190008E
:1043900000962B4601220146FDF704FB04F1600064
:1043A00000972B4605F570620146FFF781FF04F187
:1043B000F00000962B4601220146FDF7F3FA03B008
:1043C000F0BD00BF085A0100FDFFFCFF03B32DE95B
:1043D000F04383B05F1E03EB43035C01603C0619AE
:1043E0000D191444DFF82C90DFF82C80CDF80080F4
:1043F0004B46224629463046FFF75AFF013F603EB2
:10440000603D603CB7F1FF3FF0D103B0BDE8F08301
:10441000704700BF085A0100FDFFFCFF2DE9F04F77
:1044200083B004460D4616460B1F021F01F12C00F7
:1044300053F8041F42F8041F8342F9D106F0010724
:104440000C230093314B3A4605F1300104F1300062
:10445000FDF7A8FA04F1600805F15C0304F15C02C1
:1044600005F18C0053F8041F42F8041F8342F9D170
:104470000C230093254B3A4605F1900104F190007E
:10448000FDF790FA05F1BC0304F1BC0C05F1EC0159
:1044900053F8042F4CF8042F8B42F9D104F1F00AA1
:1044A000DFF868904FF00C0BCDF800B04B463A4661
:1044B00005F1F0015046FDF775FA013E09F5766207
:1044C000770006EB4601124D00954B4602EB411278
:1044D00041464046FFF7ECFE04F1C00037440D4E64
:1044E00006EB0716CDF804B000954B463246014660
:1044F000FCF71CFACDF804B000954B463246514605
:104500005046FCF713FA03B0BDE8F08F085A0100DB
:10451000FDFFFCFF886A01002DE9F04182B00546ED
:104520000E461446FFF77AFF05F59077224606F50A
:1045300090713846FFF772FF013C04EB4404114BC5
:1045400003EB4414104EDFF84480CDF8008033466E
:10455000224639463846FFF7ABFE05F5C070CDF868
:104560000080334622460146FFF7A2FE05F5F070B3
:10457000CDF80080334622460146FFF799FE02B08F
:10458000BDE8F081186B0100085A0100FDFFFCFF37
:1045900008B5FFF7C1FF08BD93B32DE9F04782B01E
:1045A000044689465E1E03EB430302EB4312A2F16D
:1045B0006005144FDFF850A04FF00C08CDF800A0B4
:1045C0003B464A4621462046FFF772FECDF8008062
:1045D0003B462A4621462046FCF750FB04F13000BA
:1045E000CDF800803B4605F130020146FCF746FB62
:1045F000013E603DB6F1FF3FE0D102B0BDE8F0877B
:10460000704700BF085A0100FDFFFCFF2DE9F04F85
:10461000ADF5277D83460F461646AD4CDFF8B4A2B4
:10462000CDF800A023468EA8FFF742FE07F16009EF
:1046300006F16008CDF800A023464246494676A818
:10464000FFF736FE07F1C00106F1C0031A46CDF8A8
:1046500000A02346049203915EA8FFF729FE0C25D3
:1046600000952346039A49462EA8FCF707FB07F15D
:104670009001089107F1F000099000952346024649
:104680003AA8FCF7FBFA00952346049A414616A87F
:10469000FCF7F4FA06F19001069106F1F0031A46D0
:1046A00007930095234622A8FCF7E8FACDF800A06E
:1046B000234616AA2EA946A8FFF7FAFD0095234621
:1046C00076AA46A90846FBF783FF0095234682AAEF
:1046D00052A90846FBF77CFF009523465EAA46A92F
:1046E0000846FBF775FF009523466AAA52A90846BB
:1046F000FBF76EFF0095234652AA46A90AA8FCF7CD
:10470000BDFA0095234652AA46A90846FBF760FF6A
:104710000AAB51AA16A853F8041B42F8041F98428A
:10472000F9D16B4C0C25009523464A4639462EA8F4
:10473000FCF7A4FA07F130031946059300952346C8
:10474000089A3AA8FCF79AFA009523464246314661
:1047500016A8FCF793FA06F1300A00952346069A4C
:10476000514622A8FCF78AFA0BF16008594B0093D6
:10477000234616AA2EA94046FFF79AFD0095234628
:104780008EAA41464046FBF723FF0BF190090095A6
:1047900023469AAA49464846FBF71AFF0095234646
:1047A00076AA41464046FBF713FF0095234682AAAE
:1047B00049464846FBF70CFF009523466AAA5EA9C6
:1047C0000AA8FCF75BFA009523466AAA5EA92EA800
:1047D000FBF7FEFE0AAB39AA16A853F8041B42F8F1
:1047E000041F9842F9D13A4C0C25009523462EAA75
:1047F00041464046FCF742FA009523463AAA49460C
:104800004846FCF73BFA00952346039A39462EA802
:10481000FCF734FA00952346099A05993AA8FCF763
:104820002DFA00952346049A314616A8FCF726FA7D
:1048300000952346079A514622A8FCF71FFA0BF170
:10484000C006244B0093234616AA2EA93046FFF734
:104850002FFD009523468EAA31463046FBF7B8FE61
:104860000BF1F007009523469AAA39463846FBF724
:10487000AFFE009523465EAA31463046FBF7A8FE00
:10488000009523466AAA39463846FBF7A1FE0095F3
:10489000234676AA31463046FCF7F0F900952346C8
:1048A00082AA39463846FCF7E9F9009523468EAAD4
:1048B00046A95846FCF7E2F9009523469AAA52A960
:1048C0000BF13000FCF7DAF90DF5277DBDE8F08F2C
:1048D000085A0100FDFFFCFF2DE9F041ADF5667DB2
:1048E00004460D4616469EA8FFF790FE05F5907803
:1048F00006F590773A46414656A8FFF787FE4246AE
:1049000029460EA8FDF748FB04F590753A46314656
:104910002846FDF741FB0EAA29462846FFF776FEFA
:104920009EAA29462846FDF7EDFA56AA29462846AA
:10493000FDF7E8FA264D0C2600962B4692AA86A98A
:1049400002A8FCF79BF900962B4692AA86A9084676
:10495000FBF73EFE02AB91AA0EA853F8041B42F8E7
:10496000041F8342F9D11A4D0C2600962B4686AAC5
:104970009EA92046FCF782F900962B4692AAAAA986
:1049800004F13000FCF77AF900962B4656AAB6A936
:1049900004F16000FCF772F900962B4662AAC2A9E6
:1049A00004F19000FCF76AF900962B466EAACEA996
:1049B00004F1C000FCF762F900962B467AAADAA946
:1049C00004F1F000FCF75AF90DF5667DBDE8F081C1
:1049D000085A010008B5FFF77FFF08BD2DE9F04731
:1049E000ADF51E7D06460D4601F590773A4656A870
:1049F000FDF7D2FA05F5F07405F50478DFF8789143
:104A00004FF00C0ACDF800A04B464246214602A8C2
:104A1000FCF734F9CDF800A04B46424621463EA8AB
:104A2000FBF7D6FD02AB49AC0EA8224653F8041B97
:104A300042F8041F8342F9D1DFF83C814FF00C09A2
:104A4000CDF8009043463EAA29460EA8FCF716F979
:104A5000CDF8009043464AAA05F130011AA8FCF7A8
:104A60000DF9CDF80090434605F5907205F160010F
:104A700026A8FCF703F9CDF80090434605F5A87287
:104A800005F1900132A8FCF7F9F8CDF80090434603
:104A900005F5C07205F1C0013EA8FCF7EFF8CDF8AE
:104AA0000090434605F5D87205F1F0014AA8FCF7DD
:104AB000E5F80EAA56A90846FFF7A8FD3A4629468A
:104AC0000EA8FFF7A3FD0EAA114606F59070FDF79C
:104AD00063FA0EAA56A93046FDF714FACDF80090F5
:104AE00043464AAA3EA902A8FCF7C8F8CDF80090B0
:104AF00043464AAA3EA90846FBF76AFD02AB0EA947
:104B000053F8042B44F8042F9942F9D11A4C0C2580
:104B1000009523463EAA31463046FBF759FD06F183
:104B20003000009523464AAA0146FBF751FD06F1E5
:104B30006000009523460EAA0146FBF749FD06F1E9
:104B40009000009523461AAA0146FBF741FD06F1A5
:104B5000C0000095234626AA0146FBF739FD06F161
:104B6000F0000095234632AA0146FBF731FD0DF512
:104B70001E7DBDE8F08700BF085A010008B5FFF7A9
:104B80002DFF08BD2DE9F04FADF5077D04460E461B
:104B90001546DFF884A1DFF884B1CDF800B05346A4
:104BA0006EA8FFF785FB06F1600905F16007CDF8F7
:104BB00000B053463A46494656A8FFF779FB06F13E
:104BC000C008CDF800B053463A4641463EA8FFF72C
:104BD0006FFB4FF00C0BCDF800B053464AAA3EA92C
:104BE00002A8FCF74BF8CDF800B053464AAA3EA9FC
:104BF0000846FBF7EDFC02AB0DF5927C0EA953F8CD
:104C0000042B4CF8042F9942F9D1DFF80CA14FF096
:104C10000C0BCDF800B053464A46314626A8FCF7A7
:104C20002DF8CDF800B0534606F1900206F13001A0
:104C300032A8FCF723F8CDF800B053463A4629468F
:104C40000EA8FCF71BF8CDF800B0534605F1900212
:104C500005F130011AA8FCF711F804F16006DFF83D
:104C6000BC90CDF8009053460EAA26A93046FFF717
:104C70001FFBCDF800B053466EAA31463046FBF715
:104C8000A7FC04F19007CDF800B053467AAA394644
:104C90003846FBF79DFCCDF800B0534656AA314686
:104CA0003046FBF795FCCDF800B0534662AA394672
:104CB0003846FBF78DFC04F1C006CDF80090534652
:104CC0002A4641463046FFF7F3FACDF800B0534686
:104CD00056AA31463046FBF7D1FF04F1F000CDF87B
:104CE00000B0534662AA0146FBF7C8FFCDF800B0FA
:104CF00053466EAA3EA92046FBF7C0FFCDF800B090
:104D000053467AAA4AA904F13000FBF7B7FF0DF524
:104D1000077DBDE8F08F00BF085A0100FDFFFCFFD2
:104D20002DE9F047ADF57E7D04460E461546B6A842
:104D3000FFF728FF06F5907805F1C007DFF87891B6
:104D4000DFF878A1CDF800A04B463A4606F5F071A1
:104D50000EA8FFF7ADFACDF800A04B463A4606F58F
:104D6000C0719EA8FFF7A4FACDF800A04B463A46C2
:104D7000414686A8FFF79CFA4FF00C0ACDF800A038
:104D80004B461AAA0EA902A8FBF778FFCDF800A09F
:104D90004B461AAA0EA96EA8FBF71AFC02AB79AA19
:104DA0000EA853F8041B42F8041F8342F9D1A5F161
:104DB000040C26AB3EA95CF8042F43F8042B8B426D
:104DC000F9D1DFF8F4904FF00C0ACDF800A04B4673
:104DD0003A4605F160013EA8FBF750FFCDF800A070
:104DE0004B4605F1F00205F190014AA8FBF746FF9A
:104DF00004F59075424631462846FDF7CDF826AABF
:104E000029462846FFF7BEFEB6AA29462846FDF7E2
:104E100079F86EAA29462846FDF774F8CDF800A067
:104E20004B46AAAA9EA90EA8FBF728FFCDF800A022
:104E30004B46AAAA9EA90846FBF7CAFB0EABA9AA35
:104E40001AA853F8041B42F8041F8342F9D11A4DE3
:104E50000C2600962B469EAAB6A92046FBF70EFF0D
:104E600000962B46AAAAC2A904F13000FBF706FF60
:104E700000962B466EAACEA904F16000FBF7FEFE59
:104E800000962B467AAADAA904F19000FBF7F6FE09
:104E900000962B4686AAE6A904F1C000FBF7EEFEB9
:104EA00000962B4692AAF2A904F1F000FBF7E6FE69
:104EB0000DF57E7DBDE8F087085A0100FDFFFCFF7F
:104EC00008B5FFF72DFF08BD2DE9F041C8B0044635
:104ED0001746984601F590756846FBF781FE6A46CD
:104EE00021462046FFF71CFF08F1FF36B8F1000FFE
:104EF00013D021462046FFF771FD29463A4605F5B5
:104F000090756846FBF76CFE6A4621462046FFF71F
:104F100007FF013EB6F1FF3FEBD148B0BDE8F0819D
:104F20002DE9F041E2B005460E461446324F4FF0EF
:104F30000C08CDF800803B4611464AA8FBF79EFEC0
:104F4000CDF800803B4601224AA90846FCF72AFD1D
:104F500004F13001CDF800803B460A4656A8FBF725
:104F60008DFE4AAA314602A8FBF73AFE2B4605F50C
:104F70001071002243F8042B8B42FBD101AB2A1F96
:104F800031A853F8041F42F8041F8342F9D131AB12
:104F900005F5BE7249A953F8044F42F8044F8B42FD
:104FA000F9D102234AAA06F590712846FFF78CFF33
:104FB00003234AAA06F590612846FFF785FF0923D7
:104FC0004AAA06F510612846FFF77EFF20234AAA69
:104FD00006F5A2512846FFF777FF10234AAA06F5E7
:104FE000655120312846FFF76FFF2846FCF75AFE2F
:104FF00062B0BDE8F08100BF085A010008B5FFF7B4
:105000008FFF08BD2DE9F04182B005461E46089F7E
:1050100082B1541E4FF00C0800E02946CDF8048000
:10502000009733460A462846FCF709F9013CB4F1DB
:10503000FF3FF2D10C23019300973346099A29468A
:105040002846FBF773FC02B0BDE8F0812DE9F04F74
:10505000ADF5457D03900B1F0FAA01F12C0053F80D
:10506000041F42F8041F8342F9D1DFF8E4B20C2791
:105070000197B84E00965B4610AA114604A8FBF7AC
:1050800055FC70AD019700965B4610AA04A928460E
:10509000FBF74CFC40AC019700965B4604AA114616
:1050A0002046FBF743FC019700965B4604AA29467D
:1050B0001CA8FBF73BFC019700965B462A4621465D
:1050C00058A8FBF733FC019700965B4622461CA9C3
:1050D0007CA8FBF72BFC019700965B46224658A95B
:1050E000A0A8FBF723FC0DF1D008019700965B46C2
:1050F00022467CA94046FBF719FC0DF5C8790197BB
:1051000000965B462246A0A94846FBF70FFC019794
:1051100000965B4622464146B8A8FBF707FC01977C
:1051200000965B462246494688A8FBF7FFFB01979D
:1051300000965B462246B8A928A8FBF7F7FB019723
:1051400000965B46224688A994A8FBF7EFFB0197DF
:1051500000965B464246414604A8FBF7E7FB0197F1
:1051600000965B46224694A9ACA8FBF7DFFB0DF541
:10517000987A019700965B462A4604A95046FBF7A9
:10518000D5FB019700965B461CAA04A92046FBF7B5
:10519000CDFBB8AB019300965B463A4604A908469E
:1051A000FFF730FFCDF8049000965B46072204A974
:1051B0000846FFF727FF1CAB019300965B460422CD
:1051C00004A90846FFF71EFF58AB019300965B4603
:1051D000062204A90846FFF715FF94AB0193009639
:1051E0005B46072204A90846FFF70CFF01940096CE
:1051F0005B46052204A90846FFF704FF01950096C7
:105200005B46022204A90846FFF7FCFECDF80480A5
:1052100000965B46062204A90846FFF7F3FECDF888
:10522000048000965B46062204A90846FFF7EAFEC2
:105230007CAB019300965B46062204A90846FFF763
:10524000E1FE019500965B46032204A90846FFF79C
:10525000D9FECDF8048000965B46072204A90846D3
:10526000FFF7D0FECDF8048000965B46042204A927
:105270000846FFF7C7FECDF8049000965B4606226D
:1052800004A90846FFF7BEFEACAB019300965B464F
:10529000062204A90846FFF7B5FE10AB019300965D
:1052A0005B46032204A90846FFF7ACFECDF8048054
:1052B00000965B46082204A90846FFF7A3FE94ABBC
:1052C000019300965B46072204A90846FFF79AFE61
:1052D000A0AB019300965B46052204A90846FFF7A0
:1052E00091FECDF8048000965B46062204A908468C
:1052F000FFF788FECDF804A000965B46062204A9BD
:105300000846FFF77FFE7CAB019300965B460422C4
:1053100004A90846FFF776FECDF804A000965B4688
:10532000082204A90846FFF76DFECDF80480009618
:105330005B46042204A90846FFF764FE94AB019380
:1053400000965B46072204A90846FFF75BFE03E0D0
:10535000085A0100FDFFFCFF88AB019300965B46F5
:10536000092204A90846FFF74DFE019500965B4609
:10537000022204A90846FFF745FE58AB01930096A8
:105380005B46052204A90846FFF73CFE1CAB0193CF
:1053900000965B46072204A90846FFF733FE7CAB64
:1053A000019300965B46072204A90846FFF72AFEF0
:1053B00094AB019300965B46062204A90846FFF7CA
:1053C00021FECDF804A000965B46052204A90846FC
:1053D000FFF718FE88AB019300965B46052204A9EF
:1053E0000846FFF70FFE88AB019300965B46052247
:1053F00004A90846FFF706FECDF8048000965B4638
:10540000082204A90846FFF7FDFD28AB019300968A
:105410005B46072204A90846FFF7F4FDCDF8049087
:1054200000965B46092204A90846FFF7EBFDCDF87C
:10543000048000965B46052204A90846FFF7E2FDBA
:10544000019500965B46032204A90846FFF7DAFDA2
:10545000CDF8049000965B46082204A90846FFF7A1
:10546000D1FD019500965B46032204A90846FFF78B
:10547000C9FD7CAB019300965B46072204A9084650
:10548000FFF7C0FDCDF8049000965B46092204A901
:105490000846FFF7B7FD28AB019300965B4606224E
:1054A00004A90846FFF7AEFD019400965B4606226C
:1054B00004A90846FFF7A6FD019400965B46052265
:1054C00004A90846FFF79EFD019400965B4605225D
:1054D00004A90846FFF796FDCDF8048000965B46C8
:1054E000042204A90846FFF78DFD019500965B464E
:1054F000032204A90846FFF785FD28AB0193009617
:105500005B46082204A90846FFF77CFD019400963B
:105510005B46072204A90846FFF774FD0194009634
:105520005B46052204A90846FFF76CFD019400962E
:105530005B46052204A90846FFF764FDCDF80490F8
:1055400000965B46042204A90846FFF75BFD58ABB2
:10555000019300965B46042204A90846FFF752FD1A
:10556000019400965B46072204A90846FFF74AFD0E
:10557000CDF804A000965B46052204A90846FFF773
:1055800041FD40AE01962C4D00955B46052204A9D5
:105590000846FFF737FD019600955B46052204A9F2
:1055A0000846FFF72FFD019600955B46052204A9EA
:1055B0000846FFF727FD019600955B46052204A9E2
:1055C0000846FFF71FFD019600955B46052204A9DA
:1055D0000846FFF717FD019600955B46052204A9D2
:1055E0000846FFF70FFDCDF8048000955B460422C6
:1055F00004A90846FFF706FD28AB019300955B461A
:10560000062204A90846FFF7FDFC1CAB0193009598
:105610005B46042204A90846FFF7F4FC10AB019393
:1056200000955B46032204A90398FFF7EBFC0DF5F8
:10563000457DBDE8F08F00BFFDFFFCFF2DE9F04385
:105640009BB006460F46DFF89490254D0C2400943D
:1056500009F59C732A4602A8FEF78CF8DFF88480CF
:10566000009443462A4602A90846FBF710FD019420
:10567000CDF800802B4609F5B47202A90846FBF765
:1056800055F90194CDF800802B463A4602A90EA8A0
:10569000FBF74CF90DAC05F1900E05F1C0010022AD
:1056A0005EF8043B54F8045F83EA050C42EA0C02FE
:1056B0008E45F5D1531E93430BD502AA331F2C36CA
:1056C00052F8041B43F8041FB342F9D11BB0BDE8E4
:1056D000F08339463046FFF7B9FCF7E7006B01006D
:1056E000085A0100FDFFFCFF2DE9F04F9BB0074673
:1056F0008946603109F15C0409F18C0523464FF0BD
:10570000000853F8042F48EA0208AB42F9D10EA86A
:10571000FFF794FF234E4FF00C0BCDF804B0DFF8E9
:1057200088A0CDF800A033460EAA114602A8FBF7C8
:10573000FDF8CDF804B0CDF800A0334602AA4946E2
:105740003846FBF7F3F8CDF804B0CDF800A03346A7
:105750000EAA02A90846FBF7E9F8CDF804B0CDF887
:1057600000A0334602AA09F1300107F13000FBF72F
:10577000DDF808F1FF3323EA08084FEAE87806F677
:105780004C5307F15C0053F8041F54F8042F4A40AF
:1057900002EA08024A4040F8042FAC42F3D11BB0A1
:1057A000BDE8F08F085A0100FDFFFCFF08B5FFF7C8
:1057B0009BFF08BD70B5A4B0044601F15C020F4D1B
:1057C00001F18C0C002055F8043B52F8046F734033
:1057D00018436245F7D1431E83430AD50B1F201F90
:1057E0005C3153F8042F40F8042F8B42F9D124B0D8
:1057F00070BD6846FFF778FF6946EFE7985A0100E9
:1058000070B5A4B0064601F15C020E4C01F18C0E9D
:105810004FF0000C54F8043B52F8045F6B404CEA24
:10582000030C7245F6D10CF1FF3333EA0C0304D5B7
:105830003046FBF7E7FE24B070BD6846FFF754FF23
:105840006946F5E7985A010010B501F15C0301F1D2
:105850008C0C002253F8044F22436345FAD1531EA7
:1058600093430AD5431E00F15F01002203F8012F84
:105870008B42FBD14023037010BDFFF7C1FFFBE754
:1058800070B5A4B0054601F15C0C01F18C006346D3
:10589000002253F8044F22438342FAD1531E23EAD5
:1058A0000202D20F0BD06B1E05F12F01002203F86C
:1058B000012F8B42FBD1C0232B7024B070BD0E4C46
:1058C00054F8043B5CF8046F73401A438445F7D1E5
:1058D000531E93430BD52846FBF75FFE030103F0ED
:1058E00020032A78134363F07F032B70E5E76846B3
:1058F000FFF7FAFE6946EEE7985A01002DE9F043FA
:105900009BB004460F461F4D0C260196DFF87880A9
:10591000CDF800802B460A460EA8FBF707F807F1E2
:1059200030090196CDF800802B464A46494602A828
:10593000FAF7FCFF00962B4602AA0EA90846FBF7D1
:105940009DF90EA902A8FFF779FE0196CDF8008017
:105950002B4602AA39462046FAF7E8FF3034019672
:10596000CDF800802B4602AA49462046FAF7DEFF12
:1059700000962B46012221462046FCF713F81BB067
:10598000BDE8F083085A0100FDFFFCFF08B5FFF7F2
:10599000B5FF08BD08B5FFF7B1FF08BD08B5FFF7B3
:1059A0004DFE08BD08B5FFF749FE08BD2DE9F04FD3
:1059B000ADF5457D03900B1F9FAA01F12C0053F814
:1059C000041F42F8041F8342F9D1DFF8E4B20C2728
:1059D0000197B84E00965B46A0AA114604A8FAF7B4
:1059E000A5FF64AD019700965B46A0AA04A92846CE
:1059F000FAF79CFF34AC019700965B4604AA114667
:105A00002046FAF793FF019700965B4604AA2946C1
:105A100010A8FAF78BFF019700965B462A462146AD
:105A20004CA8FAF783FF019700965B46224610A91F
:105A300070A8FAF77BFF019700965B4622464CA9B7
:105A400094A8FAF773FF0DF1A008019700965B4642
:105A5000224670A94046FAF769FF0DF5B079019723
:105A600000965B46224694A94846FAF75FFF0197E5
:105A700000965B4622464146B8A8FAF757FF0197C1
:105A800000965B46224649467CA8FAF74FFF0197ED
:105A900000965B462246B8A91CA8FAF747FF019773
:105AA00000965B4622467CA988A8FAF73FFF01973B
:105AB00000965B464246414604A8FAF737FF019735
:105AC00000965B46224688A9ACA8FAF72FFF0DF591
:105AD000807A019700965B462A4604A95046FAF759
