:10C00000C0BF0220A12E010041B00100DD2E0100C1
:10C01000DD2E0100DD2E0100DD2E0100DD2E0100F0
:10C02000000000000000000000000000FD2D0100E5
:10C03000DD2E010000000000A12D010009B001006B
:10C04000612E0100612E0100612E0100612E0100B0
:10C05000612E0100612E0100612E0100612E0100A0
:10C06000612E0100612E0100612E0100612E010090
:10C07000612E0100612E0100612E0100612E010080
:10C08000612E0100612E0100612E0100612E010070
:10C09000612E0100612E0100612E0100612E010060
:10C0A000612E0100612E0100612E0100612E010050
:10C0B000612E0100612E0100612E0100612E010040
:10C0C000612E0100612E0100612E0100612E010030
:10C0D000612E0100612E0100612E0100612E010020
:10C0E000612E0100612E0100612E0100612E010010
:10C0F000612E0100612E0100612E0100612E010000
:10C10000612E0100612E0100612E0100612E0100EF
:10C11000612E0100612E0100612E0100612E0100DF
:10C12000612E0100612E0100612E0100612E0100CF
:10C13000612E0100612E0100612E0100612E0100BF
:10C14000612E01000000000000000000000000005F
:10C1500000000000000000000000000000000000DF
:10C1600000000000000000000000000000000000CF
:10C1700000000000000000000000000000000000BF
:10C1800000000000000000000000000000000000AF
:10C19000000000000000000000000000000000009F
:10C1A000000000000000000000000000000000008F
:10C1B000000000000000000000000000000000007F
:10C1C000000000000000000000000000000000006F
:10C1D000000000000000000000000000000000005F
:10C1E000000000000000000000000000000000004F
:10C1F000000000000000000000000000000000003F
:10C20000DEE61E284CBBCE8F025B00003C00000027
:10C21000FC3C01000100000000C0000000C0000064
:10C22000FFFF02910000000000000000000000007D
:0CC2300000000000000000000000000002
:04C23C00FFFFFFFF02
:10C240007BB972B90029BEBF00204FF0004106E063
:10C2500008BF00281CBF6FF000414FF0FF3000F016
:10C26000BBB9ADF1080C6DE904CE002909DB002B48
:10C270001ADB00F04DF8DDF804E0DDE9022304B03C
:10C280007047404261EB4101002B1BDB00F040F89E
:10C29000DDF804E0DDE9022304B0404261EB410136
:10C2A000524263EB43037047524263EB430300F097
:10C2B0002FF8DDF804E0DDE9022304B0404261EB31
:10C2C00041017047524263EB430300F021F8DDF86F
:10C2D00004E0DDE9022304B0524263EB43037047FC
:10C2E00053B94AB9002908BF00281CBF4FF0FF31DD
:10C2F0004FF0FF3000F070B9ADF1080C6DE904CEDD
:10C3000000F006F8DDF804E0DDE9022304B0704730
:10C310002DE9F047089E0D4604468A46002B7FD142
:10C320008A42174641D9B2FA82F24AB1C2F12001DB
:10C3300005FA02F39740944020FA01F141EA030A1A
:10C340004FEA17484FEA144C1FFA87F9BAFBF8FE78
:10C3500008FB1EA30EFB09F14CEA0343994206D9E0
:10C36000FB1802D2994200F224810EF1FF3E591AC5
:10C37000A3B2B1FBF8F008FB101100FB09F943EA86
:10C380000144A14505D93C1902D2A14500F20E8114
:10C390000138A4EB090440EA0E4000211EB1D4404C
:10C3A0000023C6E90043BDE8F08702B9FFDEB2FA18
:10C3B00082F2002A4FD1CB1B4FEA174E1FFA87F8A3
:10C3C0000121250CB3FBFEFC0EFB1C302B4608FBA9
:10C3D0000CF945EA0045A9450AD97D192CBF01236E
:10C3E0000023A94502D9002B00F0D9800CF1FF3CB5
:10C3F000A5EB0905A3B2B5FBFEF00EFB105508FB3B
:10C4000000F843EA0544A04505D93C1902D2A045ED
:10C4100000F2C9800138A4EB080440EA0C40BDE7F3
:10C420008B4208D9002E00F0B1800021C6E900053A
:10C430000846BDE8F087B3FA83F1002946D1AB4244
:10C44000C0F0A780824240F2A4800846002EAAD005
:10C45000C6E9004AA7E7C2F12000974001FA02F3BB
:10C460004FEA174EC14024FA00F51FFA87F89440AE
:10C470001D43B1FBFEF02B0C0EFB101100FB08FC62
:10C4800043EA01439C4509D9FB182CBF0121002137
:10C490009C4502D9002900F095800138A3EB0C03DC
:10C4A000ADB2B3FBFEF10EFB113301FB08FC45EA14
:10C4B0000345AC4505D97D1902D2AC4500F289800F
:10C4C0000139A5EB0C0341EA00417AE7C1F12004F0
:10C4D0008B4002FA01F705FA01FCE24020FA04F869
:10C4E000E54000FA01FE134348EA0C024FEA134804
:10C4F0004FEA124C1FFA83F9B5FBF8FA08FB1A55FC
:10C500000AFB09F04CEA054C60450AD913EB0C0C08
:10C510002CBF01250025604501D9002D55D00AF119
:10C52000FF3AACEB000C92B2BCFBF8F008FB10CC6D
:10C5300000FB09F942EA0C4CE14505D913EB0C0C60
:10C5400001D2E1453BD8013840EA0A40ACEB090C86
:10C55000A0FB0789CC4545464A4602D306D1C645CD
:10C5600004D20138B8EB070569EB03022EB3BEEB2A
:10C5700005036CEB020C23FA01F20CFA04F42CFA1A
:10C5800001F300211443C6E900430CE7314630466D
:10C5900009E7841A65EB030301209A4656E7ACF1DC
:10C5A000020C3D4424E702383C4434E702383C4462
:10C5B000EFE6AEF1020E3B44D9E63146F3E602382F
:10C5C0009C44C1E702383B4468E7AAF1020A9C4454
:10C5D000A7E702393D4474E7704700BF0000000040
:10C5E000012870B50E4606D008F08CF816230360BB
:10C5F0004FF0FF3070BD0FF04FFA1B4B34680A4606
:10C60000A4FB0345716803FB0155B368E41845EBCF
:10C61000E3754FF47A73A0FB030103FB0211C20B15
:10C6200042EA4142C80B1149A2FB012301FB00333E
:10C63000A61A65EB0305304609A3D3E90023294672
:10C64000FFF7FEFD06A3D3E90023094CC4E900016E
:10C6500030462946FFF7F4FD0020A260CAE700BF7C
:10C6600000CA9A3B0000000000CA9A3B40420F00FB
:10C67000B0030120F8B560240D4807F067F90D48B4
:10C6800007F064F90C4B0D4E1B680D4F013B5C43EA
:10C6900004F16005A54204DC0A4807F057F90020C0
:10C6A000F8BD315D384607F051F90134F2E700BFBB
:10C6B000DCDD0100EADD01005806012060E4012014
:10C6C000F7EC010015E901002DE9F84F002460277F
:10C6D000124B13481E68254607F038F97743DFF8F8
:10C6E0004480DFF84490DFF844A0DFF844B0A7426C
:10C6F00002DC0020BDE8F88F484618F8011B013520
:10C7000007F024F9602D07D1012ECCBF58465046C2
:10C7100007F01CF90025013E0134E8E75806012026
:10C72000EDDD010060E40120F7EC0100FCDD01001B
:10C73000F8DD010008B505480FF070F94FF47A7282
:10C74000A0FB0223D00B40EA434008BD6801012052
:10C75000024608B51049114BDFF854C0C0E9001378
:10C760000F48104B0021C2E9020300200E4BC2E922
:10C770000801C2E904C30D4B4021936103F17453D6
:10C78000A3F52303A3F69243D36102F1280009F035
:10C7900098FB0023936608BD67E6096A85AE67BB10
:10C7A00072F36E3C3AF54FA58C68059BABD9831F9D
:10C7B0007F520E5107B5044B0093044B0AF0F3FA75
:10C7C00003B05DF804FB00BFFDFFFCFF38C50100AE
:10C7D000602238B509F069FBBDE83840024A603193
:10C7E0006030FFF7E7BF00BF10CB0100014B024AEA
:10C7F0000AF000BBFDFFFCFF38C501002DE9F04346
:10C800008FB01C460546174602A830220E4609F096
:10C810004CFBDFF84890DFF84880013C013C07D230
:10C820003022284602A909F040FB0FB0BDE8F08392
:10C8300002A94246094B08460AF0DCFAE308FB5C11
:10C8400004F007021341DB07E8D502A9434632464C
:10C850000846CDF800900AF0A6FADFE7FDFFFCFFDE
:10C8600038C5010030B50C4699B040F27B1305463F
:10C870000D4A6846FFF7C2FF224669460CA8FFF73B
:10C8800099FF0CA90846FFF7B1FF302221460DEBB6
:10C89000020009F0F8FA044630222846694609F0F9
:10C8A00004FB204619B030BDD7E0010040F27D13F3
:10C8B000014AFFF7A3BF00BFA7E00100014B0AF048
:10C8C000A3BA00BF38C50100014B0AF0A4BA00BFEB
:10C8D00038C501002DE9F04F0C461546F1B00A4667
:10C8E000074664A89B46FFF7E9FF214658A8FFF7D3
:10C8F0007DFF58A908465F4A04F130080AF047FB5B
:10C9000005F1600A424641464CA8FFF7D7FF3021A7
:10C91000504609F0ABFA04F160065146814604A87E
:10C92000FFF764FF524631461CA8FFF743FF302152
:10C93000304609F09BFA3146039028A8FFF756FFCE
:10C94000BBF1000F0DD028A910A8FFF74FFF10A9C9
:10C9500008465A46FFF72EFF58A9084610AAFFF7C7
:10C96000ADFF5246414610A8FFF724FF10A9084624
:10C9700004AAFFF71FFF324605F1300134A8FFF784
:10C9800019FF34A9084628AAFFF714FF34A908465E
:10C9900010AAFFF799FF04A922460846FFF70AFFED
:10C9A00028A92A460846FFF705FF04AA28A940A897
:10C9B000FFF784FF28A904AA0846FFF785FF602136
:10C9C00028A809F053FA064604AA214600909023AD
:10C9D000104609F034FA28AA902310464CA9009674
:10C9E00009F02DFA1CA928AA0846FFF7E3FE28A99A
:10C9F0004CA8FFF7FBFE28AA4CA958A8FFF7DAFEBF
:10CA000058A9084610AAFFF7D5FE04AA4CA910A8F9
:10CA1000FFF7D0FE4CA940AA0846FFF7CBFE34A989
:10CA200004A8FFF7E3FE04A908464CAAFFF74CFF51
:10CA300010A9084604AAFFF747FF10A9084634AA20
:10CA4000FFF7B8FE10A9084658AAFFF73DFF04AA51
:10CA5000214610469023CDF8009009F0F0F9039B91
:10CA6000294600933846902304AA09F0E8F971B0EA
:10CA7000BDE8F08F38C50100014B0AF092BA00BF43
:10CA800038C501002DE9F04104460D461646074F12
:10CA90003B460AF086FA3B46324605F1300104F186
:10CAA0003000BDE8F0410AF07CBA00BF38C5010093
:10CAB000014B024A0AF03CBBFDFFFCFF38C50100F8
:10CAC00030B505460C468DB06846FFF7F1FF694664
:10CAD0002846302209F00CFA034A044904F13000D8
:10CAE0000AF045FB0DB030BDFDFFFCFF38C501006D
:10CAF00030B505460C468DB068463031FFF7D8FF9B
:10CB000030226946284609F0F3F921466846FFF7C6
:10CB1000CFFF30226946A81809F0EAF9034A044910
:10CB200004F160000AF05EFB0DB030BDFDFFFCFFBC
:10CB300038C5010007B5044B0093044B0AF06DFBA8
:10CB400003B05DF804FB00BFFDFFFCFF38C501002A
:10CB500010B54FF49072044609F0A7F900F13001C6
:10CB600008460122FFF788FF214620460B4AFFF7BF
:10CB7000E1FF04F1900108460122FFF77DFF04F177
:10CB800060010846064AFFF7D5FF04F1F0010122D3
:10CB9000BDE810400846FFF76FBF00BF10CE010090
:10CBA00070CE01002DE9F04105460E46144605F110
:10CBB00060080AF047FA05F1C0072246404606F130
:10CBC00060010AF03FFA2246384606F1C0010AF039
:10CBD00039FA60220C4B013C02FB043241464046CC
:10CBE000FFF7A8FF3023094A394603FB04243846DF
:10CBF0002246FFF7DFFD05F1F0012246BDE8F041D6
:10CC00000846FFF7D7BD00BF60CC010080CD010012
:10CC1000F8B505460E46144605F59077FFF7C2FFB6
:10CC20002246384606F59071FFF7BCFF60230B4A99
:10CC3000013C03FB0424394622463846FFF77AFFBD
:10CC400005F5C07122460846FFF774FF05F5F0713F
:10CC50002246BDE8F8400846FFF76CBF40CB010014
:10CC600070B50D469AB0164E164B174A044602A8E8
:10CC70000AF02FFB02A908463346134A0AF066FA67
:10CC800002A90846104B114A00960AF08CF82A4671
:10CC900002A90EA80C4B00960AF085F830220C4928
:10CCA0000EA809F0F0F830B13022204602A909F0B0
:10CCB000FCF81AB070BD29462046FFF7F7FDF8E7EB
:10CCC000FDFFFCFFA8C9010038C5010068C50100CF
:10CCD000C8C50100F0B501F160069BB004460D46E1
:10CCE0003046302109F0C2F80746314602A8FFF766
:10CCF000B7FF02A90EA8FFF779FD294620460EAA24
:10CD0000FFF758FD0EA9084602AAFFF753FD0EAA29
:10CD100005F1300104F13000FFF74CFD30233146BE
:10CD2000034A009704F1600009F089F81BB0F0BDD8
:10CD3000E8C3010030B50C460546A5B030220949CC
:10CD400004F1600009F09FF820B921466846FFF71A
:10CD5000C1FF6C4660222146284609F0A6F825B09E
:10CD600030BD00BFC8C5010070B501F160060446C2
:10CD70000D46A4B03021304609F078F838B13021A2
:10CD8000204609F055F8C023237024B070BD30222E
:10CD900030460A4909F077F820B929466846FFF776
:10CDA00099FF6D4629462046FFF78AFE0301207849
:10CDB00003F02003034363F07F03E5E7C8C50100E8
:10CDC0002DE9F0410C4E0D4FDFF8348000F11805CD
:10CDD00000F10804A54201D1BDE8F0813246394690
:10CDE00028460AF0A5FA41460246A5F10C000AF0D1
:10CDF000DCFA043DEEE700BF01A445AC02A401004B
:10CE0000F8D50100F8B50E4F04463A464FF480318C
:10CE100008300AF08DFA0B4D261D02462946304691
:10CE20000AF0C6FA3A464FF4803130460AF080FAEA
:10CE3000294602462046BDE8F8400AF0B9BA00BFCC
:10CE4000000001D2F0D501002DE9F04FD0E90073C8
:10CE5000D0E9025E97B0CDE90212D0E904428169BF
:10CE6000D0F81C800191039901390391013102D15D
:10CE700017B0BDE8F08F21469C463C460027DFF8FE
:10CE800094910092029B06AADB59009E1BBAD351D3
:10CE900059F8042B01EA060A1A444FEAF12383EAFF
:10CEA000B11383EA71631344019A043722EA010241
:10CEB00082EA0A0213444FEA743A8CEA0502984463
:10CEC00022408AEAB40A0CEA050353408AEAB45ABB
:10CED0005344402F08EB0E024344AE46DDF8048075
:10CEE00040F086804FF0100A029F494E403702976B
:10CEF000049657460AF1010A16AE0AF00F0E06EB29
:10CF00008E0E5EF840BC07F00F094FEABB4E8EEA6A
:10CF1000FB1607F10E0E0937059607F00F0716AE40
:10CF200006EB890906EB87070EF00F0E57F8407CD9
:10CF300006EB8E0E59F8406C5EF840EC3744059EC7
:10CF40004FEAFE4886EADB0B88EA7E48049E88EAC0
:10CF50009E285F44474456F8048B49F8407C049669
:10CF6000009E4FEAF22926EA020E02EA010B89EA44
:10CF7000B2198EEA0B0E89EA7269CE44019EC6444C
:10CF8000774484EA0C0B4FEA733E3E440BEA030BF2
:10CF90008EEAB30E04EA0C078BEA07078EEAB35E4B
:10CFA000774406EB050B3744009EBAF1400F654607
:10CFB000019625D1056846692F44456832442B44C3
:10CFC000856886692544C46871180CEB040E009EC0
:10CFD000046901918161C1695C440E44B0460760F7
:10CFE00043608560C0F80CE004614261C6613AE7C5
:10CFF000009DCDE9001565461146A4461C4641E753
:10D00000A44600911C4611463B465A4671E700BFB4
:10D01000E8C80100A8C801002DE9F04FFFB0814623
:10D0200002AF8801F8616846D7E98865A0EB8111F5
:10D03000B2F100088D4608BF00230DF1080BBB615B
:10D04000002E00F0EA80FF2D17D907F14000FFF70E
:10D050007FFB1122994907F140000AF020FA2A4685
:10D06000314607F140000AF01AFA202507F1400185
:10D0700007F120000AF0BDF97E1905F16A0424F0D9
:10D080003F0207F1B003A2F140001844402108F02C
:10D0900018FF07F1D10319467019864240F0BF808E
:10D0A0008020002607F1D2034D55585507F1D303D0
:10D0B0005E5507F1D4035E5505F1040A07F1D60366
:10D0C00001F80A605E5507F1D7035E5507F1D803F2
:10D0D0005E5507F1D9035E5507F1B00122350A44C8
:10D0E000EB00C5F3571502F8025C02F8013C744AE4
:10D0F000744B7549C7E91023744B4022BB6403F19C
:10D10000AB5303F5462303F23173FB64704B07F115
:10D1100068003B6503F14F5303F5321303F6B25336
:10D120007B656C4B6C4DC7E9161300234021C7E9A2
:10D13000182308F0C6FE4146BA6907F14000C7F857
:10D14000A8600AF0ACF9D7E9861207F140000AF0AE
:10D15000A6F9FB6952465BBA07F1CE0107F1400020
:10D16000A7F8CE3087F8D0600AF099F907F14001AE
:10D1700007F120000AF03DF920225848584BDFF80B
:10D1800078A1C7E91003574BDFF87081C7E912A3F4
:10D19000554E564BB91807F1B000C7E91653C7E909
:10D1A000148608F082FEA3095C4697F8D02007F1A8
:10D1B000B001013287F8D02007F140001A46BB6168
:10D1C000FFF742FE07F1400158460AF0FDF8FB69FF
:10D1D000DFF808C1A3F120010BEB01037B61404B99
:10D1E000DFF800E1C7E9033C404BC7E9013E7B693A
:10D1F000A34219D1602107F1B00008F062FEFB697B
:10D200003B4E5B441C463B4DDFF8F480A3453BD1CD
:10D2100007F5FA77BD46BDE8F08F35462DE716F8DD
:10D2200001CB03F801CB38E73B69C7E915653B64DF
:10D23000FB6807F1200CC7E9113ABB6807F1B000A1
:10D24000C7E913387B6804F11C0EFB65231F53F8F4
:10D25000041F5CF8042B734581EA020140F8041BAB
:10D26000F5D197F8D03007F1B001013307F1400054
:10D27000BA69203487F8D030FFF7E6FD204607F181
:10D2800040010AF0A1F8B2E75946402207F1B00088
:10D2900008F021FE48462A46154B07F1B00109F077
:10D2A00055FF494648462B464246009609F07BFD0D
:10D2B0000BF1400B09F13009A8E700BF01DE0100C6
:10D2C000BE9856DA69B4B917EAF9FEBA99573362CB
:10D2D00091D4E58CD8A93718ABD9831F67E6096AC2
:10D2E00085AE67BB3AF54FA58C68059B19CDE05B11
:10D2F000FDFFFCFF38C5010072F36E3C7F520E51FA
:10D3000098C501002DE9F04104460E4600F1700871
:10D3100069B941460AF04FF8402200234021C0E994
:10D320000823283008F0CDFDA666BDE8F08100F1A5
:10D33000B0054021284608F0C4FD314628460AF0D1
:10D34000A5F82E462B4604F1F0071A6882F0363213
:10D3500043F8042BBB42F8D12046FFF7F9F92946E0
:10D36000204640220AF09BF8214640460AF023F866
:10D37000336883F06A3346F8043BBE42F8D1144A5E
:10D38000144B1549C4E92423144B1548C4E926134A
:10D39000144B0122C4E92803134B2946C4F8A830D2
:10D3A00003F17453A3F52303A3F69243C4F8AC30FE
:10D3B00004F19000FFF748FD4021284608F081FD68
:10D3C000802384F8D0300323A4F8EE30ADE700BF0B
:10D3D00067E6096A85AE67BB72F36E3C3AF54FA506
:10D3E0007F520E518C68059BABD9831F2DE9F04FFE
:10D3F0008046F3B002AFC7E90432734BD7F8E84177
:10D40000B96007F1200203F1100615461868596843
:10D41000083303C5B3422A46F7D118681B79286040
:10D420002B710023C7F83930C7F83530FB637B69AF
:10D430001F2B08D82021404608F043FD07F5E2776E
:10D44000BD46BDE8F08F3B691425002B08BF0024C2
:10D4500004F10A0323F00703DFF874917B6007F1FE
:10D460004000FFF775F92A4607F1200107F1400057
:10D470000AF015F807F1400107F1200009F0B9FFA3
:10D4800020220023B91807F140003B77FFF73AFF4D
:10D490007A69B96807F140000AF001F8012207F142
:10D4A0001C0107F1400009F0FAFF07F1400107F500
:10D4B000987009F0D4FF7B68C7F80CD02022ADEB40
:10D4C000030D07F5987107F1400004F1030B02AD5D
:10D4D000FFF718FF24B122462846396909F0D6FF24
:10D4E00000234FF0300A2A192B5582F801A001229F
:10D4F000A61C2946AA5507F140005A4609F0CFFF5D
:10D5000007F1400107F1F00009F0A9FF07F1F00170
:10D5100007F5A87009F04FFF0023AA5D19460132F4
:10D52000AA5507F140001A46FFF7ECFE202207F14A
:10D53000F00107F1400009F0B2FF5A46294607F111
:10D54000400009F0ACFF07F1400107F1F00009F0DD
:10D5500086FF102207F1F00107F5B87009F096FF79
:10D560004021D7F80CD007F5C07008F0AAFC52464D
:10D5700007F5A87107F5C07008F0ADFC07F5C0719C
:10D5800008464FF0FF334A4609F0D9FD4FF0FF330C
:10D5900007F5C07108460D4A00934B4609F0FAFBA7
:10D5A000202107F5C07008F061FC202500287FF4D9
:10D5B00056AF404607F5C0712A4608F0B3FC4FF459
:10D5C000C07107F1400037E7D8C2010028C8010048
:10D5D00008C801002DE9F0410D460446A4B005F14C
:10D5E00030086846FFF702F941460CA8FFF7FEF83D
:10D5F0000CA918A8FFF7FAF80CA92A460846FFF765
:10D600005DF90CA90846FFF7F1F80CA96A4608462F
:10D61000FFF75AF90CA9084618AAFFF755F91F4E4B
:10D620000CAA11461046FFF749F93246694668468A
:10D6300009F0ADFC69462046FFF7D8F821462046A0
:10D640000CAAFFF741F9214620460CAAFFF73CF946
:10D6500004F1600705F1600211463846FFF72EF924
:10D66000424639463846FFF7A5F818A904F13005B7
:10D670003246084609F059FF224628460CA9FFF712
:10D6800023F96A4629462846FFF794F82946284692
:10D6900018AAFFF719F924B0BDE8F08138C50100D8
:10D6A00030B50446EDB001466846FFF791F869468B
:10D6B00024A8FFF78DF869466846FFF78BFF2246DE
:10D6C0007D24002324A948A8FFF704F9012148A8D4
:10D6D00009F06EFC48A9084600236A46134DFFF77F
:10D6E000F9F848A9013C0FD224A8012109F060FCF7
:10D6F00069460023084624AAFFF7ECF8302118A851
:10D7000008F0B4FB6DB030BD6846FFF763FFE30877
:10D71000EB5C04F007021341DB0705D500236946E3
:10D72000684648AAFFF7D6F86946DBE707E101003B
:10D73000F0B50E460446B1B004AD1146284620228D
:10D7400008F0E4FBFFF73CFB0CAF202229462846FB
:10D7500008F0E8FB31463846FFF73AF83846012131
:10D7600009F026FC08AB02AA6946204600960D4E39
:10D77000CDE90173039509F06EFF20460121603465
:10D7800009F016FC324621462046FFF713F83246D0
:10D7900021462046FFF70EF82021284608F091FB8D
:10D7A00031B0F0BD10CB010070B504469AB004F161
:10D7B0006005FFF7BDFF3021284608F057FB0646FD
:10D7C000294602A8FFF772F802A90EA8FFF70EF883
:10D7D000214620460EAAFEF7EDFF0EA9084602AA32
:10D7E000FEF7E8FF04F1300108460EAAFEF7E2FF5B
:10D7F000302329462846034A009608F020FB1AB039
:10D8000070BD00BFE8C301000A460149FFF7CCBF65
:10D8100088C30100014A09F0BABF00BF38C5010042
:10D82000014A09F0D0BF00BF38C50100014B09F023
:10D83000E3BF00BF38C50100014B0AF020B800BFAC
:10D8400038C50100014B024A0AF009BAFDFFFCFF8E
:10D8500038C50100F0B501F1C006B3B004460D466D
:10D860003046602108F002FB0746314602A809F065
:10D8700037FD02A91AA8FFF7E5FF294620461AAA94
:10D88000FFF758F91AA9084602AAFFF753F91AAA8E
:10D8900005F1600104F16000FFF74CF960233146A7
:10D8A000034A009704F1C00008F0C9FA33B0F0BD94
:10D8B000D8C4010030B50C460546C9B060220949FC
:10D8C00004F1C00008F0DFFA20B921466846FFF7EE
:10D8D000C1FF6C46C0222146284608F0E6FA49B04E
:10D8E00030BD00BFC8C5010030B50C460546C9B003
:10D8F0006022084904F1C00008F0C5FA20B92146A9
:10D900006846FFF7A7FF6C4621462846FFF7F0F868
:10D9100049B030BDC8C501002DE9F0431F46CBB06A
:10D92000804689461AA81146FFF78CFF3A461AA985
:10D9300032A8FFF781FF602132A808F097FA602231
:10D940000646274902A808F0B0FA3A461AA932A8B2
:10D95000FFF76CFF602132A808F088FA054602AA9A
:10D96000602300903543104607F130061D4908F04A
:10D9700066FA32461AA932A8FEF7A6FF3A4626A949
:10D980003EA8FEF79BFF602132A808F06FFA02AABA
:10D990006023009004461449104608F050FA3246BD
:10D9A0001AA932A8FEF78AFF3A4626A93EA8FEF732
:10D9B0008BFF602132A808F059FA2C43054602AAD1
:10D9C000602300900949104608F039FA2C4340467C
:10D9D000494602AAFFF7AEF820464BB0BDE8F083F7
:10D9E000C8C50100D0D4010090D5010030D5010098
:10D9F0002DE9F0470D46ADF55A7D8046C021104611
:10DA0000144608F033FA224681462146C2A8FFF7A1
:10DA10000DFF2146AAA8FFF715FFAAA904F1600A85
:10DA20000846FFF7F7FE05F1C0065246514692A898
:10DA3000FFF7FCFE6021304608F018FA3146074631
:10DA40004AA8FFF7FFFE32464AA962A8FFF772F81C
:10DA500062A952460846FFF76DF862A9084605F12B
:10DA60006002FFF7E9FE4AA922460846FFF762F87E
:10DA70002A464AA97AA8FFF7D9FE4AA92A460846A3
:10DA8000FFF7DAFE32464AA932A8FFF753F8C02161
:10DA90004AA808F0EBF906462A4621460090C02322
:10DAA00002A808F0CCF932AA104692A96023009689
:10DAB00008F0C5F94AAA4FF49073104692A900964F
:10DAC00008F0BDF94AA992A8FFF7BCFE4AAA92A99C
:10DAD000AAA8FFF72FF8AAA908461AAAFFF72AF85A
:10DAE00002AA92A91AA8FFF725F892A97AAA0846CD
:10DAF000FFF720F862A902A8FFF7A4FE02A90846D2
:10DB000092AAFFF799FE1AA9084602AAFFF794FE07
:10DB10001AA9084662AAFFF70DF81AA90846AAAA88
:10DB2000FFF78AFE02AA21461046C023009708F09C
:10DB300086F932AA104660230849009708F07FF959
:10DB40004FF4907329464046CDF8009002AA08F0A1
:10DB500076F90DF55A7DBDE8F08700BFC8C5010014
:10DB6000F0B50D460446C9B005F160076846FFF7F9
:10DB700069FE394618A8FFF765FE18A930A8FFF717
:10DB800061FE18A92A460846FFF750FE18A9084664
:10DB9000FFF758FE18A96A460846FFF74DFE18A978
:10DBA000084630AAFFF748FE18AA11461046FFF7AC
:10DBB0003DFE69466846FFF72DFE69462046FFF7A1
:10DBC00041FE2146204618AAFFF736FE2146204690
:10DBD00018AAFFF731FE04F1C00605F1C002114694
:10DBE0003046FFF723FE3A4631463046FEF7A2FFA5
:10DBF00030A904F160050846094A09F0D7FD22461C
:10DC0000284618A9FFF718FE6A4629462846FEF757
:10DC100091FF2946284630AAFFF70EFE49B0F0BD15
:10DC200038C50100F0B50446BFB004F1C0050AF0E4
:10DC30007AFB6021284608F019F90646294602A811
:10DC400004F1F007FEF7D2FD394626A8FEF7CEFD17
:10DC500002A926AA0846FEF731FE02A926A8FEF769
:10DC600025FE294626AA0EA8FEF7A4FD394626AAB7
:10DC70001AA8FEF79FFD1AA901220846FEF7FCFE2E
:10DC80000EA926A8FFF7DEFD2146204626AAFEF7AC
:10DC900051FF26A908460EAAFEF74CFF04F16001C9
:10DCA000084626AAFEF746FF602329462846034A6F
:10DCB000009608F0C4F83FB0F0BD00BFD8C4010022
:10DCC0002DE9F0470546ADF5667D3EA88A46FFF78B
:10DCD000B9FD3EAA86A89349FEF72CFF86A956A84F
:10DCE000FFF7B0FD56A908468F4C86AAFFF79EFDA8
:10DCF000284656A98D4AFFF799FD2246294628460F
:10DD0000FEF718FF86A905F1C0062A460846FEF769
:10DD100011FF56AA30468649FEF70CFF60213046B7
:10DD200008F0A4F86023324600908249304608F09B
:10DD300086F8314656A8FFF785FD314656AAB6A8A3
:10DD4000FEF7F8FE56AA10467B49FEF7F3FE294679
:10DD50009EA8FFF777FD9EA9084656AAFFF766FD25
:10DD60009EA92A460846FEF7E5FE2146B6AA56A811
:10DD7000FEF7E0FE9EA956AA0846FFF757FDB6A992
:10DD80006EA8FFF75FFDB6AA9EA956A8FEF7D2FEC1
:10DD90006EA956AA0846FEF7CDFE6EA902A8FEF7A8
:10DDA00025FD7AA90EA8FEF721FD02A90EAA0846B4
:10DDB000FEF784FD02A91AA8FEF754FD0746DFF816
:10DDC00080816EA9CEA85D4AFEF7B4FE424602A944
:10DDD00026A8FEF7EFFC08F130021AA932A8FEF7D8
:10DDE000E9FC02A90846009726AA302308F027F884
:10DDF0001AA90846009732AA302308F020F8CEAAC4
:10DE00006023104600976EA908F019F802A9084689
:10DE10001AAAFEF7CFFC02AACEA90EA8FEF754FD5F
:10DE200002AA1046CEA9FEF749FD302102A808F04B
:10DE30001DF802AA3023DFF80C9100900EA91046BD
:10DE400007F0FDFF02A905F160044A46084605F106
:10DE5000900809F082F902A92046FEF703FD40462A
:10DE60004A46DAA909F079F922464146FEF7A2FCB2
:10DE70002146204602AAFEF79DFCCEAB2246214653
:10DE80002046FFF749FD214620461AAAFEF792FCDC
:10DE9000414640461AAAFEF78DFC41464046012203
:10DEA000FEF7EAFD2146204656AAFEF743FE21462C
:10DEB0003EAACEA8FEF73EFECEA952460846FEF781
:10DEC00039FEDFF8848029462846009786AA602319
:10DED00007F0B5FF6023214620460097CEAA07F041
:10DEE000AEFF42464946504609F07CF94246074695
:10DEF0004946204609F076F987EA00022146204685
:10DF000002F00102FEF7BEFD324629462846FEF722
:10DF100011FE21462046B6AAFEF70CFE0DF5667DE1
:10DF2000BDE8F087D8C9010048C80100C8C5010094
:10DF300010D4010038CA010028C3010070D40100C8
:10DF4000B0D3010038C50100FDFFFCFF30B5154618
:10DF5000ADF2E44D044660A8FFF7B2FE4DB129468C
:10DF60002046FFF7ADFE60A9224608466A4B09F03D
:10DF700078FF90A9D8A8FFF765FCD8A9C0A8FFF73B
:10DF800061FCC0AAD8A9A8A8FEF7D4FD0323A8AABB
:10DF9000F0A8624909F08CF9684660A9604AFEF76A
:10DFA000C9FD694668460DF59062FFF73FFC68467B
:10DFB000F0AA60A9022309F032FC0223C0AAF0A84B
:10DFC000584909F075F90DF5846260A918A8FFF7A2
:10DFD0002DFC0123F0AA60A918A809F020FC18A9BB
:10DFE0000846D8AAFEF7A6FD0323A8AAF0A84E4922
:10DFF00009F05EF960A930A84C4AFEF79BFD30A9F4
:10E0000008460DF59062FFF711FC0223F0AA60A903
:10E0100030A809F004FC30A9084678AAFEF78AFD6A
:10E020000323A8AAF0A8424909F042F90DF590622D
:10E0300060A948A8FFF7FAFB0223F0AA60A948A844
:10E0400009F0EDFBD8A9084690AAFEF773FD48A990
:10E050000846D8AAFEF76EFD48AA18A990A8FEF7B0
:10E0600069FD694648AA60A8FEF764FD60A990AA08
:10E070000846FEF75FFD90A978A8FFF7E3FB78A9B3
:10E08000084618AAFEF756FD78A930AA0846FEF7FA
:10E0900051FD204660A9FFF763FD21462046FEF7AB
:10E0A00057FD21462046FEF753FD4FF4907260A9BC
:10E0B000A8A807F0FAFEA8A8012108F0D0FFA8A997
:10E0C000F0A8FEF745FD21462046A8AA002309F046
:10E0D000C8FEF0AA00232146204609F0C2FE60A92E
:10E0E000A8A80AF03BF8A8A9084660AA002309F0EE
:10E0F000B8FEA8A9F0AA0023084609F0B2FEA8A914
:10E10000F0A80AF02BF8002321462046F0AA09F0D7
:10E11000A8FE0DF2E44D30BD28C3010090CF0100F0
:10E12000B0D00100D0CE010030D2010050D30100A8
:10E1300010D101002DE9F041154604460E46ADF51B
:10E14000287D114605F1600718A8FFF77BFB05F154
:10E15000C008394630A8FFF775FB41466846FFF70F
:10E1600071FB30A948A8FFF76DFB30AA294660A8CB
:10E17000FFF75CFB60A90846FFF764FB60A908464F
:10E1800018AAFFF759FB60A9084648AAFFF754FBF5
:10E1900060AA11461046FFF749FB18A978A8FFF7B7
:10E1A00039FB78A990A8FFF74DFB2A46204678A9AD
:10E1B000FFF73CFB304660AA90A906F1C005FFF7C7
:10E1C0003BFB3146304660AAFFF736FB42463946F4
:10E1D0002846FFF72BFB29462846FFF733FB294645
:10E1E000284630AAFFF728FBDFF894806A462946C4
:10E1F0002846FFF721FB48A906F16007424608467A
:10E2000009F0D4FA3246384660A9FFF715FB3946C3
:10E21000384678AAFEF78EFC48AA39463846FFF7FA
:10E220000BFB21462046FFF70DFB2146204618AA8E
:10E23000FFF702FB2146204690AAFFF7FDFA30A91E
:10E2400043460846022208F0A5FE3CA9434608467C
:10E25000022208F09FFE2146204630AAFFF7ECFA82
:10E260006A4678A904F16000FEF764FC6A46294614
:10E2700004F1C000FEF75EFC0DF5287DBDE8F081DD
:10E2800038C501002DE9F04F87B01C4616464FF403
:10E2900090736A4603FB142302AFC7F808D09D466B
:10E2A000602303FB04F20DF1080A012CADEB020D13
:10E2B000054688460DF108090ED1C0214046FA6096
:10E2C00007F0D4FD602383461946304607F0CEFDA3
:10E2D0005BEA0003FA683FD1CB4643464A44C7F89D
:10E2E0000CA07A607A68934542D123464A4651464B
:10E2F00028460AF006FB0223424651462846CDE94D
:10E3000000434B460AF0E2FB0323424651462846AF
:10E31000CDE900434B460AF0D9FB0923424651465A
:10E320002846CDE900434B460AF0D0FB2023424665
:10E3300051462846CDE900434B460AF0C7FB10235F
:10E340002846CDE9004342464B4651460AF0BEFB03
:10E35000284608F0E8FE05E04FF4107228461949F7
:10E3600007F0A3FDD7F808D01437BD46BDE8F08FFD
:10E370003246314658463B60FEF7A0FA59465846A9
:10E380000122FEF779FB06F1300211460BF1300055
:10E39000FEF794FA3B68C0221946F86807F085FD3D
:10E3A000FB68602203F1C000064907F07EFDFB68B0
:10E3B0000BF1600B03F59073FB603B686036C03374
:10E3C00090E700BFC8C501002DE9F04F1E46036865
:10E3D000ADF2044D0C460DF58567D907054697E863
:10E3E0008003934600F1058143F002030360002E91
:10E3F00038D0C021304607F039FD98BBC0223146E5
:10E4000070A807F052FDC021304607F02FFD6023B1
:10E4100000903146794AA0A805F5147A07F00FFD5F
:10E4200047B170A809F0BAFE20B903200DF2044DDF
:10E43000BDE8F08F2B68DA0640F1A480B9F1000F37
:10E4400000F09A80B8F1000F00F0968070A908469D
:10E450004B46424609F0FBFD00235146504670AA48
:10E4600009F0FFFC002C00F0C680AF6860212A2F65
:10E47000204608BF05F5476707F0F8FC002840F084
:10E48000B680BBF1000F14D06022214670A807F0BF
:10E490000CFD6021204607F0E9FC30230090214666
:10E4A00088A8564A07F0CBFC70A8FFF7F9F80028B7
:10E4B000BBD02E68EB6816F040067AD0DDF8402419
:10E4C000DDF834140292DDF83C2428A8CDE90032AE
:10E4D0003B46DDF8382409F074FF28A90846FFF709
:10E4E000B9F9B9F1000F1DD0B8F1000F1AD06022B0
:10E4F000214604A807F0D9FC6021204607F0B6FCAD
:10E50000214630233D4A00901CA807F098FC04A93E
:10E5100008464B46424609F02BF804A90846FEF788
:10E52000D9FB04ACC0226E6805F55C7702FB06706F
:10E5300028A907F0BAFC602205F51768214602FBFE
:10E54000068007F0B2FC072E06F1010411D12E4619
:10E5500056F8104B082314F02004424639463ED0AA
:10E5600070A8FFF78FFE3146304670AA09F038FADE
:10E57000002400206C6059E7324651465046FFF7B0
:10E5800037FA6FE743F010032B60B9F1000F09D0A1
:10E59000B8F1000F06D04B464246504670A909F02C
:10E5A00056FD5FE74FF49072504670A907F07DFC6E
:10E5B00058E7CDE90273DDF83834DDF83C240193E7
:10E5C000DDF8343470A800930221DDF84034FEF702
:10E5D00023FD324670A928A8FFF7B8FC7DE7304636
:10E5E000FFF750FE2B6843F020032B60C1E70620A5
:10E5F0001CE704201AE7204618E700BFC8C5010041
:10E6000030B50468054614F02000ADF5597D0FD0F3
:10E6100029B14FF4107248A807F047FC16E0E30652
:10E6200037D504F00304012C05D0022C28D008466D
:10E630000DF5597D30BD05F514716846FEF74AFBAE
:10E6400023466A46154948A8FFF71CFE48A808F06B
:10E650006AFD48A9084605F1100209F0C1F948A968
:10E6600008460AF09FF860220D4948A807F00BFC05
:10E670004FF4F071044660A807F0F8FB2040D7E79C
:10E6800005F514716846FFF7E5F801236946054A68
:10E69000D9E74FF410720249BDE700BF18C401006A
:10E6A000C8C5010088C3010070B592B007AA15461D
:10E6B000124B03F12806144618685968083303C43E
:10E6C000B3422246F7D119889B782180A37000239A
:10E6D000CDE903332B23CDE90153202301220093FD
:10E6E0000749084B08480AF05EFA28B1074805F0C8
:10E6F0002DF9002012B070BD0548F8E723DE0100B7
:10E70000BC06012040E401205C06012013DE01006C
:10E710001ADE0100902170B5ADF5187D03AA74A82A
:10E7200003910CF074FC014610B141480AF0A9FDB8
:10E7300004A900220D4674AB13F8010B0132202A04
:10E7400001F8010BF8D13B4B0CAC03F1200622463B
:10E7500018685968083303C2B3421446F7D120221F
:10E76000354C2946354800920CABFEF73FFE236836
:10E77000324A334902F1200001EB431152F8045BA5
:10E78000824241F8045BF9D101332C4914A823607B
:10E790000AF03CFA4023202128AA14A80AF0CAFC57
:10E7A00010B9284805F0D2F8274805F0CFF82748D7
:10E7B00005F0CCF828A9264805F0C8F81F4950A84C
:10E7C000FFF722F8234850A9FEF7B4FA50A91CA875
:10E7D000FEF7CAFA204805F0B9F86023302138AABC
:10E7E0001CA80AF0A7FC10B91C4805F0AFF8236874
:10E7F00060241B4A38AD013B04FB03232A4612F870
:10E80000011B013C03F8011BF9D1104805F09EF8EB
:10E81000144E304615F8011B013405F097F8602CB2
:10E82000F7D1114805F092F800200DF5187D70BD64
:10E830004EDE0100F8C201005806012060E9012007
:10E8400020E8012075DE01007DDE0100EADD010027
:10E8500044EA01005C060120DCDD01008BDE0100E2
:10E8600060E40120F7EC010015E901009021F0B50A
:10E87000ADF2147D04AAB0A804910CF0C8FB0146C7
:10E8800010B18C480AF0FDFC05A900220D46B0AB82
:10E8900013F8010B0132202A01F8010BF8D1864B45
:10E8A0000DAC03F12006224618685968083303C2EC
:10E8B000B3421446F7D1002200232024CDE90023DF
:10E8C0007E484FF4C032002307F0A8F922460DAB72
:10E8D00029467B480094FEF789FD794915A80AF07E
:10E8E00095F9402321463CAA15A80AF023FC10B94B
:10E8F000744805F02BF8744805F028F8734805F0C3
:10E9000025F83CA9724805F021F88CA86C49FEF75F
:10E910007BFF8CA96F48FEF70DFA8CA930A8FEF793
:10E9200023FAFDF707FF054664480DF0ECF86A4846
:10E9300005F00CF8602330215CAA30A80AF0FAFB3D
:10E9400010B9664805F002F8604804F0FFFF0026A1
:10E95000634F5CAC384614F8011B013604F0F6FF37
:10E96000602EF7D15F4804F0F1FFC5F53B61083137
:10E970005D4804F0EBFF002200235048CDE900235E
:10E980004FF4C032002307F049F958480CF042FC1C
:10E99000202301461DAA55480AF0F7FB10B9544838
:10E9A00004F0D4FF402320214CAA1DA80AF0C2FB8A
:10E9B00010B9504804F0CAFF4F4804F0C7FF43485D
:10E9C00004F0C4FF42484CA904F0C0FF4B4B25AAF9
:10E9D00003F12805144618685968083303C4AB428C
:10E9E0002246F7D119889B782180A3700023CDE9B6
:10E9F00001332B23202200931DA925AB0DF59A602E
:10EA000009F0DFFCFDF796FE04462C480DF07BF87C
:10EA1000C4F53B6108313A4804F098FF0022002316
:10EA20002648CDE9002300234FF4C03207F0F6F862
:10EA3000234A0DF59A610DF5BE60FFF7F3F80DF569
:10EA4000BE61D4A8FEF736FF0DF5BE6174A809F0CB
:10EA500033F9FDF76FFE054618480DF054F82948C4
:10EA600004F074FFC02360210DF5826274A80AF0DF
:10EA700061FB10B9244804F069FF144804F066FFF4
:10EA80000026174F0DF58264384614F8011B013635
:10EA900004F05CFFC02EF7D1124804F057FFC5F513
:10EAA0003B610831194804F051FF00200DF2147D3C
:10EAB000F0BD00BF4EDE0100F8C201006801012078
:10EAC00060E9012075DE01007DDE0100EADD010064
:10EAD00044EA01005C060120DCDD01008BDE010060
:10EAE000F7EC010015E9010093DE0100B9DE010039
:10EAF000FADE010002DF01000ADF010023DE01006F
:10EB000016DF01003ADF010048DF010050DF01009D
:10EB100084B0F0B5B1B037A880E80E00144B602285
:10EB20001F4618A913F8010B013A01F8010BF9D19E
:10EB3000602115460F4C2668013E4E432368AB42C8
:10EB400004DC31B0BDE8F04004B07047684618A955
:10EB50000CF067FB0028F4D06023B91918AA11F84B
:10EB6000010B013B02F8010BF9D10135E6E700BFCB
:10EB700060E4012058060120F0B5ADF53B7D6C4600
:10EB800017460AAD0FCD0FC42B6807AE236096E879
:10EB90000E007868FFF7BCFFBC6820460CF03AFB1B
:10EBA000202301462D4A20460AF0EFFA10B92C48DE
:10EBB00004F0CCFE4023202128481AAA0AF0BAFA11
:10EBC00010B9284804F0C2FE274B0FAA03F128050C
:10EBD000144618685968083303C4AB422246F7D17B
:10EBE00019889B782180A3700023CDE901332B2362
:10EBF00020221A491D4800930FAB09F0E2FB324670
:10EC00001A4972A8FFF70EF8194872A9FEF752FECA
:10EC100072A92AA809F050F8164804F097FEC023FC
:10EC2000602142AA2AA80AF085FA10B9124804F015
:10EC30008DFE124804F08AFE0025114E42AC30468B
:10EC400014F8011B013504F081FEC02DF7D10D48E9
:10EC500004F07CFE00200DF53B7DF0BD40E401207A
:10EC6000FADE010002DF010023DE01003805012089
:10EC7000BC0601203BDF010048DF0100EADD0100A6
:10EC8000F7EC010014E90100084B1B7883420AD914
:10EC9000074B00EB401018440023C1E90233054B39
:10ECA00008604B60704700230B60704714EC012034
:10ECB00080E9012020E101002DE9F341124D0646D3
:10ECC0002A7842B90421114A0BF063FA6FF0070069
:10ECD00002B0BDE8F08100210D4A0BF05AFA002481
:10ECE0000C4FDFF834802978E3B2994201D8002034
:10ECF000EEE703EB431139440091424600213046D0
:10ED00000BF047FA0134EEE714EC01203BE101007F
:10ED10005CE1010080E9012073E101002DE9F74386
:10ED2000064615460027DFF85880DFF8589098F817
:10ED30000020FBB29A42696809D80091304602214E
:10ED40002B680D4A0BF025FA6FF007040FE003EB78
:10ED5000431309EB03000CF064FA01370446002862
:10ED6000E5D101466B683046044A0BF012FA2046A2
:10ED700003B0BDE8F08300BF92E101007DE1010036
:10ED800014EC012080E901202DE9F74FDFF88CA079
:10ED9000934606460022D046DFF884909AF8001089
:10EDA000D4B2A142DBF8043007D802213046194A18
:10EDB0000BF0EFF96FF007051AE004EB44174F442E
:10EDC0001946384601920CF02CFA019A0546013298
:10EDD0000028E3D1132C0FD189F8730298F8003082
:10EDE0000021013B30460C4A88F800300BF0D1F985
:10EDF000284603B0BDE8F08F9AF800203846121B71
:10EE0000013404EB441402EB421209EB04010CF050
:10EE100033FAE3E7CAE10100ACE1010014EC0120A0
:10EE200080E901202DE9F843294D04462B78164648
:10EE3000132B07D90221274A0BF0ABF96FF007001B
:10EE4000BDE8F88350680CF0E5F980B220280FD8AF
:10EE5000002377689AB290420ED81F4F4FF00008F7
:10EE6000B946384671680CF0DCF990B91B4A00E0ED
:10EE70001B4A02212046DFE7FA5C42F0200161399B
:10EE8000192904D9303A092A01D9164AF1E7013380
:10EE9000E0E708F10108B8F1140F07F12107E0D10C
:10EEA00028787268431C00EB40100F4948442B70CF
:10EEB00004F034FD21220D4B2978074809F0E6FEC5
:10EEC000204600210A4A0BF064F90020B8E700BF91
:10EED00014EC0120E4E1010080E901204BE2010093
:10EEE000FBE101000DE201003FEA0100338C01006B
:10EEF0005FE201000B6801330B60014B1B68184790
:10EF000000000120014B1860704700BF0000012085
:10EF100007B50B46002102460191034801A900F004
:10EF2000D9FA03B05DF804FBF5EE000030B500251A
:10EF300085B0CDE90101044601A90548039500F01B
:10EF4000C9FADDE902309842B8BF255405B030BD9A
:10EF50005D9201002DE9F84FB0F81890044619F0C1
:10EF6000080893460DD001290CBF49F0100949F05B
:10EF70002009A0F818908BF31188BFF36F8FBDE8BC
:10EF8000F88F09F00709022907D120460AF093F902
:10EF90000028F0D00128238B50D16769218B002FE6
:10EFA00015DA256821F00701C4E9008841F0010164
:10EFB00021830026218B01F0070ACA4502D0A368ED
:10EFC000002B5CD10DB9002E74D0002358E001F065
:10EFD00007035A1F012A20D821F00701062B2568B4
:10EFE00089B2C4E900880CD1002D2B4638BF00231C
:10EFF0002BB1628B1B6801326283002BF8D141F088
:10F000000201204621830AF056F906460028D1D095
:10F01000238B43F020032383CBE7042B0CD121F077
:10F02000070189B2204621830AF045F905460028E8
:10F03000BFD041F0200121830025BAE7032809D180
:10F04000226923F00703166843F006030025238393
:10F050002F46AFE7042806D1226923F0070356683C
:10F0600043F00403F2E7052806D1226923F00703E1
:10F07000966843F00503E9E700252E46E8E70123FB
:10F0800041F0080121838BF31188BFF36F8F03BB1D
:10F09000002D33D116B120462049B0474FF0200350
:10F0A000EFF3118B83F31188BFF36F8F238B23F062
:10F0B00008032383238BDA0628D5012123F01003CC
:10F0C0002383B4F8189009F0070900297FF45BAF97
:10F0D00051E7A1680029DBD00B68002B38BF002363
:10F0E000994652463B462046D1F804B0D847B9F17C
:10F0F000000FCDD04946D9F80030EEE729463B460F
:10F10000524620462D680AF0F2F8C1E713F02001BC
:10F110001EBF23F0200302212383D2E71B930100AB
:10F120002DE9F74F0369C46803F10109631E40F23A
:10F130006C740025019343698046E41845EBE37540
:10F14000B9F1020F8CBF00230123E41A65F1000519
:10F15000002C75F1000357DA6FF4C7704FF4C872D2
:10F160000023201845F1FF31FDF76AF8294B4FF0D5
:10F170003C0C03FB0044D8E900539A46B9F1020F56
:10F180008CBF6FF0020E4FF0090E4FEAE37BD8F808
:10F190000830F144CCFB03ABAAFB0C230CFB0B3374
:10F1A000521943EBE57340F26D154FF0990E4FEA9B
:10F1B000940C05FB04CC019D0EFB09FE65444FF049
:10F1C000640C4FF00509B4FBFCF40EF1020EBEFB1B
:10F1D000F9FEDFF84CC02C1BA644A0FB0C450CFB31
:10F1E00001550D4966180D4945F1FF3716EB0E061E
:10F1F000A6FB014547F1000701FB0755A01845EBA9
:10F20000030103B0BDE8F08F4FF4C872002320461D
:10F210002946A9E770FEFFFF9405F5FF8051010024
:10F22000B13A02000022F0B5C0E9002282604A78BB
:10F230000346252A33D001310C4611F8012B2B2A25
:10F240003DD02FD8202A3ED0232A40D01A7802F071
:10F250004401442902D16FF386121A7022782A2AB7
:10F260004CD11A88601C42F4C0721A8002782E2A8F
:10F270004FD142782A2A45D00130054600220A277C
:10F28000014611F8014BA4F13006092E53D9A842CA
:10F290001FBF59789A6041F00201597039E0881C0B
:10F2A000DA70F0BD2D2A05D0302ACFD11A7842F07D
:10F2B000400202E01A7842F004021A70BCE71A78A1
:10F2C00042F00802F9E71A7842F01002F5E71A78DE
:10F2D00042F02002F1E7084607FB0252303A0146AD
:10F2E00011F8015BA5F13006092EF4D984421FBF45
:10F2F00019785A6041F080011970B7E72046002262
:10F300000A27ECE75A78023022F0060242F00602A1
:10F310005A70014611F8014B6C2C3CD010D8682C67
:10F3200015D06A2C3FD04C2C42D05A7801466FF34E
:10F33000C6025A7014E007FB02420846303A9FE7C3
:10F34000742C5A7832D07A2CEFD106201FE0427804
:10F35000682A5A781AD1012161F3C6025A70811CB9
:10F36000084610F8014B782CDC7000F2AC80572C6A
:10F3700029D8412C03D0453C022C00F2A480042162
:10F380009A7861F302029A70012278E0022060F319
:10F39000C6025A70E4E742786C2A5A7801D10421F7
:10F3A000DAE70320F3E705205A78F0E70720EEE7D5
:10F3B0001A8822F4F04222F0020242F4804242F023
:10F3C00002021A80CCE7A4F15802202A7BD801A1BE
:10F3D00051F822F08FF40000C7F40000C7F40000D9
:10F3E000C7F40000C7F40000C7F40000C7F4000031
:10F3F000C7F40000C7F400007FF30000C7F400006A
:10F400008FF4000059F400007FF300007FF3000048
:10F410007FF30000C7F4000059F40000C7F40000B7
:10F42000C7F40000C7F40000C7F4000095F4000022
:10F430008FF40000AFF40000C7F40000C7F4000030
:10F44000AFF40000C7F400008FF40000C7F4000020
:10F45000C7F400008FF4000001219A7861F30202E2
:10F460009A705A7802F07802402A02BF197841F067
:10F4700001011970632C2AD1003A18BF01221978B2
:10F48000C1F34004224362F34101197009E70221EC
:10F490009A78E3E703219A7861F302029A705A7826
:10F4A00002F07802A2F140014A424A41E7E7032113
:10F4B0009A7861F302029A705A7812F0780F14BFAA
:10F4C00001220022DBE71A7842F001021A700022C2
:10F4D000D5E700BF2DE9F04F8046894692461C468D
:10F4E00000258FB09AF8000008B928460BE12528BE
:10F4F00009D04946C0470028C0F205810AF101033E
:10F500000293013559E0514605A8FFF78BFE9DF89F
:10F5100015300290D9071AD554F8047B002F06DA6B
:10F520009DF814207F4242F004028DF814205A07FF
:10F5300015D554F804BBBBF1000F14DA9DF8153053
:10F540006FF341038DF815304FF0FF3B0BE09DF951
:10F550001420002AACBF4FF0FF37069FE7E79B0758
:10F56000F2D5DDF81CB000219DF816309DF815C0CD
:10F5700003F00703012B8E46CDE90611CCF3C30C33
:10F5800030D1ACF10303042B1AD8DFE803F0033BBE
:10F590003B19190054F8041BCB179E469DF81430F4
:10F5A00013F0030650D0524649464046029B0AF0EB
:10F5B00035F90028C0F2A7800544DDF808A091E7DE
:10F5C00054F8041BBCF1010F4FEAE1739E4602D1CF
:10F5D00001F0FF0113E0BCF1020FDFD10AB2D31733
:10F5E0001146DAE7022B22D1ACF10303042B12D827
:10F5F000DFE803F003080811110054F8041B4FF072
:10F60000000ECBE7E31D23F007031C46D3F804E00C
:10F6100054F8081BC2E7BCF1010F4FF0000E54F87C
:10F62000041BD5D0BCF1020FB8D189B2E7E7042B97
:10F6300005D1073424F00704F4E80223D0E7032BB4
:10F6400008BF54F8041BA9E79DF817007828B4D820
:10F65000622821D8252851D05828AED10DF1360383
:10F6600008460093714608AB05AA0AF08CF882465A
:10F67000BBF1000F0DF136010CDB9DF81420A1EB5E
:10F680000A036FF386129B458DF8142002D9ABEB69
:10F69000030306938B4648E0633815288DD801A2F2
:10F6A00052F820F033F7000091F70000BBF500009E
:10F6B000BBF50000BBF50000BBF5000091F70000B2
:10F6C000BBF50000BBF50000BBF50000BBF500007A
:10F6D000EBF70000B9F70000BDF70000BBF5000034
:10F6E000BBF500000DF70000BBF50000B9F7000006
:10F6F000BBF50000BBF50000B9F700004946C04764
:10F700000028BFF6FEAE0FB0BDE8F08F08468A466F
:10F7100003910BF07FFDBBF1000F039902DB58450D
:10F7200028BF5846002601EB000BBAF1000F07D1A5
:10F7300043E700268DF820100DF1210B0DF1200A72
:10F74000ABEB0A0306B101339DF81620D00667D54E
:10F7500002335206069948BF079A0B4448BF9B18CC
:10F76000002F70DD9DF81420FF1AC2F3800303936D
:10F77000530768D4500640F1A3803EB14946304655
:10F78000C0470028BFDB039B01351E46302398E0AD
:10F790001E070FD413F0100618BF202600297EF193
:10F7A0000000BFF65BAF4A426EEB4E0311469E4629
:10F7B0002D2653E72B26F1E700264FE751B30DF135
:10F7C000360308460093002108AB05AA09F0DBFFC9
:10F7D000BDF81630824603F0EF0343F4F04343F0E4
:10F7E00010030026ADF8163042E7BCF1070F3FF6D4
:10F7F000E4AEDFE80CF00D04060D08080D0D0D70E9
:10F80000DBE60D80D9E62A46EB17C1E90023D4E6F2
:10F810000D60D2E6DFF8C0B00E46ABF1050A8FE707
:10F82000110748BF013394E7184649460393C04780
:10F830000028039BFFF667AF002FA5EB070107F138
:10F84000FF37F1DC0D4636B149463046C047002847
:10F85000FFF659AF01359DF81630D90601D41A07C5
:10F8600006D549463020C0470028FFF64CAF013589
:10F870009DF81630DB0607D549469DF81700C047AE
:10F880000028FFF640AF0135069E2E44731B002B67
:10F8900019DC5B4652464946404609F0BFFF002846
:10F8A000FFF631AF05442F447B1B002B7FF785AE5D
:10F8B00049462020C0470028FFF625AF0135F3E771
:10F8C00020233D44B8E749463020C0470028FFF6D2
:10F8D0001AAF0135DAE700BF0DE401004FF0200256
:10F8E000EFF3118382F31188BFF36F8F0121044A74
:10F8F000C2F8401583F31188BFF36F8F0020704763
:10F900000090034020B1034B800143F001031847EE
:10F91000704700BF20C3010030B5002289B00F49F5
:10F920000F480CF0E4F8002200230024CDE9062360
:10F930000E230C4DCDE903344FF440722846CDE937
:10F940000144094B0949009405F01EFF0849284667
:10F9500005F070FE204609B030BD00BF75F900000B
:10F96000F801012030020120D1FE0000C0EC01208E
:10F9700085E70100014805F0D5BD00BFDC0101208D
:10F9800038B500F003FB13480AF016F812490423B7
:10F99000282212480BF07BFE114B124A4FF4004014
:10F9A0001A6000F03BFD00210F48104B104C1B1A51
:10F9B000DB080430994200D138BD10F831202568A9
:10F9C00002F0070225F007052A4344F8042B013111
:10F9D000F0E700BF8807012000C90220900701203E
:10F9E00004000120F79901006CC10100CCC10100A5
:10F9F00034010120F8B500250C4BD3E8EF7FC3E8B4
:10FA0000E25F002AF9D10A4C0A4E361B3611B54284
:10FA100000DBF8BD63685B792BB12368DB6813B149
:10FA200039462046984701351034F0E78007012019
:10FA3000CCC10100DCC10100044BD3E8EF2F01323F
:10FA4000C3E8E12F0029F8D1704700BF80070120EB
:10FA5000044A054B9B1AB1EBD30F34BF52F8310067
:10FA6000002070476CC10100CCC101002DE9F047B6
:10FA70008946164698460446B0B9214B05469A4633
:10FA8000204FFF1A3F11BC4202DB2846BDE8F08739
:10FA90000AEB0410434632464946FFF7E7FF85422A
:10FAA00038BF05460134EEE7174B184903EBC20394
:10FAB0001D79436845451A794FF0070328BF45462D
:10FAC00002EB420203FA02F051F8263023EA000367
:10FAD00005F0070000FA02F213430020032223FA84
:10FAE00002F404F00704A04202F1030238BF2046EA
:10FAF0001E2AF4D123F00703034341F82630C4E75C
:10FB0000CCC10100DCC101006CC101003401012045
:10FB1000F8B506460F460025074C084BE41AE408E2
:10FB2000A54200D1F8BD00212A463B463046FFF7EA
:10FB30009DFF0135F4E700BFCCC101006CC101009D
:10FB40000C4B70B5C31A46681B11044601330D46B1
:10FB500033711146FFF7DCFF01226368064C5A71CE
:10FB600022781D6012B9054805F0DCFC01232370E2
:10FB700070BD00BFCCC1010015EC0120DC010120EB
:10FB800070B50F4BD3E8EF5F6A1CC3E8E12F002983
:10FB9000F8D12DB90B4C0C4E361B3611B54200DB9B
:10FBA00070BD237B43B123685B6903B1984704228E
:10FBB00000212046FFF7C4FF01351034EEE700BFF7
:10FBC00084070120CCC10100DCC1010053B14368AE
:10FBD0000749187900EB400351F82200D84000F0A3
:10FBE00007007047034B03EBC2021079704700BF58
:10FBF000340101206CC10100144B37B59842044612
:10FC000002D3134B98421CD300220023114801A9B0
:10FC100004F024FF0546B8B90122019BD3E8EF1F89
:10FC2000C3E8E02F0028F9D1019821461F220430B3
:10FC30000BF0CFFA7E23019C84F8233084F8245003
:10FC40000434204603B030BD034CFAE7FCBE01008B
:10FC500008FB01009007012012E4010048B1054BA8
:10FC6000984205D3A03398422CBF00200120704752
:10FC70000020704700C902202DE9F04F554B054682
:10FC80001B7885B003B940B34FF02003EFF3118622
:10FC900083F31188BFF36F8F4F4809F09DFE044630
:10FCA00086F31188BFF36F8F58B14C4BD3E8EF2F19
:10FCB000013AC3E8E12F0029F8D195B1204609F0B7
:10FCC0009AFF25B9464B1B680BB1FFF793FE4248DC
:10FCD00009F080FE051E18BF0125284605B0BDE8C5
:10FCE000F08F404B1B78CBB9237ADA0716D409F092
:10FCF00091FF8046204609F05CFF0146404609F02E
:10FD00007EFE0646384F394BDFF800B1DB1BDB08BF
:10FD10000393374BDB1B4FEAD30A46B9354E364FB8
:10FD20004FF00008BF1BDFF8E8903F114EE0B6FA35
:10FD300086F1C1F11F094946204609F03DFF2F4BCE
:10FD40000146984202D32E4B98421ED30846FFF735
:10FD500085FF0246C8B92B4B994216D06389039997
:10FD6000C3F389138B4238BF57F83320DBF80030D8
:10FD70005B070AD04FEA8A1343F00103ADF8003065
:10FD800049464346204809F099FE012101FA09F14C
:10FD900026EA0106C1E773685A79A2B160891B7926
:10FDA000C0F3891003EB430259F82030A17AD34005
:10FDB00001F0070103F00703994204D83368214694
:10FDC00030461B68984708F101081036B845E2DB59
:10FDD00074E700BF15EC0120880701207C07012093
:10FDE0008007012016EC01206CC10100CCC101008C
:10FDF0008CC10100CCC10100DCC10100FCBE0100CE
:10FE000008FB010012E401002CE401004401012080
:10FE100034010120274B73B51B6841810446984784
:10FE2000254DE060D5E8EF3F0133C5E8E23F002A09
:10FE3000F8D14FF02003EFF3118683F31188BFF35D
:10FE40006F8F1E48214609F0BBFD86F31188BFF372
:10FE50006F8F1B4B1B7883B14FF02003EFF311849E
:10FE600083F31188BFF36F8F0020FFF705FF84F342
:10FE70001188BFF36F8F02B070BD124A2B681268F1
:10FE8000002AF8D0012B0AD1002200230E48CDE928
:10FE900000234FF40042002305F0C0FEEBE70A2BDD
:10FEA000E9D109480BF02FFE084802B0BDE87040C8
:10FEB00005F038BB040001207C07012088070120E1
:10FEC00016EC0120AC070120F8010120DC01012023
:10FED00010B5FFF755FE05F01FFB0C4B186030B155
:10FEE0000B4B1B68092B02DD0A4805F01BFB094C74
:10FEF0000020FFF7C1FE0028FAD14FF0FF324FF08B
:10FF0000FF33204605F034FBF2E700BFAC070120C9
:10FF10007C070120DC010120F8B50E4F3D7875B952
:10FF2000FFF72EFE0C4C0D4E361B3611B54207DB8B
:10FF30000020FFF7A1FE0028FAD101233B70F8BD95
:10FF400063685B791BB1236820461B6998470135BC
:10FF50001034EBE716EC0120CCC10100DCC101003C
:10FF600007B504380190D0E8EF3F5A1EC0E8E12FF2
:10FF70000029F8D1012B03D1034801A904F0A0FD09
:10FF800003B05DF804FB00BF900701202023024965
:10FF90001A4602480BF07BBBA0C90220B007012023
:10FFA000002337B5094D01930120FFF765FE044694
:10FFB000FFF742FD00220023284601A904F04EFD70
:10FFC00008B1002CF0D1019803B030BDB00701207A
:10FFD000002307B5002201930648002301A904F07D
:10FFE0003DFD10B1FFF7DCFF0190019803B05DF813
:10FFF00004FB00BFB0070120F0B5037A457A85B055
:020000021000EC
:100000000190D8074FEA15151CD4DDB1002426460F
:100010003146019809F0D0FD0746FFF71FFE70B189
:1000200034B9019B2946186909F0E9FC044648B136
:1000300024FA06F3D90702D53846FFF791FF0136B7
:10004000AE42E5D3019B1A7A920704D55B69084C4E
:100050000393039B2BB9064801A904F031FD05B0B9
:10006000F0BD1D68204603A904F02AFD0395F0E7C2
:10007000B00701200EB403B503AB53F8042B0146BF
:1000800004480193FFF726FA02B05DF804EB03B0D1
:10009000704700BF159F01002DE9F04F11F00204D9
:1000A00085B0904606461A469DF8387001F0010961
:1000B00001F0080507D011F0440F37D13249FFF79E
:1000C000D9FF01460C46B9F1000F0AD02F4B30463C
:1000D00053F827202E4B2F49002A08BF1A46FFF756
:1000E000C9FF3DB12C4B304653F827202B49FFF771
:1000F000C1FF0546B8F1000F43D0012303FA07F70B
:10010000274B17F0100F274F18BF1F46BDF84010A0
:100110009DF83C00FFF79CFC394602463046FFF74D
:10012000A9FF2844204405B0BDE8F08F1E4B196894
:100130000029C7D01D4B4FF4616E1B684FF47A7CC9
:10014000B2FBF3F3B3FBF1F4B4FBFEF20EFB124E81
:1001500001FB14340CFB04F4B4FBF1FB4FF03C0A3C
:1001600001FB1B440CFB04F4BEFBFAF3B4FBF1F1FE
:10017000CDE901B10AFB13E100910D49FFF77AFFC8
:100180009FE7084FC2E700BF7DE4010090D6010061
:100190006FE401003FEA0100A4D60100A2E40100DF
:1001A00079E4010074E40100CC070120D0070120AC
:1001B00086E4010038B50C46E107054603D5084A38
:1001C0000849FFF757FFE20608D4A3062846BDE812
:1001D00038404CBF04490549FFF74CBF38BD00BF4C
:1001E0006FE401003FEA010015E9010022E501008A
:1001F0002DE9F0471D46089B1746DA0604460E46D1
:1002000005D499064CBF2A492A49FFF733FF4FF01E
:100210000008DFF8A890A8452ADB0025DFF8A080B9
:10022000DFF8A090DFF894A0BD422FD249462046C7
:10023000725DFFF71FFF0135102D20D120461E49AA
:10024000FFF718FF0025DFF87480DFF87C90AF42DD
:1002500028D9725D4946A2F120035F2B28BF2E22C8
:100260002046FFF707FF0135102D14D1BDE8F087B8
:1002700049462046FFF7FEFE08F10108CBE76A0772
:10028000D2D151462046FFF7F5FECDE74146204644
:10029000FFF7F0FECFE76B07D9D141462046FFF7C5
:1002A000E9FED4E741462046FFF7E4FEDBE700BF66
:1002B00015E9010022E50100B2E40100B0E401000B
:1002C000AEE40100A8E40100F7EC01002DE9F047DD
:1002D0008B7A174613F0070805460E460A7A8AB04D
:1002E00021D0D2434989C3F3C203C1F38911CDE9B7
:1002F00000830291F368394602F00102FFF7CCFE59
:100300008146347AE44314F001040ED02946304685
:1003100009F096FCB8F1000F2BD04246394628462A
:10032000FFF748FF25E0C146EBE7B8F1000F26D103
:100330002746EB6806AA069330463B46A96809F0B3
:100340006BFC069A6B681A603AB1AB68134413F8F9
:10035000014CA4F10A035C425C41284609F0CDFD42
:10036000069B1F44002BE4D11CB128461349FFF71C
:1003700081FE284609F0C1FD0AB0BDE8F08730468D
:1003800009F048FC0E4902462846FFF773FE4FF07D
:10039000100A05AA2346304606A9CDF814A009F094
:1003A0003BFC059A002AB8D04B462846009706A980
:1003B000FFF71EFF059B1C44EBE700BFB4E4010000
:1003C0003FEA010042F20F7373B58B4228BF0B4620
:1003D00005680446052168460D4A08F05FFF064699
:1003E0006368284604225B680A4909F01CFC6368BC
:1003F0003246694628465B6809F015FC6368172297
:1004000028465B68044909F00EFC02B070BD00BFCD
:10041000E3EC0100EEE40100D6E401000123002139
:10042000074A10B5074C1360A04204D801B113600D
:10043000054B186010BD012140085B00F4E700BFC8
:10044000D007012040420F00CC07012000230428E0
:10045000CB604B6098BF044B044A98BF53F82030E0
:100460008A600B60704700BFF8D60100D4D6010047
:100470000023084A0B60CB604B608A60064B074A3A
:10048000D21AB0EB221F3EBF03EB00139B680B6038
:10049000704700BF38D80100CCC10100DCC10100A9
:1004A0002DE9F34707460026104C114DDFF8448034
:1004B0002D1BDFF84490DFF844A02D11AE4203DB82
:1004C000002002B0BDE8F0876268002153791279FC
:1004D000002B14BF43464B463846CDE90032A36893
:1004E000524609F056FE01361034E7E7CCC1010050
:1004F000DCC10100F3E40100FBE4010004E50100BC
:100500002DE9F74F214B224D0646ED1A4B680F4659
:100510005B79ED081BB904211E4A09F03AFE00215F
:1005200030461D4B1D4A09F034FE002130461C4A5E
:1005300009F02FFE0024DFF86CA0DFF86CB0AC42AD
:1005400003D1002003B0BDE8F08F22460123002133
:100550003846FFF73BFB00232246194680463846C3
:10056000FFF734FB814621460020FFF771FA5AF865
:100570002920034601925AF8282000210092304693
:100580005A4609F006FE0134D9E700BF6CC10100EC
:10059000CCC1010025E5010037E5010043E501007C
:1005A00061E50100E4D601009EE501000023064A52
:1005B00010B50C46CB604B608A6001461846FFF7C9
:1005C00047FA206010BD00BFD4D601002DE9F74FD7
:1005D00052F804BC0746584691468A4600930AF0F2
:1005E00019FE4FF000080246134C144E361B36110C
:1005F000B04508DB5B4602213846114A09F0C9FDC7
:100600006FF0070513E0A168584601920AF015FE45
:100610001034054618B1019A08F10108E8E70649C7
:100620004B4652463846009C01EB0811A04728462D
:1006300003B0BDE8F08F00BFCCC10100DCC10100F8
:10064000B2E5010008B5024BFFF7C0FF002008BD6E
:1006500001050100014BFFF7B9BF00BF439F010037
:10066000014BFFF7B3BF00BF4B9F0100014BFFF7EA
:10067000ADBF00BF75070100014BFFF7A7BF00BF6B
:10068000C79F010010B5C369DB681C792CB9022132
:10069000034A09F07EFD204610BD0120FCE700BFA3
:1006A000C7E501002DE9F04F1F462C4E2C4B151EBF
:1006B000A6EB03064FEAD60614BF2B46334685B099
:1006C00002934B6880465B7989461BB90421254A11
:1006D00009F05FFD0024DFF898A0029B9C4202DB3A
:1006E00005B0BDE8F08FB5B3002357F824B09E42A3
:1006F00007D10221404657F824301B4A09F049FD32
:1007000022E0194600200393FFF7A2F94022594640
:100710000AF093FD039BC8B91A4600210E9B484678
:10072000FFF7A4F90E9B834683420DD085B921467D
:100730002846FFF78DF903465AF82B200421009232
:1007400040460A4A09F025FD0134C6E70133CEE7E9
:1007500057F82430F0E72246DFE700BFCCC10100A4
:100760006CC10100EBE5010016E6010000E60100A6
:10077000E4D601002DE9F74F0646884691461D460E
:100780000027D3F804B0DFF848A0042258465AF8EE
:10079000041B0AF052FD044670B10137052FF4D155
:1007A000022130466B68094A09F0F3FC6FF0070438
:1007B000204603B0BDE8F08F41463046009705F172
:1007C0000803A9F10202FFF76DFFF1E730E601002F
:1007D000E4D6010013B5044605F074F8C0F307230E
:1007E0000193C0F3074300930021030E034A204600
:1007F00009F0CFFC002002B010BD00BFD7E7010018
:100800002DE9784804460BF047F94FF47A76002535
:10081000A0FB06BC06FB01CC4FEADB32204642EAD5
:100820004C432946024A09F0B4FC2846BDE87888C2
:10083000F0E7010010B5044602F08CF900210346F0
:10084000074A204609F0A5FC2046064A002109F087
:10085000A0FC2146044804F0B5FE002010BD00BFF6
:10086000FFE701001EE80100C908010030B501469C
:10087000044687B0114804F0A5FE0023104A12F880
:10088000011BAA2903D10133B3F5006FF7D164220C
:10089000C3F500614A43D20A002505924FF4006275
:1008A0002046CDE90312CDE901232946044B054A30
:1008B000009509F06EFC284607B030BDA50901007F
:1008C00000C1022028E80100F0B587B004460D46BB
:1008D000D0F8A4700BF07CF8064604F01DFE224B05
:1008E000224A002E08BF1E46214B0021844218BF19
:1008F0001346CDE9004628461E4A09F04AFCD4E9D1
:100900000A23CDE9022394F90E30002128461A4A21
:100910000093237B09F03DFC204604F09BFE002160
:100920000346164A284609F034FC05A920460BF078
:1009300051F8014638B1034600212846104A09F013
:1009400028FC07B0F0BD6423059AB81A4343B3FBF3
:10095000F7F3CDE90020CDE9027328463B46094A6A
:1009600009F017FCEDE700BF6EE80100B0E40100FC
:10097000C1F8010071E801007DE80100A7E801006D
:10098000B3E80100E0E8010010B5044602F0FCF80D
:1009900000210346024A204609F0FBFB002010BD5F
:1009A00017E90100F0B505460E46D0F8A47089B0ED
:1009B00007A90BF00FF8044638B103460021304672
:1009C0000F4A09F0E6FB09B0F0BD28460BF000F82D
:1009D0006423079ADFF830C0B91A4B43002808BFD8
:1009E0006046B3FBF7F3CDE90221CDE90473CDE90D
:1009F00000072B4621463046024A09F0CAFBE2E7CF
:100A0000B3E801002DE901006EE801002DE9F04195
:100A100000210F4A054609F0BCFB0E4C0E4E0F4F4D
:100A2000DFF83C80B44202D10020BDE8F0812046CE
:100A300003F02AFE50B13A4600212846236809F007
:100A4000A8FB42460021284609F0A3FB1034E9E741
:100A500033EA0100E0000120300101203DEA0100FD
:100A600015E901002DE9F843064600270D4BDFF894
:100A7000389053F82140013153F82180A04502D825
:100A80003846BDE8F883204603F0FEFD054630B148
:100A90004A4600213046236809F07BFB2F4610347C
:100AA000ECE700BF48D9010042EA010010B5044656
:100AB00000211E4A09F06DFB02212046FFF7D2FFFC
:100AC000014618B920461A4A09F063FB0021204666
:100AD000184A09F05EFB03212046FFF7C3FF0146D9
:100AE00018B92046124A09F054FB00212046124A48
:100AF00009F04FFB00212046FFF7B4FF014618B96B
:100B000020460B4A09F045FB002120460B4A09F01C
:100B100040FB01212046FFF7A5FF014618B92046FA
:100B2000034A09F036FB002010BD00BF48EA01006F
:100B300056EA01005EEA01006CEA01007BEA01006E
:100B40007FB50A684B6904924A6803F26C7303929A
:100B50008A680292CA6801920A69002101320092F1
:100B6000024A09F016FB07B05DF804FBE0EA010059
:100B7000F7B5137806463A2B0F46154616D1541C86
:100B800023783A2B2ED1013400230A22204601A9D2
:100B900001930AF07EFA019A0346A242386010D00F
:100BA000107870B93C2B0ED9184A14E000230A22A1
:100BB000284601A901930AF06CFA019CB860AC4286
:100BC00003D16FF0150003B0F0BD23783A2BF8D1B4
:100BD000172805D90E4A0221304609F0DAFAF0E763
:100BE0000134CDE700230A22204601A901930AF02F
:100BF00050FA019A7860A242E3D013783A2BE0D100
:100C00003B2801D9034AE6E7541CBDE71FEB01006E
:100C100001EB01000FEB01002DE9F04304460D4606
:100C2000174691B0012002A902F084FF07A902A88B
:100C300002F09EFE032D60D14FF000097D680A226C
:100C4000284601A9CDF804900AF023FA019E8046B7
:100C5000B54218D032782D2A15D101360A223046F5
:100C600001A9CDF804900AF014FA019B9E420AD023
:100C70001A782D2A07D1451E0B2D0DD92B4A02219A
:100C8000204609F086FA204609F090FA6FF0150523
:100C9000284611B0BDE8F0835E1C0A22304601A947
:100CA000CDF804900AF0F5F9019B9E42EBD01B7839
:100CB000002BE8D1431E1E2B01D91D4ADFE7A8F205
:100CC0006C73CDE90B53BA680A90204607A9FFF769
:100CD0004FFF0028D7D107A808F0A2FB0B46024619
:100CE000CDE90223013308BFB0F1FF3F09D1022152
:100CF0002046104A09F04DFAC8E7022DC3D17A68A0
:100D0000E3E70023012002A90493FBF769FC0546F1
:100D100030B1034602212046074A09F03AFAB5E706
:100D2000204607A9FFF70CFFB2E700BF2FEB010039
:100D30003EEB01004BEB010074EB010010B50446E3
:100D40008168083101F0E2F9A1682046BDE8104051
:100D5000014A083101F07EB9B9EB010038B5002530
:100D60008368044683F838509D865D868368D3F88F
:100D70005832DB030BD5084B084A042109F05FFD0C
:100D8000A368D3F8582265F31042C3F858222046CE
:100D9000BDE8384001F016B8C7EB01003FEA01009A
:100DA00037B583680446D3F858220D46520608D555
:100DB000D3F85822C0686FF38612C3F8582209F09E
:100DC00065FEE368DB6863B99DB3A068383009F05D
:100DD00065F9A36878B303F1380103F59C700AF054
:100DE000EEF9A2682946E0680DF10603383209F0F1
:100DF00050FE58B9A06800F59C7138300AF0DFF950
:100E0000A068383009F04AF9ADF80600204609F02C
:100E100075FC0A4A0A49606909F046F9204600F063
:100E2000CFFEA368BDF8062020469A865A8600F0B9
:100E300089FE03B030BD83F83801D2E7E6EC01004B
:100E40003FEA01002DE9F04F0022044683689FB07D
:100E5000DE693833CDE90522039309F055FC2046BD
:100E600009F0DAFB18B9A449606909F01DF9A06816
:100E70001422002108300AF041FA204609F079FBDB
:100E8000A168E0684A8E383109F03AFE204609F040
:100E9000F7FF002E00F0F68033681193039B129346
:100EA000F3685BB33746A5680FCF08350FC53B68BD
:100EB000DDF814802B60B36823BB737CFE2B21D13B
:100EC000377C08F10103013F0593D6F804E0BEF139
:100ED000000F08D0B446F246BCE80F000CAD0FC5B9
:100EE000DCF800302B60059B0DF1480901330593B8
:100EF0004FF0000B5D46CDF808B04CE04FF0FF37E7
:100F00009846E2E74FF0FF37DFE70223039A4946AE
:100F100006A809F0C8F9D9F8042003460392069AF6
:100F20002AB96FF0070528461FB0BDE8F08F012AE7
:100F300006D128B10221714A204609F080FCF0E771
:100F4000059B002B42D06E49D9F800000AF069F9E0
:100F500040B9BAF1000F2BD16A4A0221204609F0AC
:100F60006EFCDEE76849D9F800000AF05AF900285B
:100F7000EFD0059B53B329462046D9F8002001F055
:100F800041FA022800F0CC8003281FD0059B0133D2
:100F9000059301230293DDE90532012A00F0C080A8
:100FA0000B2B76D90699022976D1584B584AC3E7BC
:100FB000A568CDF834A008350CAE0FCE0FC5336848
:100FC0002B602046FFF7BAFE0125ACE7BBF1000F0E
:100FD00006D13046D9F8001007AA09F04FFA0546A5
:100FE00009F10409013F002D3AD0029B4BB1EB6897
:100FF0003BB1204609F088FB204600F0A3FD454A9E
:10100000ABE7EB68ABB1AC46A668BCE80F000836AE
:101010000FC6DCF80030DDF814803360AB6843B9EC
:101020006B7CFE2B01BF2F7C08F1010307F1FF371A
:101030000593D5F804C0BCF1000F08D0AE46E246D7
:10104000BEE80F000CAE0FC6DEF8003033602E464F
:1010500017B9069B022B9ED1059B013305939AE796
:10106000059B63B9A368DB690BB1DB683BB92A4B0D
:10107000022100932046119B284A09F0E0FB4FF023
:10108000010BE5E7B2464FF0FF37B0460DF14409DA
:101090002EE7002F7FF439AF029BABB1204609F059
:1010A00013FFA26811A8D1690C23003918BF0121D0
:1010B000383200EB810105A809F0F5F8A368DB6977
:1010C00013B1059B013305930022059DA0681EAB5B
:1010D00003EB850343F8342C43692BBBBAF1000FB3
:1010E0003FF41FAFC36853453FF46BAFCDF834A056
:1010F00000F1080560E700BF15E901000BEC0100F5
:101100001FEC010029EC010022EC01008AEC010037
:1011100044EA010047EC010076EC010046EF0100D3
:10112000059B0B2BB8D93DE7037EA5EB0805B3B1B2
:101130004FF6FF71427EFF2A08BF0A469D4202D346
:1011400013449D420BD9836802212046164A09F0B8
:1011500076FB2046FFF7F2FD6FF01505E3E6D0F8C9
:10116000583200F53B7043F0800340F8943C08F09F
:1011700093FFA36811AA29465B6902EB8802204607
:1011800098470546A0684FF0FF324FF0FF3300F557
:101190003B7008F0A0FFA368D3F858226FF3C71282
:1011A000C3F85822BFE600BFAEEC01002DE9F04FB6
:1011B00004468368ABB003F51673D3E8EF2F42F013
:1011C0000802C3E8E12F0029F7D1A3681B79022B9D
:1011D00040F02B8300230B936068012203680DF11C
:1011E0002B011D690BABA8470B9B002B00F01D8347
:1011F0009DF92B209DF82B30002AEDDBA06841796A
:10120000012900F08E82022900F0A182002940F01D
:101210000A830D2BD0F858221AD00A2B18D061F36C
:101220000F22C0F85822092B55D03AD8002BD3D022
:10123000082B00F0DC81A3F120025E2AD0F85822AE
:1012400000F2E48142F040021946C0F85822F9E069
:1012500012F47F4F05D0D0F85822C2F307229342F0
:10126000E1D1D0F8582263F30F22C0F85822428E01
:101270009AB9D0F8583262F38613C0F85832E06851
:1012800009F004FCB349606908F00EFFA36802226C
:1012900020461A71FFF762FD9EE72046FFF7D2FD58
:1012A000F4E71B2B14D07F2BC5D1D0F858325F0741
:1012B00092D5D0F8583243F04003C0F85832D0F8F5
:1012C00058329E0600F19E81204609F0F9FA83E724
:1012D0000123437180E7D0F8583259077FF57CAF7E
:1012E000D0F8583243F04003C0F85832438EFF2BF9
:1012F0003FF472AF0025828E00F1380100F59C703A
:1013000009F0D1FFA2681DA9938E0DA8134483F89C
:10131000385102F59C720C2308F0C5FF0D990C2979
:101320003FF65AAFA0682AAB03EB810343F8345C65
:10133000838E034493F83730202B00F08482093BDE
:10134000042B40F28082012956D80023C6690C93F1
:101350000C9B2AAA02EB830353F834AC00255046B9
:1013600008F09CFEA84681462F4604953946304633
:1013700018AA00F099FB834600284BD1012D6AD1B1
:101380000C9B2AAA02EB830353F8340C08F086FE68
:10139000A268054641463046083200F085FB064605
:1013A000006808F07BFE854206D03168421B92B28D
:1013B0002046294409F082FAA3689A8E1A4492F8CA
:1013C0003820202A42D0093A042A3FD9D3F858229B
:1013D000D20736D5D3F8582220216FF30002C3F884
:1013E0005822204600F0BCFCA268D2F8583243F0E4
:1013F0000103C2F85832EFE60139002301930EAB26
:101400000093C0690CAB1DAA09F04FF806460028EE
:101410009ED1E1E64A465146DBF8000009F00DFF97
:1014200068B9DBF8000009F0F5FE049B834238BF81
:1014300003469BB2002D08BFB8460493013501371F
:1014400094E72021204600F08BFCC5E601212046D0
:1014500009F0F6F8C0E67FF6BFAE0C9B2AAA02EBB5
:10146000830353F834AC504608F018FEA368069086
:10147000A3F830B0DFF8E0B00595CDF80C80A26895
:1014800030460399083200F00FFB039B07460133F7
:101490000393BAF1000F52D13B68002B5ED1A268D2
:1014A0001386059B013B0593E9D12A49606908F041
:1014B000FBFD204600F086FC0C9B2AAA02EB83036E
:1014C00053F8340C08F0EAFD414613AA07463046AB
:1014D00000F0EAFA08F101098046A068D8F8001087
:1014E000FF2200F59C7009F074FED8F800A04FF6BA
:1014F000FF784946304618AA09F1010B00F0D4FAEA
:10150000002867D00022A368006803F59C7313F8D5
:1015100001CB815C614505D121B14FF6FF710132EC
:101520008A42F4D10FB1BA4207DB9045A8BF90467A
:10153000013D012D1FFA88F84CD0D946D9E7006843
:101540000028A9D05146069A09F077FE0028A3D0BA
:1015500095E700BF15E90100AFE401005846079385
:1015600008F09CFD049BA168C21892B258464F8DAA
:10157000099208F093FD079B0890184608F08EFD2D
:101580000899099A7F1AA2EB000997FBF2F2A0686A
:1015900092B2B0F830C0079BBCFBF2F102FB11C263
:1015A0000CF1010E92B21FFA89F9A0F830E05AB995
:1015B000009307215B462046A54A09F040F94946B9
:1015C000204600F0AFFA6CE707212046A14A09F057
:1015D00036F9F4E7B8F1000F3FF4FEADA8EB0702CF
:1015E000204692B20AEB070109F068F9F4E5D0F859
:1015F00058325B077FF5F0ADD0F8583243F0400326
:10160000C0F85832204609F076F9E5E555077FF530
:10161000E3AD013B162B3FF6DFAD01A252F823F0FC
:10162000ED1701007D16010085160100C9120100A9
:10163000E1170100AB160100D9110100D911010019
:10164000D9110100D9110100B3160100BB16010028
:10165000D9110100D7160100D9110100E1160100CE
:10166000D9110100D9110100D9110100D9110100CE
:10167000E5160100D911010011170100204609F0FB
:101680004AF8A9E5204609F03FF8204608F0C4FFD3
:1016900018B97149606908F007FDA368D3F85822AA
:1016A00042F04002C3F85822F1E5204609F03BF829
:1016B00092E5204609F040F88EE56069674A654981
:1016C00008F0F2FC6069664A624908F0EDFC2046C9
:1016D00000F078FB80E500212046FFF761FB7BE509
:1016E0000121F9E7204609F009F80022A3685949C9
:1016F00083F838209A865A86A268D2F8583243F086
:101700004003C2F858326069564A08F0CDFC63E5E0
:10171000204600F0A7FAA268D2F8583243F04003FE
:1017200067E65B2B01D10223D3E5D0F8582250079E
:1017300009D5622B05D14FF0FF31204608F0A4FFF8
:1017400001E0662BF9D00022A3685A7144E500221B
:101750004271A268D2F8581249077FF53DAD313B7E
:101760001B2B3FF639AD01A151F823F0E917010019
:10177000F517010015180100DD170100D91101004E
:10178000D9110100D9110100D9110100D9110100AD
:10179000D9110100D9110100D9110100D91101009D
:1017A000D9110100D9110100D9110100E116010080
:1017B000D7160100AB1601007D160100D9110100FA
:1017C000E1170100D9110100ED170100D911010045
:1017D000D9110100D9110100F91701000323537138
:1017E000204608F091FFF7E403235371204608F0E8
:1017F00085FFF1E403235371A268D2F85832D2F87E
:10180000581203F0010383F0010363F30001C2F8EF
:101810005812E1E403235371A368D3F858325B07ED
:101820007FF5DAAC50E5002353E5A36803F51673A2
:10183000D3E8EF2F22F00802C3E8E12F0029F7D107
:101840002BB0BDE8F08F00293FF47FADD5E500BF98
:10185000C9EC01003FEA010015E90100EAEC0100D2
:10186000EEEC0100E6EC01002DE9F041044688B001
:101870000F464FF44172002180681E4609F03EFD7C
:10188000A3682268E0681A6009F0A6F9A06800F56C
:101890003B7009F031FF4FF427784FF41775A068BB
:1018A00028440AF0A0FAA06800224319012140440C
:1018B00010350AF07BFAB5F5277F08F11408EED150
:1018C0000022A3691A60A268D2F85832106843F067
:1018D0001003C2F85832D2F8583243F00403C2F869
:1018E0005832D2F8583243F02003C2F858321B4B1A
:1018F000936208F0D3FBA368394683F82C00A268F2
:10190000D2F8583243F00203C2F858326068144AE1
:1019100003681D682346A8470546D0B90122A3687D
:101920001A71D4E90A0100220023CDE906230E230F
:1019300003930E9B4FF44042CDE901630495094B9C
:10194000009403F021FFA368616AC3F8000303F069
:1019500071FE284608B0BDE8F08100BF18005000B5
:10196000C3A00100B919010010B5044680680379CD
:10197000012B1CD14FF0FF324FF0FF3300F53B70CD
:1019800008F0A9FB0021204600F022F9094960690E
:1019900008F08AFB0222A36820461A71FFF7DEF9DD
:1019A000A06800F53B7008F077FB002010BD6FF0D9
:1019B0002200FBE714E901002DE9F04104464068EC
:1019C0000E46036800219B681546984700284CD1B5
:1019D00026B12A462146E06909F0B7F92046FFF70B
:1019E000C3FF002841D1DFF89480214F214EA06829
:1019F00000F527704FF0FF324FF0FF33032104F062
:101A000069F90546A0684FF0FF324FF0FF3300F54B
:101A10003B7075B108F05FFB20462B460221164A49
:101A200008F00DFFA068BDE8F04100F53B7008F03C
:101A300033BB08F050FB606803685B6903B19847EB
:101A400042462046022108F0F7FA3A462046002195
:101A500008F0F2FA20463246012108F0EDFAA068BB
:101A600000F53B7008F018FBC1E7BDE8F08100BF4E
:101A7000AD110100DBA00100CFEC010063A001006B
:101A800010B5044613460A4601460648FDF722FDF6
:101A900023691B7923B12046BDE8104008F09BBBA9
:101AA00010BD00BFEFA1010010B50B46144650B9A0
:101AB0000E490F4A521AB3EBD20F0FD201EBC301FA
:101AC0004C68204610BD816841B14A68097839B137
