:100000008028002029240000618600008924000047
:10001000892400008924000089240000892400002C
:1000200000000000000000000000000009220000A5
:100030008924000000000000B1210000051A000022
:10004000E9230000E9230000E9230000E923000080
:10005000E9230000E9230000E9230000E923000070
:10006000E9230000E9230000E9230000E923000060
:10007000E9230000E9230000E9230000E923000050
:10008000E9230000E9230000E9230000E923000040
:10009000E9230000E9230000E9230000E923000030
:1000A000E9230000E9230000E9230000E923000020
:1000B000E9230000E9230000E9230000E923000010
:1000C000E9230000E9230000E9230000E923000000
:1000D000E9230000E9230000E9230000E9230000F0
:1000E000E9230000E9230000E9230000E9230000E0
:1000F000E9230000E9230000E9230000E9230000D0
:10010000E9230000E9230000E9230000E9230000BF
:10011000E9230000E9230000E9230000E9230000AF
:10012000E9230000E9230000E9230000E92300009F
:10013000E9230000E9230000E9230000E92300008F
:10014000E9230000E9230000E9230000E92300007F
:10015000E923000000000000000000000000000093
:10016000000000000000000000000000000000008F
:10017000000000000000000000000000000000007F
:10018000000000000000000000000000000000006F
:10019000000000000000000000000000000000005F
:1001A000000000000000000000000000000000004F
:1001B000000000000000000000000000000000003F
:1001C000000000000000000000000000000000002F
:1001D000000000000000000000000000000000001F
:1001E000000000000000000000000000000000000F
:1001F00000000000000000000000000000000000FF
:10020000DEE61E284CBBCE8F023500003C0000000D
:1002100000C000000100000000000000000000001D
:10022000FFFF02910000000000000000000000003D
:0C023000000000000000000000000000C2
:10023C0053B94AB9002908BF00281CBF4FF0FF3141
:10024C004FF0FF3000F070B9ADF1080C6DE904CE41
:10025C0000F006F8DDF804E0DDE9022304B0704795
:10026C002DE9F047089E0D4604468A46002B7FD1A7
:10027C008A42174641D9B2FA82F24AB1C2F1200140
:10028C0005FA02F39740944020FA01F141EA030A7F
:10029C004FEA17484FEA144C1FFA87F9BAFBF8FEDD
:1002AC0008FB1EA30EFB09F14CEA0343994206D945
:1002BC00FB1802D2994200F224810EF1FF3E591A2A
:1002CC00A3B2B1FBF8F008FB101100FB09F943EAEB
:1002DC000144A14505D93C1902D2A14500F20E8179
:1002EC000138A4EB090440EA0E4000211EB1D440B1
:1002FC000023C6E90043BDE8F08702B9FFDEB2FA7D
:10030C0082F2002A4FD1CB1B4FEA174E1FFA87F807
:10031C000121250CB3FBFEFC0EFB1C302B4608FB0D
:10032C000CF945EA0045A9450AD97D192CBF0123D2
:10033C000023A94502D9002B00F0D9800CF1FF3C19
:10034C00A5EB0905A3B2B5FBFEF00EFB105508FB9F
:10035C0000F843EA0544A04505D93C1902D2A04552
:10036C0000F2C9800138A4EB080440EA0C40BDE758
:10037C008B4208D9002E00F0B1800021C6E900059F
:10038C000846BDE8F087B3FA83F1002946D1AB42A9
:10039C00C0F0A780824240F2A4800846002EAAD06A
:1003AC00C6E9004AA7E7C2F12000974001FA02F320
:1003BC004FEA174EC14024FA00F51FFA87F8944013
:1003CC001D43B1FBFEF02B0C0EFB101100FB08FCC7
:1003DC0043EA01439C4509D9FB182CBF012100219C
:1003EC009C4502D9002900F095800138A3EB0C0341
:1003FC00ADB2B3FBFEF10EFB113301FB08FC45EA79
:10040C000345AC4505D97D1902D2AC4500F2898073
:10041C000139A5EB0C0341EA00417AE7C1F1200454
:10042C008B4002FA01F705FA01FCE24020FA04F8CD
:10043C00E54000FA01FE134348EA0C024FEA134868
:10044C004FEA124C1FFA83F9B5FBF8FA08FB1A5560
:10045C000AFB09F04CEA054C60450AD913EB0C0C6D
:10046C002CBF01250025604501D9002D55D00AF17E
:10047C00FF3AACEB000C92B2BCFBF8F008FB10CCD2
:10048C0000FB09F942EA0C4CE14505D913EB0C0CC5
:10049C0001D2E1453BD8013840EA0A40ACEB090CEB
:1004AC00A0FB0789CC4545464A4602D306D1C64532
:1004BC0004D20138B8EB070569EB03022EB3BEEB8F
:1004CC0005036CEB020C23FA01F20CFA04F42CFA7F
:1004DC0001F300211443C6E900430CE731463046D2
:1004EC0009E7841A65EB030301209A4656E7ACF141
:1004FC00020C3D4424E702383C4434E702383C44C7
:10050C00EFE6AEF1020E3B44D9E63146F3E6023893
:10051C009C44C1E702383B4468E7AAF1020A9C44B8
:10052C00A7E702393D4474E7704700BF2DE9E04F5F
:10053C002746A046A146A246A346A446A2B02DEC4F
:10054C00000A84F3008825462646A4473DEC000AA1
:10055C0022B0BDE8E08F00002DE9F043B1B00C46AD
:10056C0015461E4602F15F01531E18AA13F8010F1F
:10057C008B4202F8010BF9D14FF060080027731E73
:10058C0008FB03F805F16009C144B7420FDA68466D
:10059C0018A908F084F8A8B9104B03EB471303F122
:1005AC00200253F8041B934244F8041BF9D131B0D8
:1005BC00BDE8F0437046714672467346F4468EF3BE
:1005CC00008C744705EB080318AA13F8011B4B4564
:1005DC0002F8011BF9D10137D7E700BF3C17002007
:1005EC0038B54468054604F00304032C816002D03E
:1005FC002CB1002000E0006800236B6038BD452260
:10060C000449054807F08AFE4521024807F052FFCD
:10061C00EFE700BFAB910000CE9100000B680133F7
:10062C000B60014B1B68184700000020014B186041
:10063C00704700BF0000002007B50B4600210246A2
:10064C000191034801A900F06DFA03B05DF804FBB9
:10065C00290600002DE9F74FB0F81CA004461AF04B
:10066C00080F93461CD001290CBF4AF0100A4AF01F
:10067C00200AA0F81CA004F1140003F0D3FB40B92D
:10068C00BA49BB48AC2207F049FEAC21B74807F089
:10069C0011FF8BF31188BFF36F8F03B0BDE8F08FA0
:1006AC00B44FDFF8CC820AF0070A022906D12046A3
:1006BC0007F041FE0028DED0012865D1D4F818904F
:1006CC00A38BB9F1000F19DA0026256823F0070374
:1006DC00C4E9006643F00103A383A38B03F0070274
:1006EC005245009203D0A268002A40F0F18015B95F
:1006FC00002E00F02B814FF0000AEBE003F0070214
:10070C00511F012922D8002123F00703062A25684E
:10071C009BB2C4E900110CD18D422A4638BF0A465F
:10072C002AB1E18B12680131E183002AF8D143F040
:10073C0002032046A38307F0FEFD06460028CCD01A
:10074C00A38B43F02003A3830026C6E7042A0DD114
:10075C0023F007039AB22046A28307F0ECFD05466E
:10076C0080B142F020020025A283EDE740F21B127B
:10077C003946404607F0D2FD40F21B11384607F0CF
:10078C0099FE00252E46A8E7032831D1BAF1000FB7
:10079C000AD0394640464FF4AB7207F0BFFD4FF418
:1007AC00AB71384607F086FE236853B9394640468C
:1007BC0040F2571207F0B2FD40F25711384607F0DD
:1007CC0079FE23691E6856B9394640464FF4AD721E
:1007DC0007F0A4FD4FF4AD71384607F06BFEA38B08
:1007EC0023F0070343F006030025A383A94674E70F
:1007FC0004282ED1BAF1020F0AD03946404640F2F5
:10080C005D1207F08BFD40F25D11384607F052FE89
:10081C00E38B53B1394640464FF4AF7207F07EFD7F
:10082C004FF4AF71384607F045FE23695E6856B940
:10083C003946404640F2611207F070FD40F26111FA
:10084C00384607F037FEA38B23F0070343F004036D
:10085C00CAE705282ED1BAF1010F0AD03946404615
:10086C004FF4B27207F05AFD4FF4B271384607F0EC
:10087C0021FE236853B93946404640F2651207F011
:10088C004DFD40F26511384607F014FE23699E6851
:10089C0056B9394640464FF4B47207F03FFD4FF459
:1008AC00B471384607F006FEA38B23F0070343F020
:1008BC00050399E7002540F26B123946404607F0D4
:1008CC002DFD40F26B11384607F0F4FD2E468DE7F6
:1008DC004FF0010A43F00803A38304F114031846F4
:1008EC00019303F09FFA40B940462049AC2207F02F
:1008FC0015FDAC211D4807F0DDFD8BF31188BFF30E
:10090C006F8FBAF1000F39D1002D4CD116B12046A2
:10091C001949B0474FF02003EFF3118B83F3118883
:10092C00BFF36F8F019803F06FFA40B940460F493F
:10093C00812207F0F3FC81210C4807F0BBFD0198E4
:10094C0003F07EFAA38B23F00803A383A38BDA06B0
:10095C0031D5012123F01003A383B4F81CA00AF0B5
:10096C00070A00297FF4A1AE85E600BF08920000BB
:10097C00CE910000E6910000D5090000A168002985
:10098C00C2D00B68002B38BF00239A4620464B463A
:10099C00D1F804B0009AD847BAF1000FB4D0514640
:1009AC00DAF80030EEE729464B462046009A2D68CF
:1009BC0007F0DDFCA8E713F020011EBF23F0200395
:1009CC000221A383C9E700BFF8B504460D4600F128
:1009DC0014064FF02003EFF3118783F31188BFF354
:1009EC006F8F304603F010FA40B90A490A48812249
:1009FC0007F094FC8121074807F05CFD304603F0BA
:100A0C001FFA3A462046A5610121BDE8F840FFF7E0
:100A1C0021BE00BF08920000CE9100002DE9F047E6
:100A2C0004460F4607F0B9FC051E54DB04F114090B
:100A3C004FF02003EFF3118A83F31188BFF36F8F0C
:100A4C00484603F0E1F940B933493448812207F0B4
:100A5C0065FC8121304807F02DFD484603F0F0F984
:100A6C004FF6FF71E38BA28B8B4202F007064AD044
:100A7C00022E1FD135464FF001080133E38348465F
:100A8C0003F0D0F940B924492448AC2207F046FCC5
:100A9C00AC21214807F00EFD8AF31188BFF36F8F4C
:100AAC00B8F1000F17D0002332463946204607F024
:100ABC005EFC10E0930701D0062E0FD100233B60A3
:100ACC006368EBB9C4E900773546F6B952460221A2
:100ADC002046FFF7BFFD2846BDE8F087052E17D04E
:100AEC00012E0AD00E490D4840F2C91207F016FC2F
:100AFC0040F2C9110A4807F0DDFC6FF0040504E070
:100B0C001F606760E0E76FF00A054FF00008B6E77A
:100B1C006FF08505F9E700BF08920000CE91000048
:100B2C00E69100002DE9F04F8B4692461C460025BD
:100B3C0091B002909AF8000008B928465EE3252887
:100B4C000AF1010707D05946029B98470028C0F2CA
:100B5C005583013510E2182200210AA807F0FDFD8B
:100B6C009AF80130252B78D00022944616469646EA
:100B7C001046394617F8013B2B2B00F09D8000F2F4
:100B8C009480202B00F09B80232B00F09A8028B1BE
:100B9C009DF8300040F004008DF83000BEF1000FDD
:100BAC0005D09DF8300040F008008DF830002EB1D3
:100BBC009DF8300040F010008DF83000BCF1000FB3
:100BCC0005D09DF8300040F020008DF830002AB19F
:100BDC009DF8302042F040028DF830209DF83020F6
:100BEC0002F04400442803D16FF386128DF83020B4
:100BFC009DF830202A2B42F080028DF830207BD1DA
:100C0C009DF831204B1C42F001028DF831201A78EE
:100C1C002E2A0CBF012100219DF8312061F34102E5
:100C2C008DF8312074D15A782A2A6AD000210A26EC
:100C3C000133184610F8012BA2F13007092F40F2AE
:100C4C008E809DF830200E91C2F3400040EAD171A5
:100C5C0061F341028DF830205AE00AF102078DF859
:100C6C0033309DF83130D90740F1498154F8049B59
:100C7C00B9F1000F07DA9DF83020C9F1000942F0F4
:100C8C0004028DF830205A0740F1428154F8048B4D
:100C9C00B8F1000F80F241819DF831306FF34103C0
:100CAC008DF831304FF0FF3837E12D2B0CD0302B35
:100CBC007FF46DAF01225CE74FF0010E59E701267E
:100CCC0057E74FF0010C54E7012052E733460CFB79
:100CDC000202303A1E4616F8010BA0F13007092F1C
:100CEC00F4D9994293D09DF830100D92D20F62F343
:100CFC0041018DF830108AE70B4600224FF00A0CA8
:100D0C00E8E79DF83120023342F004028DF83120DF
:100D1C001F4617F8012B6C2A41D025D8682A2BD0F6
:100D2C006A2A46D04C2A4CD01F4617F8012B9DF846
:100D3C003130782A8DF8332000F2D980572A4DD8DB
:100D4C00412A03D0453A022A00F2D18004229DF8B0
:100D5C00323062F302038DF8323001239EE006FB41
:100D6C0001210346303964E7742A26D07A2ADBD174
:100D7C0006229DF831300DE05A78682A9DF8312012
:100D8C0006D1012161F3C6028DF831209F1CCCE7FE
:100D9C001346022262F3C6038DF83130C5E75A7848
:100DAC006C2A9DF8312001D10421EBE71346032274
:100DBC00F0E705229DF83130ECE707229DF8313041
:100DCC00E8E7BDF8303023F4F04323F0020343F49A
:100DDC00804343F00203ADF83030A6E7A2F158018E
:100DEC00202900F2848001A050F821F0BD0E0000F3
:100DFC00FB0E0000FB0E0000FB0E0000FB0E0000C3
:100E0C00FB0E0000FB0E0000FB0E0000FB0E0000B2
:100E1C00590D0000FB0E0000BD0E00007D0E000001
:100E2C00590D0000590D0000590D0000FB0E00007B
:100E3C007D0E0000FB0E0000FB0E0000FB0E000000
:100E4C00FB0E0000C50E0000BD0E0000E10E000000
:100E5C00FB0E0000FB0E0000E10E0000FB0E00007C
:100E6C00BD0E0000FB0E0000FB0E0000BD0E0000CE
:100E7C0001209DF8321003F0780360F30201402B3F
:100E8C008DF8321002BF9DF8301041F001018DF841
:100E9C003010632A31D1003B18BF01239DF830205C
:100EAC00C2F340010B4363F341028DF83020D8E6C6
:100EBC0002209DF83210DEE703219DF8322003F06A
:100ECC007803A3F1400061F3020243428DF8322013
:100EDC004341E3E703219DF8322013F0780F61F3CF
:100EEC00020214BF012300238DF83220D6E79DF8AF
:100EFC00303043F001038DF830300023CEE79DF9FC
:100F0C003020002AACBF4FF0FF39DDF83490BAE640
:100F1C009B077FF5C7AEDDF838800023CDE90D3394
:100F2C009DF832309DF8312003F00703012BC2F3FA
:100F3C00C30236D1D31E042B20D8DFE803F00307FD
:100F4C00071F1F0054F8040BC11704E0073424F0EA
:100F5C000704F4E80201CDE90A019DF8303013F0E2
:100F6C00030654D03B4652465946029807F08CFA79
:100F7C000028C0F243810544BA46DBE554F8040B63
:100F8C00012A4FEAE071CDE90A0105D19DF828301C
:100F9C000A9300230B93E0E7022ADED1BDF9280067
:100FAC00D2E7022B23D1D31E042B13D8DFE803F096
:100FBC00030A0A12120000212068231D0A900B91CB
:100FCC001C46CAE7073424F00703F3E80201CDE915
:100FDC000A01F5E754F8043B012A0A934FF0000389
:100FEC000B93D3D0022AB8D1BDF82830D0E7042B0C
:100FFC0007D1073424F00704F4E80201CDE90A0113
:10100C00ABE7032B04BF54F8043B0A93A5E79DF808
:10101C0033007828B0D8622822D825283FF493AD25
:10102C005828A9D1DDE90A010DF1260300930CAA79
:10103C0004AB07F0DEF98246B8F1000F0DF1260083
:10104C000CDB9DF83020A0EB0A036FF38612984559
:10105C008DF8302002D9A8EB03030D9380463DE0B8
:10106C006338152888D801A151F820F0F910000038
:10107C005D110000850F0000850F0000850F00003A
:10108C00850F00005D110000850F0000850F00002A
:10109C00850F0000850F0000BB11000089110000B6
:1010AC008D110000850F0000850F0000D11000008D
:1010BC00850F000089110000850F0000850F0000CE
:1010CC0089110000B8F1000FDDF828A00ADB4146B9
:1010DC00504607F0DBFA00260AEB0008BAF1000FC5
:1010EC000CD149E7504607F0CAFAF4E700260A9BF0
:1010FC000DF111088DF810300DF1100AA8EB0A0350
:10110C0006B101339DF83220D0066BD5023352065E
:10111C000D9948BF0E9A0B4448BF9B18B9F1000FAC
:10112C0079DD9DF83020A9EB0309C2F3800303930A
:10113C00530770D4500664D546B159463046029BCD
:10114C00984700285ADB039B01351E46302359E093
:10115C001E0711D413F0100618BF2026DDE90A2350
:10116C00002A73F10001BFF65DAF524263EB4303FB
:10117C002D26CDE90A2355E72B26EFE7002651E76C
:10118C000A9848B30DF126030093002104AB0CAA76
:10119C0007F02FF9BDF83230824603F0EF0343F429
:1011AC00F04343F010030026ADF8323044E70A9BBD
:1011BC00072A3FF6E1AEDFE802F00D04060D080841
:1011CC000D0D1D70D8E61D80D6E62846E917C3E93B
:1011DC000001D1E61D60CFE6DFF8C4800646A8F119
:1011EC00050A8BE7110748BF013390E718460393B4
:1011FC005946029B98470028039B04DA11B0BDE8BE
:10120C00F08F20234D444A46002AA5EB090109F131
:10121C00FF39EBDC0D4636B159463046029B9847F8
:10122C000028EBDB01359DF83230D90601D41A07C2
:10123C0006D559463020029B98470028DEDB013545
:10124C009DF83230DB0607D559469DF83300029BDA
:10125C0098470028D2DB01350D9E2E44731B002BC2
:10126C0016DC434652465946029807F00DF9002801
:10127C00C4DB0544A944A9EB0503002B7FF77CAE26
:10128C0059462020029B98470028B7DB0135F2E72E
:10129C0059463020029B98470028AFDB0135DDE72B
:1012AC0033920000044608B54FF02002EFF311838F
:1012BC0082F31188BFF36F8F07F08DF9204601F090
:1012CC0057FB034807F02AF801F022F8FCE700BFAF
:1012DC0034920000026810B55309044629D0012B42
:1012EC004FF6FF7318BF002302F01F02D340DB0739
:1012FC000AD4124912484FF4057207F00FF84FF454
:10130C0005710E4807F0D6F8236803F01F025B093D
:10131C0022600CD0012B0FD00849094840F2192249
:10132C0006F0FCFF40F21921044807F0C3F8054809
:10133C0010BD4FF0FF33D7E70348F9E75D9200008B
:10134C00CE9100000025845000288450F7B54FF052
:10135C002003EFF3118783F31188BFF36F8F012400
:10136C00194B0026C3F800450223184D01A8C5F8F7
:10137C00D0360196FFF7AEFF019B00EB8300D0F84F
:10138C00003223F0E04343F04053C0F8003201A890
:10139C000194FFF79FFF019B00EB8300D0F8003214
:1013AC0023F0E04343F04053C0F80032C5F8044743
:1013BC00C5F80449C5F8004B87F31188BFF36F8F4C
:1013CC00304603B0F0BD00BF00100050004000508C
:1013DC0048B1054B1A68054BB2FBF3F2044B504372
:1013EC0043F00103184770474000002040420F00B3
:1013FC00B08D000084B004AB03E907009DF8043005
:10140C00062B07D10122044BC3F80025BFF34F8FE5
:10141C0020BFFDE704B0704700400050F8B505460A
:10142C004FF02003EFF3118683F31188BFF36F8F16
:10143C00194802F0E9FC40B918491948812206F014
:10144C006DFF8121154807F035F8134802F0F8FCC0
:10145C00144B1C68002C38BF00245CB1124FD4E92B
:10146C000132002D08BF13460BB138789847246819
:10147C00002CF4D1084802F0D5FC40B907490848C3
:10148C00AC2206F04BFFAC21044807F013F886F3AE
:10149C001188BFF36F8FF8BD78020020089200000E
:1014AC00CE9100007C02002084020020084B10B575
:1014BC001C685CB901221A60064B93E8070007F020
:1014CC0003F82046BDE81040FFF7A8BF10BD00BFD1
:1014DC000400002084020020F0B585B06E461D4C3F
:1014EC0001460546304607F007F896E8070084E801
:1014FC000700207860B30020174B18606B1C19D0C4
:10150C00914208D215491648BD2206F007FFBD21AD
:10151C00124806F0CFFF4FF400460021A76811488F
:10152C000023E6FB0701104AFEF782FE0121281A70
:10153C0003F0AAFF02F050FF0120FFF76FFF94E8C1
:10154C000700FFF757FFFFF7B1FF03F02DF92078E5
:10155C0005B0F0BD8402002004000020949200002D
:10156C00CE9100003F420F0040420F0010B50748DB
:10157C0002F054F9064C074B1860204601F0BEFCF3
:10158C002046FFF753F8002010BD00BFBF920000AB
:10159C00A5150000900200200A2838B50446074D16
:1015AC0004D1286883680D215B6898472868836894
:1015BC00E1B25B689847204638BD00BF900200201E
:1015CC002DE9F0410E4C0746051BC5F347130C25BE
:1015DC005D4305F188000E462044402106F091FF42
:1015EC00011E08DB074B2C44C4E92036064B5B5923
:1015FC00BDE8F041184738463346BDE8F04118477E
:10160C00A802002071850000CC8D000038B5CCB24A
:10161C00032C054608D9094909487E2206F07EFEAE
:10162C007E21064806F046FF0C212B6904FB013491
:10163C00D4F8880000F0070038BD00BFC692000047
:10164C00CE910000F8B5CCB2032C054616460769BE
:10165C000AD91949194840F2531206F05FFE40F2BC
:10166C005311154806F026FF4FF02003EFF31182BB
:10167C0083F31188BFF36F8F0C2303FB0471D1F834
:10168C00881011F0C00101D08E4212D1012100202E
:10169C0003FB0473C3F8881082F31188BFF36F8FB8
:1016AC0030B90C23696803FB041463689847002065
:1016BC00F8BD4FF0FF30EFE7C6920000CE9100006E
:1016CC0070B50D4606490446411A49114022054899
:1016DC00FFF7B8FF2B4601462046BDE8704018477F
:1016EC00A8020020BC0000202DE9F84300220121B3
:1016FC000646052000F0B0FD052000F08FFD1148D6
:10170C0001F0C0FE104B984219D101F0DBFE002411
:10171C004FF00C080127DFF834903569494605EB8A
:10172C00441006F049FE002807DB08FB0455013481
:10173C00042CC5F88870F0D10020BDE8F8836FF058
:10174C000400FAE7951700000000AD0BFC8D0000BB
:10175C0001460C2300224B43094870B5C41888334A
:10176C00D4E920561844C4F8802006F0E8FE2DB1C8
:10177C0032462B46BDE870400248184770BD00BF8A
:10178C00A8020020BC00002008B5052821D8DFE8FD
:10179C0000F0031120130F0D134BD3F8880010F039
:1017AC0007001FD1BDE80840FFF7D2BF0220F9E7C0
:1017BC000320F7E70120F5E70C4940F266220C48BC
:1017CC0006F0ACFD40F26621BDE80840074806F083
:1017DC0071BE064940F26A22054806F09FFD40F2B0
:1017EC006A21F1E708BD00BFA8020020C6920000E4
:1017FC00CE91000008B54FF02003EFF3118183F375
:10180C001188BFF36F8F124A136843F0020013F074
:10181C00010310600CD04FF05022D2F80C34D2F8E7
:10182C000C2413F0010303D00A4806F088FE0123B0
:10183C0081F31188BFF36F8F23B1BDE808400020FE
:10184C00FFF786BF0120BDE8084001F05DBE00BF78
:10185C005803002030030020074BD3E8EF2F22F071
:10186C000201C3E8E01F0028F7D1D30702D40120FE
:10187C0001F0C0BE704700BF580300201FB5002206
:10188C000123CDE902236B46084ACDF800D0CDF8F0
:10189C0004D006F085FE002805DB4FF480420023BF
:1018AC00684602F08FFC05B05DF804FBA7850000CC
:1018BC002DE9F843012205464649D1E8EF3FC1E83E
:1018CC00E02F0028F9D19BB9434944484B60CB60C9
:1018DC008A60FFF7A3F800280ADA4149414840F230
:1018EC00262206F01BFD40F226213D4806F0E2FDC3
:1018FC00ADB36B1E012B59D8012D07D14FF05023DE
:10190C00D3F81C3403F00303022B28D007F087F81C
:10191C00044618B9344B1B78002B54D14FF02003DC
:10192C00EFF3118683F31188BFF36F8F01242F4FD0
:10193C00DFF8BC80DFF8BC904FF05022D2F818349E
:10194C00D2F81824D2030CD503F00303022B01D0D8
:10195C00012D06D124B386F31188BFF36F8FBDE838
:10196C00F883C4B1304600F0E1FC4FF05022D2F8BD
:10197C001835DBB2012BDFD139680029DCD000210E
:10198C00396039680221C2F818152022C8F8802164
:10199C00C9F80030D0E70021212003F015FBE4E763
:1019AC004FF050230222C3F80423D8E70C490D480A
:1019BC004FF40E7206F0B2FCBDE8F8434FF40E7112
:1019CC00074806F077BD4FF0502302220646C3F8B5
:1019DC000823ACE75C03002098020020C80200201A
:1019EC00C6920000CE9100007D18002004510050DA
:1019FC0000E100E00850005010B5064C06482146A6
:101A0C00172206F08BFC2046BDE81040172106F08B
:101A1C0051BD00BF32930000CE910000044A136800
:101A2C00C81A20F07F400344136003F06BBD00BF65
:101A3C00700300202DE9F0474FF480374FF0000978
:101A4C00860000F1500406F15026A40006F58036FD
:101A5C00A4B204F15024D6F84035DFF86C8021F0A4
:101A6C007F4504F580348740D8F804A5A3EB0A031E
:101A7C0023F07F432AF07F42012BC6F8402502D188
:101A8C00132007F006F80AF10202AB1A23F07F4389
:101A9C00B3F5000F88BF1546C4F80090236825F0F5
:101AAC007F43C8F84473C6F84035D8F804359A45D6
:101ABC0006D0EB1A023B23F07F43B3F5000F01D89D
:101ACC00BDE8F0872B46CFE700500150F8B5002455
:101ADC0027460F4E0F4B104A18461D6804B1F8BD2F
:101AEC00D2F80413C903FAD531680029F7D0346051
:101AFC0031684FF48031C2F848130124D2F84015F4
:101B0C0025B100205A681F60A847E3E70560E6E7A7
:101B1C0040510150640300200050015038B500249E
:101B2C004FF480334FF400120D4D0121C5F80845D8
:101B3C00C5F804330B4B1520C3F88021224600F066
:101B4C008BFB152000F06AFB0123074A022013606F
:101B5C00064A2B601360FFF7ABFE204638BD00BF72
:101B6C000050015000E100E0085001506C030020CF
:101B7C00134BB0F1FF3F08BF1846013800281CDD9D
:101B8C009842A8BF18460F4BD3F804250E4B196882
:101B9C00521A12F4000F18BF002022F07F430133B9
:101BAC000A4A03440A48106000205060044A9342D9
:101BBC0094BFC9188918FFF73DBF0020E3E700BFA9
:101BCC00FFFF7F00005001507003002064030020D1
:101BDC00291A0000044BD3F80405044B1B68C01AE7
:101BEC0020F07F40704700BF005001507003002070
:101BFC0000280DDB0122430900F01F0002FA00F05F
:101C0C00044A203342F82300BFF34F8FBFF36F8F8A
:101C1C00704700BF00E100E0F7B500281C4614BF78
:101C2C004FF400534FF480438A4215463FD803B01B
:101C3C00F0BD3A46002837D002F5E07746F8274049
:101C4C00571CBD42F5D15D431A484B43009506F035
:101C5C0065FB194B14F0100F1849194808BF1946A9
:101C6C0006F05CFB14F0040F14BF72212D211548F3
:101C7C0006F054FB14F0020F14BF77212D211148EC
:101C8C0006F04CFB14F0010F0CBF2D2178210D48F0
:101C9C0006F044FB6C210B4806F040FB0A4803B0ED
:101CAC00BDE8F04006F03ABB02F5C077C6E70A463D
:101CBC00064EBFE783930000779300006E930000FD
:101CCC00559500009D930000B69F00000030005019
:101CDC0030B54FF4803485B04FF480312548264D13
:101CEC0006F01CFB2168254806F018FB29682448DF
:101CFC0006F014FB10220021684606F02EFD236826
:101D0C0068460093029400F099FE012000F0C6FE94
:101D1C00002000F0AFFE002000F0D4FE01210020D6
:101D2C0000F0EEFE00F0E2FE16482C6806F0F6FA23
:101D3C000820FFF75DFF144A24F00104D2F8203884
:101D4C00002B07DA03F00303023B012B9CBF0F4B64
:101D5C00C2F820380121082006F045FCBFF34F8F54
:101D6C00BFF36F8F64086400204621462246234649
:101D7C00FEF7DCFBA093000004000100B793000009
:101D8C00CC930000EA93000000300050000100806A
:101D9C002DE9F8435F4806F0C1FA002140F2171311
:101DAC0008460422FFF738FF5B4D40F20713402230
:101DBC0004210020FFF730FF584806F0AFFAC5F3B6
:101DCC000D04574BC4F580449C4208D255495648E3
:101DDC00822206F0A3FA8221524806F06BFB534E86
:101DEC00C4F34314D6F80025C5F38535D2050AD5BE
:101DFC004F494D484FF4BD7206F090FA4FF4BD7147
:101E0C004B4806F057FBD6F80435DB050AD5484994
:101E1C00454840F27B1206F081FA40F27B114448AF
:101E2C0006F048FB414B4348C3F80055C3F8044542
:101E3C00D3F80015D3F80425520106F06FFA374891
:101E4C0006F06CFA00F08CF8014610B13A4806F036
:101E5C0065FA0024394806F061FA40F2171304229F
:101E6C0000210120FFF7D8FE304D40F2071340222D
:101E7C0004210120FFF7D0FE284806F04FFAC5F8E0
:101E8C0080442F4806F04AFA2E4EC5F8C0442E4F17
:101E9C00C5F8C844DFF8C4802C4D95F80590214650
:101EAC00B9F1000F14BF33463B4640462A6806F092
:101EBC0035FAB9F1000F0CD12548013406F02EFA91
:101ECC002D2C05F10805E8D11448BDE8F84306F0BF
:101EDC0025BA95F8049095F90400FFF789FE4FEAAE
:101EEC00890303F1A04303F54053B9F12F0FD3F845
:101EFC00002806D0002A07DA02F00302023A012A6F
:101F0C0002D8144AC3F800280121484606F06BFB9E
:101F1C001148D2E720940000E0BF0000B69F0000FB
:101F2C002000000044940000CE91000000300050CE
:101F3C006594000097940000DD9400000D9500005E
:101F4C002F950000159400007B930000088E000074
:101F5C0058950000000100805F9500004B95000033
:101F6C0000220248114603F027BC00BF7403002076
:101F7C0070B506460D46144606F07CFB01280DD0C4
:101F8C00204606F077FB012808D023462A46314626
:101F9C00084803F045FC2368AB4201D06FF01500F4
:101FAC00BDE87040714672467346F4468EF3008C61
:101FBC00744700BF74030020014803F0F5BB00BF59
:101FCC00708F000008B508B34368042B07D0082BAA
:101FDC0013D0F3B1006802F023F800200CE00022CB
:101FEC000368D3E8EF1F012903D1C3E8E02F0028D1
:101FFC00F7D1094808BF104608BD036800201B78BC
:10200C00064A03F5807342F82300F5E76FF4E040CD
:10201C00F2E70348F0E700BFE98FFFFF0000035031
:10202C00EA8FFFFF10B5044618B90D4B0D485B68DD
:10203C009847616808290DD031F004030AD011F0DB
:10204C00020108D02146084801F0B8FD00232360A6
:10205C000023636010BD1422206806F07EFBF7E7B6
:10206C004C000020199700003005002010B50446E4
:10207C0018B9164B16485B6898476368042B23D035
:10208C00082B21D0CBB92368BBB94FF0FF324FF0EE
:10209C00FF3321460F4801F037FD08B923681BB9FF
:1020AC000A4B0D485B68984714220021206806F003
:1020BC0054FB636843F002036360206806F0BEFCC7
:1020CC00636843F00103636010BD00BF4C00002047
:1020DC0019970000300500203F97000008B540B369
:1020EC004368042B0BD0082B16D003B300684FF0B9
:1020FC00FF324FF0FF3301F0C1FE58B115E0012261
:10210C000368D3E8EF1F002903D1C3E8E02F0028B0
:10211C00F7D10AD1002008BD0368074A1B7803F5E4
:10212C00807352F82330002BF4D00448F3E70448B2
:10213C00F1E76FF4E040EEE700000350E98FFFFF9A
:10214C00EA8FFFFF08B5064940231422054806F024
:10215C004AFCBDE808400449044803F0CDBB00BF6D
:10216C005005002030050020888F0000788F00007B
:10217C00094A0A49936809685867996708494B687E
:10218C0043F080534B60002383F31188BFF36F8FB0
:10219C009368986F704700BF300C002008900000C7
:1021AC0000ED00E013498A684FF030001044EFF363
:1021BC00098C80E8F01F202080F31188BFF36F8F0B
:1021CC000D4F4FF000664A6A8A603E60506F0023E4
:1021DC00536780F3118802F1300090E8F01F8CF304
:1021EC00098802F1000004B506F02CFABDE80440A1
:1021FC0070470000300C002004ED00E01EF0040FCE
:10220C000CBFEFF30880EFF30980816911F8021C11
:10221C000229FFD001B506F019FA01BD43B2002B1B
:10222C0008DB012200F01F0002FA00F0024A5B09F1
:10223C0042F82300704700BF00E100E0054B420963
:10224C0053F82220012300F01F0003FA00F0104085
:10225C00704700BF00E100E038B54C1C072C054668
:10226C0008D90D490D48582206F058F858210A484B
:10227C0006F020F96BB2002BACBF03F16043084BA6
:10228C004FEA4414E4B2ABBF03F5614305F00F050C
:10229C0083F800435C5538BD6C970000CE9100006C
:1022AC0014ED00E042F8203C009B0B4942F81C3C2A
:1022BC00019B21F0010142F8183C029B42F8081CDA
:1022CC0042F8143C4FF0807342F8043C0023203A4F
:1022DC0002654367704700BFEB830000084B9860B2
:1022EC00436E83F30B88104681F30988002163B693
:1022FC0081F31188BFF36F8F0022002306F06FF873
:10230C00300C0020014910220A60704710ED00E0EB
:10231C0072B6404080F31188BFF36F8FBFF34F8FBD
:10232C0030BF62B6BFF36F8F704700BF72B64940C3
:10233C0081F3118820BF80F3118862B6704700BF0B
:10234C0037B505460C46C9B18B6810480093D1E9E6
:10235C000023452106F0C3F8636945210093D4E9B5
:10236C0003230B4806F0BBF84521E269094806F047
:10237C00B6F84521A269084806F0B1F8214628466E
:10238C0003B0BDE8304001F075BA00BFA297000061
:10239C00D69700000A9800001E98000030BFFFF787
:1023AC00FDBF00BF0B4A08B50B4B22F07F029A60B1
:1023BC00BFF34F8FBFF36F8FD3F8882022F47002D6
:1023CC00C3F8882001F0B2FA02F0C8FE00F018FB46
:1023DC0001F0D0FA0000000000ED00E001B572B68B
:1023EC000B4A106A00281EBF0021116206F01FFB69
:1023FC0062B6EFF30580A0F110004FEAC00005496A
:10240C00014409C99847BDE8014003490847000049
:10241C00300C0020008B000061290000002080F3AC
:10242C001488BFF36F8F002080F30A8880F30B8829
:10243C0006F048F800200E490860BFF34F8F0D4896
:10244C0080F3088800F0B6FA202080F311880A483F
:10245C004FF40061401880F30988EFF314800221D7
:10246C00084380F31488BFF36F8FFFF79BFF0000C6
:10247C0094ED00E080280020C0290020EFF30880B4
:10248C00EFF3098101B5724600F070F901BD00BF90
:10249C0070B52B4C06460D462A48452106F01FF810
:1024AC00A26AD00603D54521274806F018F8A36A7E
:1024BC00190703D54521254806F011F8204CA36ACD
:1024CC009A0710D54521224806F009F8626BA36AD9
:1024DC001B0608D545211F4806F001F81EB1A36A5A
:1024EC0023F08003A362164CA26AD60703D54521BC
:1024FC00194805F0F4FFA36A980603D5452117483F
:10250C0005F0EDFF0E4B9A6AD10602D49A6A920737
:10251C000DD59B6ADB060AD51149124840F24F12C1
:10252C0005F0FCFE40F24F110D4805F0C3FF0020F2
:10253C00034A936A43F0FF039362287070BD00BF97
:10254C0000ED00E0519800006C980000A498000089
:10255C00BC980000D9980000F4980000189900006D
:10256C004C990000CE91000070B5234C06460D46E8
:10257C002248452105F0B3FFA26AD10403D54521B9
:10258C001F4805F0ACFFA36A1A0503D545211D4869
:10259C0005F0A5FF184CA36A9B0510D51A484521D8
:1025AC0005F09DFFA26BA36A180408D545211748B6
:1025BC0005F095FF1EB1A36A23F40043A3620E4CF1
:1025CC00A36A590503D54521114805F088FFA36A74
:1025DC00DA050BD545210F4805F081FF0020064A8E
:1025EC00936A43F47F439362287070BDA36A9B0483
:1025FC00F4D545210848EFE700ED00E0869900008E
:10260C00A1990000A4980000B7990000D59900008A
:10261C00EF9900000F9A00001899000038B5214C72
:10262C004521214805F05BFFA26A950103D54521A0
:10263C001E4805F054FFA36ADC0103D545211C4854
:10264C0005F04DFF174DAC6A14F4801404D04521ED
:10265C00184805F044FF0224AB6A180303D5452142
:10266C00154805F03CFF0F4DAA6A510303D54521CF
:10267C00124805F034FFAB6A9A0303D54521104884
:10268C0005F02DFF074DAB6ADB0303D545210D4843
:10269C0005F025FFAB6A20466FEA03436FEA13434C
:1026AC00AB6238BD00ED00E02C9A0000499A0000A6
:1026BC00619A0000809A0000AF9A0000D29A000044
:1026CC00FC9A00001B9B000010B51E4C1E484521B7
:1026DC0005F005FFA2696369580603D545211B481F
:1026EC0005F0FDFE6369D90708D54521184805F0AA
:1026FC00F6FE636943F0FF03636110BD63699A07DB
:10270C0002D545211348F2E763695B0702D54521E1
:10271C001148ECE76369180702D545210F48E6E735
:10272C006369D90602D545210D48E0E763699A062D
:10273C0002D545210B48DAE763691B06D9D545213B
:10274C000948D4E7D0ED00E04B9B0000699B0000EA
:10275C007E9B0000999B0000BC9B0000DC9B000052
:10276C00FE9B0000189C0000379C00002DE9F041F6
:10277C00624B0D465C6800268AB0C4F3080786F3EA
:10278C001188BFF36F8F02F07F43B3F17F4F1ED1DF
:10279C0012F0010339D012F0400302F0080840F0A7
:1027AC00A680520754BF05461E462A68544B58BF94
:1027BC0001261344012B98BF2A6C4521514805F082
:1027CC008EFEB8F1000F1DD0EFF389855DB940F294
:1027DC00E1324D494D4805F0A1FD40F2E1314A4846
:1027EC0005F068FE00250023FA1E98468DF8073088
:1027FC001346092B69D8DFE803F00A595D38616884
:10280C0068686865EFF38885E0E71E46DFE74521D9
:10281C003F4805F064FE394B8DF80780DC6A14F0F4
:10282C00020404D045213B4805F059FE48E0DB6A20
:10283C005B0022D54521384805F051FE374B1B78FB
:10284C0033B101200DF10701FFF722FE044614E01D
:10285C00334B1B782BB101200DF10701FFF784FEE0
:10286C00F4E7304B1B889BB213B1FFF7D7FEEDE7B3
:10287C002D4B5B690BB1FFF727FF9DF8073093B920
:10288C002022294602A805F03DFF099B56B3C3F34D
:10289C00080222B96FEA53236FEA432309932046B7
:1028AC0002A9FFF74DFD0AB0BDE8F08100200DF143
:1028BC000701C9E700200DF10701CFE7FFF704FF7F
:1028CC000024DAE745211948AEE7194914F4F87FDA
:1028DC00184A194808BF0A46A7F11003452105F00C
:1028EC00FEFDEDE723F4FF7323F00103D6E7B8F107
:1028FC00000F7FF46BAF0546012667E700ED00E0A3
:10290C00A6ED05017D9C00004C990000CE910000C5
:10291C00A19C0000BD9C0000E39C000028ED00E0A1
:10292C0029ED00E02AED00E0D0ED00E0079D00006D
:10293C004F9C0000649C0000309D0000044B5A69C1
:10294C0042F010025A615A6942F480625A6170472F
:10295C0000ED00E0044B9968586A884203D00349A3
:10296C004FF080520A607047300C002004ED00E0FC
:10297C00BFF34F8F0549064BCA6802F4E06213435C
:10298C00CB60BFF34F8F00BFFDE700BF00ED00E051
:10299C000400FA0500231846054A1168C1F3072103
:1029AC008B4200D17047936010610133F8E700BF90
:1029BC0090ED00E010B572B6002484F31388FFF795
:1029CC00E9FF0E4A234611464FF0FF3403F1200075
:1029DC000133102B42F82040F8D100234FF0FF3088
:1029EC0003F160020133102B41F82200F8D162B6DA
:1029FC00BFF34F8FBFF36F8F10BD00BF00E100E03E
:102A0C00002320210348C2180133452B82F8001300
:102A1C00F9D1704700E100E0064B9B68834207D177
:102A2C00EFF3058323B1044A536843F0805353609A
:102A3C0002F000BB300C002000ED00E082680C4B73
:102A4C009A60036883F38888436883F38988027BE0
:102A5C0002F00101EFF3948323F00303920748BFC4
:102A6C0043F0020309B143F0010383F394887047E8
:102A7C0000ED02E0084AD36848B123F400531B046C
:102A8C001B0C43F0BF6343F40033D36070479BB21D
:102A9C0043F40053F5E700BF00ED00E0084AD368AB
:102AAC0040B19BB243F4804343F0BF6343F4003323
:102ABC00D360704723F480431B041B0CF4E700BF66
:102ACC0000ED00E0084AD36840B19BB243F0080324
:102ADC0043F0BF6343F40033D360704723F0080323
:102AEC001B041B0CF4E700BF00ED00E0034AD2F816
:102AFC008C3043F44063C2F88C30704700ED00E03A
:102B0C00084B1A6818B142F001021A60704722F0A3
:102B1C0001021A601A6811B142F00202F5E722F0C4
:102B2C000202F2E7D0ED00E01FB5094C094A23463A
:102B3C000121094800F01AF900230393074B0121E6
:102B4C00E41A01A80193029400F02CF904B010BD12
:102B5C0000800020000000209C8F000070010020ED
:102B6C0010B50B680C7A23F01F0204F01F031A43F4
:102B7C00CB68640923F01F03044943EA440343F080
:102B8C0001038860CA600B6110BD00BF90ED00E0CE
:102B9C0030B54B680C6885B00A898D7A0094013B7E
:102BAC0024F01F04234402F01F0242EA451223F0D2
:102BBC001F03072804468DF80820039309D9024601
:102BCC004521064805F08BFC6FF01504204605B036
:102BDC0030BD6946FFF7C4FFF8E700BF4C9D00000D
:102BEC002DE9F04F8946144606464FF00008524D29
:102BFC0085B0C84523DA7768002F42D01F2F17D92C
:102C0C00FB0615D1D6F800A01AF01F0F10D15046B4
:102C1C0005F027FD834607EB0A00013805F021FD7E
:102C2C00834510D06FF0150B5A464521434802E0FE
:102C3C0042464521424805F052FC6FF015042046EF
:102C4C0005B0BDE8F08F1BF1160FEDD0631E5B4590
:102C5C00EADBC5F808B0E968C5F808B02F6921F0BF
:102C6C001F01D6E900321A44994247F01F0702F1BE
:102C7C00FF3A1CD1574508D131465FFA8BF0FFF76C
:102C8C0087FF08F101080C36B3E73146C5F808B0E8
:102C9C00EB6822F01F0203F01F031A43EA60E0B254
:102CAC00FFF776FF10F1160FC7D0441CE9E7013B84
:102CBC005745E0B223F01F03C5F808B006D12A69C6
:102CCC00314602F01F0213432B61E9E7296901F039
:102CDC001F010B432B613146FFF75AFF10F1160F02
:102CEC00ABD0C5F808B0EA689DF80830013F62F334
:102CFC0004038DF808302B699DF808205B0863F3FA
:102D0C0047128DF80820D6E900321344009323F0C3
:102D1C001F033B44441CA3EB0A0AE0B22AF01F0336
:102D2C000728039303D902464521064883E76946E1
:102D3C00FFF716FFB9E700BF90ED00E09F9D000084
:102D4C00779D00004C9D00000522034B5A60BFF399
:102D5C004F8FBFF36F8F704790ED00E0BFF35F8F25
:102D6C000022014B5A60704790ED00E010B50A4C00
:102D7C002278FFF735FF207016300CD10749084830
:102D8C0040F2051205F0CAFABDE8104040F20511F8
:102D9C00024805F08FBB10BD7C180020C79D0000B9
:102DAC00CE9100002DE9F74F2D4D8A4606464FF087
:102DBC000008AB462B4FD04502DB03B0BDE8F08FCB
:102DCC00D6F80490B9F1000F44D03168084601914F
:102DDC0005F047FC0199044609EB0100013805F0A8
:102DEC0040FC84424FF014021F4B13D06FF01503BC
:102DFC0002FB08F84BF8083040F215121B491C482E
:102E0C0005F08CFA40F21511184803B0BDE8F04FEC
:102E1C0005F050BB14F1160F2C60EDD01978A142BF
:102E2C00EADD02FB08B0BC60BC60FC6800F1080184
:102E3C00007B64F30400087138690C79400860F376
:102E4C0047140C71F96821F01F016960396921F090
:102E5C001F01296108F1010814350C36ABE700BFDE
:102E6C00500A002090ED00E07C180020C79D000067
:102E7C00CE91000070B51B4D2E68082E0DD94FF465
:102E8C009E721949194805F049FA17484FF49E717A
:102E9C0005F010FB4FF0FF3070BDFFF75FFF002017
:102EAC00134C144A2263864215D1134B1E70FFF744
:102EBC004BFF2368C3F30723082B0AD00A490B489E
:102ECC004FF4CF7205F02AFA4FF4CF71064805F093
:102EDC00F1FA0020E0E7696801EB0011FFF740FE12
:102EEC000130E0E7A88F0000C79D0000CE910000E4
:102EFC0090ED00E0AAFF44007C180020014B186004
:102F0C00704700BF28000020F0B54B79012B2CD066
:102F1C00032B27D110278B79032B23D1CD792DB1FE
:102F2C00012D1FD143685B689B071BD00A79012ACE
:102F3C001DD0022A1FD0AAB914460B684668B3F5F7
:102F4C00164F36686ED033D8B3F5165F6DD01CD8DB
:102F5C00B3F5966F6BD010D8B3F5967F6AD0B3F5F6
:102F6C00167F6AD06FF085005BE00027D3E74FF443
:102F7C0080740E22E1E70024FBE7B3F5166F5FD0F7
:102F8C00B3F5965FEED1394B3EE0B3F5E14F5AD035
:102F9C0007D8B3F5615F58D0B3F5964FE2D1344BF7
:102FAC0032E047F6122C6345DCD14FF400032BE0E2
:102FBC00B3F5613F4BD013D8B3F5963F4AD009D83F
:102FCC004DF6C02C634547D0B3F5614FCAD14FF4D1
:102FDC006B0319E0B3F5E13FC4D14FF0EB7313E091
:102FEC00B3F5612F3BD009D8DFF898C0634539D0D1
:102FFC00B3F5E12FB6D14FF0E86305E0DFF888C0F8
:10300C006345AFD14FF08053C6F8243503692C4388
:10301C003A432243043303C9C6F86C2583E8030002
:10302C000020F0BD4FF41D03EEE7124BECE74FF41C
:10303C009E23E9E74FF4A033E6E74FF41C33E3E7B4
:10304C004FF41D23E0E70C4BDEE70C4BDCE74FF0B5
:10305C006C73D9E70A4BD7E74FF46503D4E74FF00D
:10306C007063D1E74FF08063CEE700BF00B0130070
:10307C0000A04E000050270000C0750000F03A0080
:10308C0000903A0190D0030040420F00026810B546
:10309C005309044629D0012B4FF6FF7318BF0023A8
:1030AC0002F01F02D340DB070AD4124912484FF436
:1030BC00057205F033F94FF405710E4805F0FAF975
:1030CC00236803F01F025B0922600CD0012B0FD088
:1030DC000849094840F2192205F020F940F219215B
:1030EC00044805F0E7F9054810BD4FF0FF33D7E76A
:1030FC000348F9E75D920000CE9100000025845052
:10310C0000288450F8B505460F46066905F087FC83
:10311C0010B92C4B1B7883B94FF02003EFF31184BB
:10312C0083F31188BFF36F8F284605F085FB28BB0E
:10313C0084F31188BFF36F8FEEE76424284605F003
:10314C007BFB70B9012005F042FC013CF6D100215B
:10315C00212001F039FFF0E784F31188BFF36F8F62
:10316C00F5E74FF02003EFF3118483F31188BFF3DD
:10317C006F8F284605F060FB0028EDD0012206F881
:10318C00107F69680B68C3F84465C3F848250022B2
:10319C00C3F82021D3F82001C3F85821D3F85821C3
:1031AC004A68D20641BF0822C3F800254FF48002BA
:1031BC00C3F8042301229A6084F31188BFF36F8F44
:1031CC00F8BD00BF7D1800202DE9F3410F461646CF
:1031DC0040B91A491A48262205F0A0F826211748AA
:1031EC0005F068F947B915491548272205F096F8F6
:1031FC002721124805F05EF94FF4806500246FF02A
:10320C001500DFF84080A64202D802B0BDE8F0817C
:10321C00331BB3F5806F38BF1D46404601AB2A46C1
:10322C00391902F0FDFA019BAB4203D10028ECD115
:10323C002C44E8E76FF01500E7E700BF1D9E000087
:10324C00CE9100006C0A0020002208B511460448FB
:10325C0002F0B2FA002818BF6FF0150008BD00BFCD
:10326C006C0A00200348452108B505F038F9002008
:10327C00FFF77EFB589E00002DE9F0430025214C02
:10328C00214E54F8048CDFF8889085B0A84503D8FB
:10329C00002005B0BDE8F083636A96E807001F685C
:1032AC0001AB83E807000C221946384605F003FAF7
:1032BC0090B98FB1636A21691B681A6991420BD16D
:1032CC009A69A169914207D8E169914204D962696E
:1032DC005B6932EA03030AD0276A67B10B4805F031
:1032EC001DF8404080F311884FF0040002DFE368C2
:1032FC0001351C44CAE7484605F010F8636A1F60A4
:10330C00F5E700BF3C020000908D00007A9E0000A3
:10331C00A39E0000064B1B68072B07D1054B1B68AF
:10332C00023B032B02D8044AD05C70470020704744
:10333C003001FF003401FF00D69E00004FF05023F7
:10334C00D3F85825034B02F00302D340024A136012
:10335C00704700BF0020A107400000203D4A08B57F
:10336C00136843F002031360FFF7D4FF48B13A4BE4
:10337C001A6832B90D2119600121A3F58273196005
:10338C001A600022D30003F57F03D3F80013013138
:10339C0007D0D3F800130132D3F80433202A0B6082
:1033AC00F0D1FFF7B7FF00284ED1FFF7B3FF38B1CC
:1033BC002A4B2B4A1A604FF050230122C3F8582590
:1033CC00284B1B68072B0AD1274B1B68023B032B8E
:1033DC0005D8264AD35C13B10022254B1A60FFF79F
:1033EC0099FF50B14FF05023D3F80024D10742BFBE
:1033FC000022C3F81421C3F818211A4B1B68072BA1
:10340C0009D14FF05023D3F80024D20744BF6FF0FA
:10341C000102C3F80024FFF77DFF10B16522154BA4
:10342C001A60154AD2F88C3043F44063C2F88C30E1
:10343C00124A134B1168C3F84415D269C3F84C25D2
:10344C00BDE80840FFF77ABF29220A4B1A60032215
:10345C001A63AAE7D0ED00E0204A005030950350E3
:10346C004400EFBE3001FF003401FF00DA9E000083
:10347C004C2503500C47005000ED00E00080FF008D
:10348C000060005010B5044640B909490948B522FE
:10349C0004F044FFB521064805F00CF8064B1A79E8
:1034AC0022B9012205481C601A7110BD0448FCE7C2
:1034BC00DE9E0000CE910000280C00200000AD0B19
:1034CC000C00AD0B08B50D4B1B7943B90C490D48DD
:1034DC00CE2204F023FFCE21094804F0EBFF052097
:1034EC00FEF7ACFE10B90520FEF798FE4FF0502306
:1034FC000122C3F81425C3F8802508BD280C002030
:10350C00DE9E0000CE910000334B10B51B790446B3
:10351C0053B9324932484FF4857204F0FFFE4FF430
:10352C0085712E4804F0C6FF032C48D8DFE804F060
:10353C0002222D3A4FF05022D2F81834D2F8181437
:10354C00C90311D503F00303022B0DD1C2F81835B2
:10355C000022244B1A601B6802224FF05023C3F840
:10356C00042301229A6010BD4FF050230122C3F8AE
:10357C001825EDE700221C4B1A601B6801224FF046
:10358C005023C3F804231A60EDE70022174B1A608E
:10359C001B684FF400724FF05023C3F80423012230
:1035AC001A62E0E70022124B1A601B684FF480721B
:1035BC004FF05023C3F8042301229A61D3E7074943
:1035CC0007484FF49E7204F0A9FEBDE810404FF47A
:1035DC009E71024804F06EBF280C0020DE9E000095
:1035EC00CE91000004510050005100502451005065
:1035FC0020510050444B70B51B79044653B94349D4
:10360C00434840F2431204F089FE40F243113F4814
:10361C0004F050FF032C5AD8DFE804F002233F4C8F
:10362C004FF050230222C3F80823002203F58273C3
:10363C001A601B68374B012242F210754FF050266E
:10364C001A60022C50D0032C51D0002C52D1D6F839
:10365C001834DB0320D5012005F0B9F9013DF0D178
:10366C001AE001234FF05024002142F210752A4A2F
:10367C00C4F8083311601268284A1360D4F80C346B
:10368C00D4F80C2403F00103D20305D523B1012097
:10369C0005F09DF9013DF1D170BD4FF050234FF471
:1036AC000072C3F80823002203F592731A601B689A
:1036BC001B4BC0E74FF050234FF48072C3F8082324
:1036CC00002203F590731A601B68164BB3E70F4981
:1036DC000F4840F25F1204F021FE40F25F110B48DC
:1036EC00BDE8704004F0E6BED6F85C34B1E7D6F81D
:1036FC005434AEE70C4906484FF44F7204F00EFEFA
:10370C004FF44F710848EBE7280C0020DE9E0000B8
:10371C00CE9100000C50005000510050045000504D
:10372C00245000501C5000501B9F0000264B10B51D
:10373C001A6852B1002018601B6801224FF0502308
:10374C00C3F80823214B1B689847214B1A688AB190
:10375C0000221A601B684FF05023D3F81824D3F8BA
:10376C00181402F00302012A4FF0020124D1C3F80D
:10377C0018159A60174B1A6862B100221A601B6800
:10378C004FF480724FF05023C3F808230F4B0420E2
:10379C001B689847104B1A68AAB1BDE8104000226C
:1037AC001A601B684FF400724FF05023C3F80823C3
:1037BC00064B05201B681847C3F80813034B012060
:1037CC001B689847D6E710BD00510050280C00200C
:1037DC000451005020510050245100500E4B70B534
:1037EC0053F82040013053F82060A64200D870BD39
:1037FC00D4E900352846984765B1EB6830B100280C
:10380C00B8BF4042FF28A8BFFF2018705A7842F07A
:10381C0001025A700834E8E7F48F000070B50546D1
:10382C0010B90024204670BD0378002BF9D00F4A44
:10383C000F4C1646944208D10D4CB442F1D02046A0
:10384C0005F0C8F850B91834F7E7204605F0C2F86F
:10385C0010B12368AB42E5D01834EBE72846216859
:10386C0004F01DFF0028EED1DCE700BF1C01002096
:10387C00BC000020F7B504460E464FF02003EFF3D2
:10388C00118783F31188BFF36F8F01F0CDFB0022FA
:10389C00042C98BF1D4B054694BF53F824301C4B89
:1038AC000092452122461B4804F019FE3EB1F369F3
:1038BC00C3F308031BB14521174804F010FE35B1C2
:1038CC00284605F0B2F8034608B1027802B9134B4A
:1038DC002A464521124804F002FE31462046FFF7E5
:1038EC00C1FC042C08D10F490F488F2204F016FD9F
:1038FC008F210C4804F0DEFD87F31188BFF36F8F26
:10390C00284603B0BDE8F040FFF786B80C900000E5
:10391C004F9F0000659F0000929F00005D9F00007C
:10392C00B89F0000D59F0000CE9100000248034ACA
:10393C000021121A04F011BF700100208018002021
:10394C00012208B5094B02201A70FFF747FF01F05E
:10395C00CBFE0320FFF742FF00F0D6F904F0C4FCC5
:10396C00034A137B23F00103137308BD7D18002059
:10397C00F00100202DE980483F4BA7B003F500670C
:10398C0087F3088883F30A880024E0233B4D4FF02B
:10399C00010B85F82230EC772C766C76AC76EC76D5
:1039AC006B6A374E43F4E0236B626B6ADFF8E8A076
:1039BC0043F400236B62AC63EB68DFF8E0809BB2EE
:1039CC0043F0BF6343F40833EB60FEF7B7FFFEF739
:1039DC0099FC4FF0FF33AB62EB62FFF74BFAFFF74A
:1039EC00A3F840F20113274DADF8243006ABAB60C1
:1039FC00CDE91F4404F0EDFF2046FFF7EFFE012058
:103A0C00FFF7ECFE01F0C0F91F4B6E624FF48052D1
:103A1C001E49059330465346CDE9034BCDE901448D
:103A2C00009400F01DF9737B814623F004033046AB
:103A3C00737301F021F80F234FF4A072CDE9024308
:103A4C001349144B4046CDE904B4CDE9005400F0C1
:103A5C0007F998F80D30524623F0040388F80D301E
:103A6C0005F1180349463046C5E90633C5F80C8004
:103A7C002C756F60FEF732FCC029002000ED00E0D1
:103A8C00F0010020300C002041A000008018002024
:103A9C00802800205D3E00004D39000070010020A0
:103AAC002DE9F041144D154CA846154EAC4208D9E1
:103ABC00314614483C2204F031FC3C21304604F0E1
:103ACC00F9FC444502D30020BDE8F081D4E904128E
:103ADC0042EA010313F003030BD1E068A3618342B4
:103AEC0001D12034E2E7A76901331760A2610A44CF
:103AFC00F5E76FF01500E7E71C0100201C01002022
:103B0C0049A00000CE9100002DE9F74304460D4674
:103B1C009046994600F108064FF02003EFF3118709
:103B2C0083F31188BFF36F8F304600F06DF940B905
:103B3C001F492048812204F0F1FB81211C4804F02C
:103B4C00B9FC304600F07CF9A369C3B12B601B684B
:103B5C00A361E3690133E3610024304600F062F9AC
:103B6C0040B913491348AC2204F0D8FBAC211048DF
:103B7C0004F0A0FC87F31188BFF36F8F13E058EAB1
:103B8C00090203D16FF00B042B60E6E7224639469D
:103B9C003046CDE9008900F089FD044618B9064B82
:103BAC009B685B692B60204603B0BDE8F08300BFC7
:103BBC0008920000CE910000300C00202DE9F0415D
:103BCC0004460D4600F108064FF02003EFF3118771
:103BDC0083F31188BFF36F8F304600F015F940B9AD
:103BEC001D491E48812204F099FB81211A4804F0DA
:103BFC0061FC304600F024F9D4F81880B8F1000FBD
:103C0C000FD1204601F082F858B12A68C0F87880AC
:103C1C00426100F031FF39463046BDE8F04100F01A
:103C2C00A5BB2B68A26930461A602B68A361E369B7
:103C3C00013BE36100F0F6F840B907490748AC22B4
:103C4C0004F06CFBAC21044804F034FC87F31188BD
:103C5C00BFF36F8FBDE8F08108920000CE91000099
:103C6C002DE9F04385B0DDF83C900446B9F10F0F17
:103C7C000F46154698462ED11F4B98452FD104F16F
:103C8C005803C4E91633109B002623730423637373
:103C9C000E9BE81D02930D9B20F0070001930C9BDB
:103CAC003D18C4E9197000932A464346394620460C
:103CBC00C4E90666A66084F80E90E673E666FEF725
:103CCC00F1FA0E4B66659B6803B11B6F28462367A0
:103CDC0005B0BDE8F08309F110031E2BCFD94FF4CA
:103CEC0002720749074804F019FB4FF402710448AB
:103CFC0004F0E0FBC3E700BF5D3E0000300C002089
:103D0C006EA00000CE9100002DE9F047394F3A4DDE
:103D1C003E46DFF8EC8086B0BD420AD941463748B2
:103D2C004FF4367204F0FAFA4FF43671404604F050
:103D3C00C1FBB54205F130041DD300F04DFB40F240
:103D4C00E7384FF000092C4C2D4DDFF8B0A0B442F1
:103D5C000AD92946504640F2F72204F0DFFA40F225
:103D6C00F721284604F0A6FBB44221D306B0BDE8E7
:103D7C00F04700F019BD54F8043C059354F8103C7E
:103D8C00049354F8143C039354F8183C029354F8DD
:103D9C001C3C019354F8203C009354E90A2354E949
:103DAC000C01FFF75DFF54F8303C5D652546B3E729
:103DBC00636A5A1C0FD04FF400424046494623EA2E
:103DCC00E373C2FB0301494508BF4045276804D192
:103DDC00384600F087FE3034B9E74FF47A7200238E
:103DEC00FCF726FA02460B4607F11800054901F0CC
:103DFC001FFAF0E71C0100201C010020CE910000EE
:103E0C006EA00000754B0000006838B1044B00F048
:103E1C0003001B7DC01A18BF01207047012070479A
:103E2C00300C0020054903468A68087D1968024356
:103E3C000020914204BF186001207047300C002014
:103E4C00024A117D93680B4303607047300C0020CD
:103E5C0008B5094C4FF02002EFF3118382F311885F
:103E6C00BFF36F8F01F0DAFA2062FDF735FB002803
:103E7C00F0D1FEF74DFAEDE7300C00202DE9F341BF
:103E8C00044616461F46EFF3058343B15F4960486D
:103E9C00652204F043FA65215C4804F00BFB4FF0FB
:103EAC002003EFF3118883F31188BFF36F8F594808
:103EBC00FFF7AAFF40B958495548812204F02EFA61
:103ECC008121554804F0F6FA5248FFF7B9FFE36830
:103EDC00524AD3B1A0689168884233D056EA07039E
:103EEC0032D14C48FFF79EFF40B94B494848AC22B1
:103EFC0004F014FAAC21484804F0DCFA88F3118879
:103F0C00BFF36F8F6FF00F0019E0916891F90E10ED
:103F1C000133E36093683F482161A360FFF782FFA0
:103F2C0040B93D493A48AC2204F0F8F9AC213A4882
:103F3C0004F0C0FA88F31188BFF36F8F002002B031
:103F4C00BDE8F0812169E3E790F90E3091F90E108C
:103F5C009942A8BF194621EAE1718B423CDD00F081
:103F6C004BFE054622464146CDE90067294800F044
:103F7C009DFB0028E3D04FF02003EFF3118683F371
:103F8C001188BFF36F8F2348FFF73EFF40B92249DA
:103F9C001F48812204F0C2F981211F4804F08AFADB
:103FAC001C48FFF74DFF236821699C4207D033B1B1
:103FBC0093F90E309942A8BF194621EAE171A06825
:103FCC0090F90E30994209D16DB13146114800F08B
:103FDC00CDF96FF00A00B2E70025C3E700F00CFE44
:103FEC000028F2D1F0E70B48FFF71CFF40B90A4953
:103FFC000748AC2204F092F9AC21074804F05AFAB5
:10400C0086F31188BFF36F8FE3E700BF91A0000028
:10401C00CE910000600C002008920000300C0020B3
:10402C0038B50446EFF3058343B145494548C722EB
:10403C0004F074F9C721424804F03CFAA368002B41
:10404C0078D0414DAA68934277D1E36843B93C4993
:10405C003C48DF2204F062F9DF21394804F02AFAE7
:10406C00EFF3058343B139493648FE2204F056F983
:10407C00FE21364804F01EFAAB68DB7B012B08D11D
:10408C0032493048FF2204F049F9FF212F4804F04F
:10409C0011FAAA68D37B013BD373E368012B05D0DB
:1040AC00013BE36000F080FB002038BD4FF02003A3
:1040BC00EFF3118583F31188BFF36F8F2448FFF75B
:1040CC00A3FE40B923491F48812204F027F981211E
:1040DC00204804F0EFF91E48FFF7B2FEA0682169F2
:1040EC0090F90E30994201D000F086FD204600F088
:1040FC000DFEA06058B190F90E202261002282675B
:10410C0000F0BAFC2946124800F030F9CAE7E0602A
:10411C000F48FFF787FE40B90E490A48AC2204F05D
:10412C00FDF8AC210B4804F0C5F985F31188BFF3F9
:10413C006F8FB7E76FF01500B7E74FF0FF30B4E7BC
:10414C0091A00000CE910000300C0020B3A0000024
:10415C00600C00200892000038B504464FF0200394
:10416C00EFF3118583F31188BFF36F8F1248FFF7BC
:10417C004BFE40B911491248812204F0CFF881213D
:10418C000E4804F097F90C48FFF75AFE204600F051
:10419C00BDFD48B10022826700F06EFC2946BDE8E7
:1041AC003840054800F0E2B8D4E902329A4218BF10
:1041BC000133A360F2E700BF640C002008920000FA
:1041CC00CE910000F7B5044616461F46EFF3058363
:1041DC005BB156EA070308D02B492C48792204F02E
:1041EC009DF87921284804F065F94FF02003EFF38E
:1041FC00118583F31188BFF36F8F2548FFF704FEF9
:10420C0040B924492148812204F088F881212148B1
:10421C0004F050F91E48FFF713FEA368ABB1013B45
:10422C001B48A360FFF7FEFD40B91A491748AC22A2
:10423C0004F074F8AC21174804F03CF985F31188AC
:10424C00BFF36F8F002003B0F0BD56EA070313D104
:10425C000F48FFF7E7FD40B90E490C48AC2204F0BB
:10426C005DF8AC210B4804F025F985F31188BFF3F8
:10427C006F8F6FF00F00E6E722462946CDE9006705
:10428C00034800F013FADEE7DEA00000CE91000038
:10429C00640C00200892000010B5084C23685BB138
:1042AC00FDF798FC03462068054A03440021BDE84D
:1042BC001040136101F0E8B810BD00BF740C002071
:1042CC00300C0020F8B504460D464FF02003EFF3F8
:1042DC00118683F31188BFF36F8F1E48FFF794FD8F
:1042EC0040B91D491D48812204F018F881211A4853
:1042FC0004F0E0F81748FFF7A3FD4FF40047002245
:10430C0040F2E7300021164BE7FB04011A61002351
:10431C004FF47A72FBF78CFF002C124B16DC1860F2
:10432C00114B1D60FFF7B8FF0A48FFF77BFD40B942
:10433C0009490A48AC2203F0F1FFAC21064804F00D
:10434C00B9F886F31188BFF36F8FF8BD0228B8BF98
:10435C000220E4E76C0C002008920000CE910000D3
:10436C00300C0020740C0020700C002010B503469B
:10437C000C46C1B9EFF30582AAB9144A516A926886
:10438C00914210D0FFF74EFD40B911491148C3229C
:10439C0003F0C4FFC3210E4804F08CF8BDE81040B4
:1043AC000020FDF7E5BE1846FFF73CFD40B9084973
:1043BC000848AC2203F0B2FFAC21054804F07AF8AF
:1043CC0084F31188BFF36F8F10BD00BF300C002039
:1043DC0008920000CE91000038B54FF02003EFF3A7
:1043EC00118583F31188BFF36F8F2048FFF70CFD05
:1043FC0040B91F491F48812203F090FF81211C48BE
:10440C0004F058F81948FFF71BFDEFF3058343B18F
:10441C0019491848FE2203F081FFFE21164804F0CA
:10442C0049F8164CA268D27B012A08D112491148CE
:10443C00FF2203F073FFFF210F4804F03BF8A26842
:10444C00D37B013BD3730948FFF7ECFC40B9084917
:10445C000848AC2203F062FFAC21054804F02AF8AE
:10446C0085F31188BFF36F8F38BD00BF6C0C002033
:10447C0008920000CE910000B3A00000300C002088
:10448C000B4B10B599420C460AD10A490A484FF415
:10449C00717203F043FF4FF47171064804F00AF88F
:1044AC00D4E9003213605A600023C4E9003310BD14
:1044BC0070010020FEA00000CE910000836810B5B2
:1044CC00044653B90A490B4840F24F2203F026FF29
:1044DC0040F24F21064803F0EDFF2146A068FFF79C
:1044EC00CFFF637B23F0020363730023A36010BD33
:1044FC00FEA00000CE91000038B50246124804F030
:10450C00BAFA124D044600B9EC68AAB9AB6843B9C3
:10451C000F491048852203F001FF85210C4803F058
:10452C00C9FFAB685A7BD20606D1A26922B9DA89D7
:10453C007F2A01D96B6238BDAB68A34201D0FFF76B
:10454C00ABFE6C62F7E700BF580C0020300C00206B
:10455C00FEA00000CE91000010B590F90D2004468D
:10456C00002A437B06DA03F07F03014643730648B7
:10457C00FFF786FF054B9868031B58425841BDE86E
:10458C001040FFF7B9BF00BF580C0020300C0020C2
:10459C0038B504460D46FFF7DFFF637B43F002039B
:1045AC00637325B3184BA5609C420AD11749184870
:1045BC0040F2B53203F0B2FE40F2B531134803F0CD
:1045CC0079FF2B689D4208BF0023002B38BF0023C6
:1045DC009BB194F90E1093F90E20914208D0521A07
:1045EC00002A05DD5A68C4E9003214605C6038BDED
:1045FC006A68934201D01B68EAE76B68C4E9005310
:10460C001C606C60F3E700BF70010020FEA000008E
:10461C00CE9100002DE9F04104460D4616461F468A
:10462C004FF02003EFF3118883F31188BFF36F8FE2
:10463C001A48FFF7E9FB40B919491A48812203F0DF
:10464C006DFE8121164803F035FF1448FFF7F8FB87
:10465C0020462946FFF79CFF1048FFF7E3FB40B9C3
:10466C000F491048AC2203F059FEAC210C4803F062
:10467C0021FF88F31188BFF36F8F7B1C08BFB6F145
:10468C00FF3F08D032463B4604F118000649BDE80E
:10469C00F04100F0CDBDBDE8F08100BF6C0C0020F6
:1046AC0008920000CE910000754B000038B505460D
:1046BC000D4B0C4698680D4B11461860DDE9042330
:1046CC00FFF7A8FF2846FFF7ADFB40B9084909489A
:1046DC00C32203F023FEC321054803F0EBFE204662
:1046EC00BDE83840FDF744BD300C0020680C0020BC
:1046FC0008920000CE91000070B50446183000F00E
:10470C0051FE4FF02003EFF3118683F31188BFF3B2
:10471C006F8F2048FFF778FB40B91F491F48812253
:10472C0003F0FCFD81211C4803F0C4FE1948FFF77F
:10473C0087FB94F90D20637B002A06DA03F07F03D4
:10474C00214617486373FFF79BFE164D637BA868E1
:10475C0043F010036373031B58425841FFF7CCFE20
:10476C000C48FFF75FFB40B90B490C48AC2203F037
:10477C00D5FDAC21084803F09DFE86F31188BFF3EC
:10478C006F8FAB68A34203D1BDE8704004F069B9E8
:10479C0070BD00BF6C0C002008920000CE91000090
:1047AC00580C0020300C002038B54FF02003EFF3EC
:1047BC00118583F31188BFF36F8F2448FFF724FB17
:1047CC0040B923492348812203F0A8FD81212048C8
:1047DC0003F070FE204C1D48FFF732FBA268D27B21
:1047EC0052B91E491B4840F2523203F097FD40F279
:1047FC0052311A4803F05EFEEFF3058353B11749AB
:10480C00144840F2533203F089FD40F253311348FF
:10481C0003F050FEA2680020D37B0133D373FFF763
:10482C006BFE0A48FFF7FEFA40B909490948AC2269
:10483C0003F074FDAC21064803F03CFE85F31188AF
:10484C00BFF36F8FBDE8384004F00BB96C0C00203F
:10485C0008920000CE910000300C0020FEA0000059
:10486C0070B590F90D200446002A437B06DA03F05C
:10487C007F03014643732048FFF702FE637B63F01E
:10488C007F0363731D4B9C420AD11D491D4840F2A6
:10489C00B53203F043FD40F2B531194803F00AFE7E
:1048AC00194A114651F8283FD56A8B4208BF00239C
:1048BC00002B38BF0023CBB194F90E6093F90E0096
:1048CC0086420FD0801B00280CDD5968C4E90031EA
:1048DC000C605C609068031B58425841BDE8704006
:1048EC00FFF70ABEAB4201D01B68E4E7C4E9001530
:1048FC002C60D462EEE700BF580C00207001002041
:10490C00FEA00000CE910000300C002070B50446D3
:10491C004FF02003EFF3118583F31188BFF36F8FF2
:10492C002548FFF771FA40B924492548812203F044
:10493C00F5FC8121214803F0BDFD1F48FFF780FAEB
:10494C00204B214A986811688842194613D1FFF709
:10495C00A3FC1948FFF766FA40B918491848AC226D
:10496C0003F0DCFCAC21154803F0A4FD85F31188A1
:10497C00BFF36F8F70BD00261660144A1268BAB16F
:10498C00C2897F2A14D8427BD20611D1104A90F9E1
:10499C000E60126896420BDB0E4A904208D01A69E0
:1049AC00A24202DCFFF75CFFD1E7121B1A61D0E7D1
:1049BC0000230B61CDE700BF6C0C002008920000B7
:1049CC00CE910000300C0020680C0020740C0020EC
:1049DC00700C00207001002070B590F90D20044679
:1049EC00002A437B3FDBDA063DD18569002D3AD1A5
:1049FC0063F07F0343731C4B98420AD11B491C483C
:104A0C0040F2B53203F08AFC40F2B531174803F09E
:104A1C0051FD18490B4653F8280F984218BF05460C
:104A2C00002D1A462B4638BF0023CD6AB3B194F93A
:104A3C000E6093F90E0086420CD0801B002809DD15
:104A4C005A68C4E9003214605C600020BDE8704014
:104A5C00FFF752BDAB4201D01B68E7E7C4E9002564
:104A6C002C60CC62F1E770BD70010020FEA000004C
:104A7C00CE910000300C002038B504464FF02003D6
:104A8C00EFF3118583F31188BFF36F8F1248FFF793
:104A9C00BBF940B911491248812203F03FFC812136
:104AAC000E4803F007FD0C48FFF7CAF92046FFF744
:104ABC0093FF0948FFF7B6F940B908490848AC22FA
:104ACC0003F02CFCAC21054803F0F4FC85F31188B1
:104ADC00BFF36F8F38BD00BF6C0C00200892000034
:104AEC00CE91000038B504464FF02003EFF311854A
:104AFC0083F31188BFF36F8F1848FFF785F940B91E
:104B0C0017491848812203F009FC8121144803F04D
:104B1C00D1FC1248FFF794F9637B5A0711D40F4864
:104B2C00FFF780F940B90E490E48AC2203F0F6FBB2
:104B3C00AC210B4803F0BEFC85F31188BFF36F8FDB
:104B4C0038BD23F0040320466373FFF745FF294665
:104B5C00BDE838400148FFF709BC00BF6C0C0020D1
:104B6C0008920000CE91000070B504464FF020036F
:104B7C00EFF3118683F31188BFF36F8F1B48FFF798
:104B8C0043F940B91A491B48812203F0C7FB812124
:104B9C00174803F08FFC1548FFF752F914F80B3C3B
:104BAC0013F0280F10D154F8103CA4F1180513B1D0
:104BBC002846FFF783FC14F80B3C284623F014031B
:104BCC0004F80B3CFFF708FF0848FFF72BF940B936
:104BDC0007490848AC2203F0A1FBAC21044803F0C0
:104BEC0069FC86F31188BFF36F8F70BD6C0C0020CD
:104BFC0008920000CE910000F8B504460E464FF026
:104C0C002003EFF3118783F31188BFF36F8F3848BC
:104C1C00FFF7FAF840B937493748812203F07EFB99
:104C2C008121344803F046FC3148FFF709F9637BD6
:104C3C0076B2DA0658D1A569002D55D103F07F0361
:104C4C00637321462D48FFF71BFC637BA67363F04F
:104C5C007F0363732A4B9C420AD12A49264840F2AF
:104C6C00B53203F05BFB40F2B531264803F022FC71
:104C7C0025490B4653F8280F984218BF0546002DBE
:104C8C001A462B4638BF0023CD6A43B394F90E6005
:104C9C0093F90E0086421ED0801B00281BDD5A683B
:104CAC00C4E9003214605C600120FFF725FC01248C
:104CBC000F48FFF7B7F840B90E490F48AC2203F084
:104CCC002DFBAC210B4803F0F5FB87F31188BFF3E8
:104CDC006F8F2046F8BDAB4201D01B68D5E7C4E905
:104CEC0000252C60CC62DFE7A6730024E0E700BF50
:104CFC006C0C002008920000CE910000580C002093
:104D0C0070010020FEA00000300C002038B50446D5
:104D1C004FF02003EFF3118583F31188BFF36F8FEE
:104D2C001648FFF771F840B915491648812203F06F
:104D3C00F5FA8121124803F0BDFB1048FFF780F80B
:104D4C00204603F098FE044628B1FFF7B7FB04F1A8
:104D5C00180000F027FB0948FFF764F840B9084930
:104D6C000848AC2203F0DAFAAC21054803F0A2FBA8
:104D7C0085F31188BFF36F8F204638BD6C0C002073
:104D8C0008920000CE9100000021044B084603F16C
:104D9C002802C3E90A22FFF795BA00BF300C0020A5
:104DAC00F8B5EFF3058353B1404941484FF496628F
:104DBC0003F0B4FA4FF496613C4803F07BFB3D4D95
:104DCC003D4EAB68B34267D04FF02003EFF3118731
:104DDC0083F31188BFF36F8F3848FFF715F840B98C
:104DEC0037493348812203F099FA8121344803F082
:104DFC0061FB3248FFF724F8A96832484B7B03F07B
:104E0C007F034B73FFF73CFBAC68637BB44263F0EE
:104E1C007F0363730AD12549254840F2B53203F06C
:104E2C007DFA40F2B531214803F044FBAB6A2548CA
:104E3C00E96A834208BF0023002B38BF002333B339
:104E4C0094F90E6093F90E2096421CD0921B002A06
:104E5C0019DD5A68C4E9003214605C600120FFF768
:104E6C004BFB1648FEF7DEFF40B915491048C3222C
:104E7C0003F054FAC321124803F01CFB3846BDE87A
:104E8C00F840FDF775B98B4201D01B68D7E7C4E930
:104E9C0000010C60EC62E1E74FF02003EFF31180AE
:104EAC0083F31188BFF36F8FE9E700BFFEA000000A
:104EBC00CE910000300C0020700100206C0C002002
:104ECC0008920000580C00202DE9F04106460F46D0
:104EDC00EFF3058353B13549354840F2D14203F025
:104EEC001DFA40F2D141314803F0E4FA56EA0703C7
:104EFC0004D1FFF755FF0020BDE8F08103F0C5FD9C
:104F0C0084194FF02003EFF3118883F31188BFF35A
:104F1C006F8F2848FEF778FF40B927492448812233
:104F2C0003F0FCF98121244803F0C4FA234D2148F5
:104F3C00FEF786FFA868224B1860FFF70DFBA868E8
:104F4C0032463B4618301F4900F072F9AA681948DE
:104F5C00537B43F010035373FEF764FF40B91649BB
:104F6C001348C32203F0DAF9C321134803F0A2FA61
:104F7C004046FDF7FDF8AB685B7BDB060AD50B49B9
:104F8C000B4840F2EF4203F0C9F940F2EF410748F9
:104F9C0003F090FA03F079FD201A64EB0401002869
:104FAC0071F10003B8BF0020A6E700BFFEA000000F
:104FBC00CE9100006C0C002008920000300C0020F8
:104FCC00680C0020754B000038B504460D46EFF315
:104FDC00058353B11149124840F2FE4203F09EF989
:104FEC0040F2FE410D4803F065FA6B1C08BFB4F1AA
:104FFC00FF3F06D10B4B9868FFF77EFB4FF0FF305D
:10500C0038BD20462946FFF75FFF4FF47A7380FBCB
:10501C000334D80B40EA4440F2E700BFFEA0000086
:10502C00CE910000300C0020014B9868704700BFF7
:10503C00300C00202DE9F04104464FF02003EFF333
:10504C00118683F31188BFF36F8F3E48FEF7DCFEA9
:10505C0040B93D493D48812203F060F981213A482D
:10506C0003F028FA3748FEF7EBFE637B1A0712D5DC
:10507C003448FEF7D7FE40B933493448AC2203F02C
:10508C004DF9AC21304803F015FA86F31188BFF3C3
:10509C006F8FBDE8F08123F0200242F00801D209A5
:1050AC0038D16173A36813B12046FFF707FA04F1F6
:1050BC00180000F077F94FF0000804F15807A56DBF
:1050CC00BD4200D085BB0120FFF716FA204B9B6830
:1050DC00A342CDD1EFF30583002BC9D11948FEF7BC
:1050EC00A1FE40B918491948C32203F017F9C3218E
:1050FC00154803F0DFF93046FDF73AF840F211623B
:10510C001449124803F00AF940F21161114803F0F6
:10511C00D1F9ADE703F05F0343F0080321460E48D5
:10512C006373FFF7ADF9BDE72846FFF7C7F905F143
:10513C00180000F037F92846C5F87880FFF74CFCCA
:10514C00BDE700BF6C0C002008920000CE9100005F
:10515C00300C0020FEA00000580C002008B50648BA
:10516C00064A0749121A03F0CDFABDE80840054A71
:10517C000549064803F0C6BA000000206C01002067
:10518C0080A100000000000080A1000000000020B1
:10519C00034B1B680BB9FCF71DBD0020704700BF0B
:1051AC00780C002030B5036868B10A4A5268904206
:1051BC0009D043B1D3E90421D0E90445121945EBD8
:1051CC000101C3E90421426813605A600023C0E95D
:1051DC00003330BD4400002038B5134B1C689C4292
:1051EC0008BF0024FFF7D4FF0546BCB1D4E9040185
:1051FC00401B61EBE571012871F1000311DB6FF0CD
:10520C0000420023824273EB010400DA1046074B84
:10521C001B6913B19842A8BF184638BD6FF0004007
:10522C00F5E70020F3E700BF44000020300C00201D
:10523C002DE9F74F1D466B1C08BFB2F1FF3F8246AC
:10524C008B46144600F09C80036843B14E494F488E
:10525C005D2203F063F85D214B4803F02BF9CAF88B
:10526C0008B04FF02003EFF3118B83F31188BFF3D9
:10527C006F8F4748FEF7C8FD40B946494348812225
:10528C0003F04CF88121434803F014F94048FEF731
:10529C00D7FD6FF001034FF0FF32B3EB040862EB64
:1052AC000509B8F1000F79F100011CDB3A48D0E98F
:1052BC0000105B1A62EB00021E1B62EB0507012E4D
:1052CC0077F10003BCBF01260027CAE90467334A03
:1052DC00D2E9003693421DD1CAE90026C6F800A0D7
:1052EC00C2F804A02CE0FFF753FF631C009345F1B8
:1052FC0000030193DDE90023121843EBE073CAE9C4
:10530C000423E4E7E01B65EB0801B342CAE904019E
:10531C00E2D01B68002BDFD0D3E90478DAE904452E
:10532C00BC4275EB0801EDDA381B68EB0501C3E9EB
:10533C0004015968CAE90031C1F800A0C3F804A0FF
:10534C00136893420BD09A4509D1FFF745FF18B16A
:10535C00134B1B69834202D00021FCF709FC0C485B
:10536C00FEF760FD40B90B490848AC2202F0D6FFAD
:10537C00AC21084803F09EF88BF31188BFF36F8FB4
:10538C0003B0BDE8F08F00BF20A10000CE9100005B
:10539C007C0C0020089200007002002044000020C9
:1053AC00300C002038B504464FF02003EFF3118584
:1053BC0083F31188BFF36F8F1548FEF725FD40B9B5
:1053CC0014491548812202F0A9FF8121114803F0EC
:1053DC0071F80F48FEF734FD2368B3B12046FFF790
:1053EC00E1FE00240A48FEF71DFD40B909490A48B0
:1053FC00AC2202F093FFAC21064803F05BF885F376
:10540C001188BFF36F8F204638BD6FF01504E9E7A4
:10541C007C0C002008920000CE91000038B54FF0B3
:10542C002003EFF3118583F31188BFF36F8F1348BB
:10543C00FEF7EAFC40B912491248812202F06EFFD5
:10544C0081210F4803F036F80C48FEF7F9FCFFF702
:10545C00C3FE04460948FEF7E5FC40B90849094873
:10546C00AC2202F05BFFAC21054803F023F885F376
:10547C001188BFF36F8F204638BD00BF7C0C002015
:10548C0008920000CE91000070B504460D464FF016
:10549C002003EFF3118683F31188BFF36F8F164847
:1054AC00FEF7B2FC40B915491548812202F036FFCF
:1054BC008121124802F0FEFF0F48FEF7C1FCFFF7F6
:1054CC008BFE012805DDA04203DB29462046FCF7B4
:1054DC004FFB0948FEF7A6FC40B908490848AC2226
:1054EC0002F01CFFAC21054802F0E4FF86F31188A2
:1054FC00BFF36F8F70BD00BF7C0C002008920000C2
:10550C00CE9100002DE9F04F85B00446FFF7FEF96F
:10551C004FF02003EFF3118983F31188BFF36F8FE2
:10552C004C48FEF771FC40B94B494C48812202F0C3
:10553C00F5FE8121484802F0BDFF494F494EBB465C
:10554C004448DFF824A1FEF77BFC3460D6F800C099
:10555C00DAF800806246D7E90034D045CDE9023450
:10556C004FEAE273CDE9002311D0B8F1000F0ED051
:10557C00D8E90412DDE900348B4274EB02032ADA19
:10558C00009BC81A019B62EB0301C8E904010024CB
:10559C00009B029A03999A18019B346041EB030318
:1055AC00CBE90023FFF718FE2146FCF7E1FA294866
:1055BC00FEF738FC40B928492848AC2202F0AEFE70
:1055CC00AC21254802F076FF89F31188BFF36F8F69
:1055DC0005B0BDE8F08F0022DDE902450023641818
:1055EC00ACEB010045EBE1753060C8E904234046A3
:1055FC00C7E90045FFF7D6FD1648FEF713FC40B986
:10560C0015491648AC2202F089FEAC21124802F072
:10561C0051FF89F31188BFF36F8F4046D8F80830DB
:10562C0098474FF02003EFF3118983F31188BFF3F0
:10563C006F8F0848FEF7E8FB40B9074907488122FD
:10564C0002F06CFE8121044802F034FF0148FEF7A1
:10565C00F7FB7BE77C0C002008920000CE91000049
:10566C0070020020780C00204400002070B54FF030
:10567C002003EFF3118683F31188BFF36F8F164865
:10568C00FEF7C2FB40B915491548812202F046FECF
:10569C008121124802F00EFF0F48FEF7D1FBFCF7F8
:1056AC0099FA104BD3E9004524180B4845F1000535
:1056BC00FEF7B8FB40B909490948AC2202F02EFEAE
:1056CC00AC21064802F0F6FE86F31188BFF36F8F0B
:1056DC002046294670BD00BF7C0C002008920000BB
:1056EC00CE91000070020020024A0349034802F0E8
:1056FC0015BE00BF7693000044A1000054A1000029
:10570C0010B50C4C236813B10B4B1B682BB900F074
:10571C00A5FA30B90122084B1A600123002023603E
:10572C0010BD0138072801D9044810BD044B53F8AB
:10573C00200010BD800C0020840C0020FE8FFFFF89
:10574C0020900000BFF34F8F0549064BCA6802F446
:10575C00E0621343CB60BFF34F8F00BFFDE700BF88
:10576C0000ED00E00400FA054FF0FE33002130B4E8
:10577C00084A094C094D23602B601360E360EB6011
:10578C00D360A361064A074CAB616368C2F800158D
:10579C0030BC18470854845000548450045484502E
:1057AC00004084504C000020024BD0E90012C3E9A9
:1057BC00001270474C0000202DE9F043154CDFF827
:1057CC005C80002818BF0446206883B040451DD07B
:1057DC0016460D4620464FF4DE7104F1040900F024
:1057EC004FFE04F58C77484600F01CF9384601F062
:1057FC0027FA4A4638462B460749009601F032FAFA
:10580C0008B9C4F8008003B0BDE8F083002003B0F1
:10581C00BDE8F083880C0020B15A0000A5BCC95A21
:10582C00F0B50D4C0D4E002808BF2046076883B01C
:10583C00B7420ED100261D4600F58C7033460096FB
:10584C00144601F061FA002818BF34462C6003B0EE
:10585C00F0BD0348FBE700BF880C0020A5BCC95A6B
:10586C00E88FFFFF48B143682BB1BFF35F8F002374
:10587C00036018467047024870476FF4E040704769
:10588C00EA8FFFFF10B5044628B1636813B10023FB
:10589C002360636010BD024B02485B689847F4E7D5
:1058AC004C0000204090000010B5044630B100229E
:1058BC006368226043F00103636010BD0148FFF789
:1058CC0053FFF4E76890000080B1436863B1012294
:1058DC00D0E8EF3FC0E8E12F0029F9D1012BF7D038
:1058EC00BFF35F8F00207047024870476FF4E040B1
:1058FC00704700BFEA8FFFFF70B40B4B0668C2689D
:10590C00D0E90154C3E90242C3E90065D1E90302BD
:10591C000E68064BD1E90154C3E90065C3E90240A6
:10592C001A6170BC704700BF5C0000206C00002046
:10593C002DE9F043202B1D460646894690468BB038
:10594C0026D8DBB202AF31688DF804908DF80530A3
:10595C0006F1040921B9484600F03CFE044640B962
:10596C00012302224846336001A900F047FE044699
:10597C0038B13846202100F083FD20460BB0BDE83D
:10598C00F0832A464146484600F038FE0446F0E7CC
:10599C0002AF1946104600233A4601F08FFA04462E
:1059AC000028E6D12023B8461D46CCE7F0B5D0F848
:1059BC00F430A7B0002BD8BF02AE2CDD0546002377
:1059CC00D0F8084102AE0193A4F101073146D5F895
:1059DC00F8409022D0F8FC0001ABB7FA87F7A0474B
:1059EC007F09044610B9019B3BB9A7B13046902101
:1059FC0000F046FD204627B0F0BD01463246284651
:105A0C00FFF796FF50B9D5F80031019A1344C5F849
:105A1C000031002FEAD16FF03C04E7E70446204642
:105A2C0027B0F0BD70B50025044629461422C0F8F5
:105A3C00F450F83002F091FE164B04F586761B6894
:105A4C0030469847204640F8045B00F0A9FD124B05
:105A5C0030461B689847D8B9D4F8F430AB4211DC07
:105A6C000121202503EB830204EB8202C2F8FC0027
:105A7C000A480B44C2F80451C2F8F800C2F80811E5
:105A8C00C4F8F430064B3046BDE870401B6818472C
:105A9C0070BD00BFB0000020B4000020A164000065
:105AAC00B80000202DE9F047202A88B078D83E4B6A
:105ABC0000F5867904461B68484617468846984781
:105ACC00054640BB40F20116D4F8F430002B63D0ED
